:020000040800F2
:1000000000400020D1510008AD500008B150000858
:1000100000000000000000000000000000000000E0
:10002000000000000000000000000000B5500008C3
:100030000000000000000000B9500008BD5000089A
:1000400021520008215200082152000821520008C4
:1000500021520008215200082152000821520008B4
:1000600021520008C5500008215200082152000802
:1000700021520008D550000821520008E550000820
:100080002152000821520008215200082152000884
:10009000215200082152000821520008F5500008A2
:1000A000215200082152000821520008195100086D
:1000B000295100082152000821520008215200084D
:1000C00010B5064C2378002B07D1054B002B02D02E
:1000D000044800E000BF0123237010BDE0010020B0
:1000E00000000000645C0008044B10B5002B03D036
:1000F0000349044800E000BF10BDC04600000000F6
:10010000E4010020645C0008002243088B4274D3A1
:1001100003098B425FD3030A8B4244D3030B8B4208
:1001200028D3030C8B420DD3FF22090212BA030C11
:100130008B4202D31212090265D0030B8B4219D3F2
:1001400000E0090AC30B8B4201D3CB03C01A524112
:10015000830B8B4201D38B03C01A5241430B8B425A
:1001600001D34B03C01A5241030B8B4201D30B0343
:10017000C01A5241C30A8B4201D3CB02C01A52416A
:10018000830A8B4201D38B02C01A5241430A8B422D
:1001900001D34B02C01A5241030A8B4201D30B0216
:1001A000C01A5241CDD2C3098B4201D3CB01C01A30
:1001B000524183098B4201D38B01C01A524143093A
:1001C0008B4201D34B01C01A524103098B4201D328
:1001D0000B01C01A5241C3088B4201D3CB00C01A95
:1001E000524183088B4201D38B00C01A524143080D
:1001F0008B4201D34B00C01A5241411A00D2014632
:10020000524110467047FFE701B5002000F006F8A4
:1002100002BDC0460029F7D076E770477047C04658
:100220000023C25C0133002AFBD1581E7047000036
:100230001021064A10B5136800200B43136004F028
:10024000F9FE04F09FFD002010BDC04600200240D2
:10025000024A1368013313607047C0464802002009
:10026000014B18687047C0464802002030B583B083
:100270000190FFF7F5FF019C0500631C5A1E934196
:10028000E418FFF7EDFF401BA042FAD303B030BDE6
:10029000F8B5041E00D175E0436C002B68D0636C88
:1002A000DB0605D510220120636C13436364F8BD9F
:1002B000042023689A681040F4D1626C46490A40D1
:1002C0000631FF310A436264032299680A40012A19
:1002D00073D01821DA688A43A1680A43DA601A6980
:1002E0006168920092080A431A61DA683B49266AFB
:1002F0000A40DA60A26977039103E269D2031143ED
:10030000626B013A551EAA411503E2681143226946
:100310003943022A00D10420226B52000A43616A49
:100320002A430243012942D0C220A16AFF30814200
:1003300002D0E06A01430A43D968A56B1143D96032
:10034000802149058D421FD0691E06291CD9DB6812
:1003500023490B40934220D01222636C0120934327
:10036000023A13436364A36C0F3A1343A3649EE7FA
:1003700040228364835404F02FFD636CDB0600D5B8
:1003800090E795E7012092E7072158698843586173
:100390005869294001435961D9E700230322A36426
:1003A000636C00209343023A134363647FE7002E9B
:1003B0000AD1802149020A43B6E719680A4294D15A
:1003C000DA68120491D484E72025606C28436064C5
:1003D000A06C0143A164A7E7FDFEFFFF1902FEFF29
:1003E000E7FF3F830023F0B583B001934033C25C45
:1003F0000400012A44D001222668806BE254B368CD
:100400005B0709D520220120636C134363644023FA
:100410000022E25403B0F0BD0B68334D1F00AC4620
:100420004D689A40103F65452CD0B56A2A43B262A8
:100430008022520590420FD0013806280CD907229D
:10044000886871691140884206D071699143716171
:10045000716902400A437261022F0FD823490A686A
:10046000102B29D0113B5842434121485B420340A5
:10047000802040048446634413430B600020C6E799
:100480000220C7E7B16A9143B162022FF6D8174A3A
:100490001168102B0ED0113B1A00531E9A41144BB9
:1004A00052421340134A94466344104A0B4013606F
:1004B0000020ACE7104BF8E780231B041A430F4BD6
:1004C0000A6018680E49FFF71FFE830018184000E5
:1004D0000190019B002BD1D0019B013B0193019B1B
:1004E000002BF9D1002092E70110000008270140FD
:1004F000000040FFFFFFBFFFFFFF7FFF0C00002059
:1005000040420F00FF22032330B51400C5B22B4038
:10051000DB009C4089010A40E4439A4000280BDB41
:100520000C4B80089C46C023800060449B00C1584F
:100530000C402243C25030BD0F2307492B408C464C
:10054000083B9B089B006344D9690C402243DA6155
:10055000F1E7C04600E100E000ED00E01F23184095
:100560001E3B8340014A13607047C04600E100E033
:100570000A4A431E012093420ED8C021084A094866
:100580005360036A09061B021B0A0B430362002324
:1005900000209360073313607047C046FFFFFF00E1
:1005A00010E000E000ED00E0054A1368042803D0E5
:1005B00004218B431360704718431060FBE7C0466B
:1005C00010E000E07047C04610B5FFF7FBFF10BD1C
:1005D00070B5041E2BD02125022343550068154A0F
:1005E0000368A1681A4063680B43E1680B43216903
:1005F0000B4361690B43A1690B43E1690B4313434F
:1006000003600D4B14219C466044FFF77DFD0B4BAE
:100610000122E3630023800020640020A362E362E0
:1006200023636363A36362551F32A35470BD01202B
:10063000FCE7C0460FC0FFFFF8FFFDBF000002400F
:10064000212370B5C25C022A03D01D3B83630120C5
:1006500070BD0E240268056C1168A1431160012170
:1006600014688C4314600C00AC40C26B5460C154DD
:1006700000222023C254436B002B02D09847002055
:10068000E6E70020E4E7C046F8B504242600036C42
:10069000C56B9E402A6801680F6832420DD03C420B
:1006A0000BD00B689B0602D40B68A3430B60C36A94
:1006B0006E60002B00D09847F8BD022426009E40B3
:1006C000324214D03C4212D00B689B0606D40A2258
:1006D0000B6893430B602123093AC2542023002264
:1006E0006E60C254836A002BE6D09847E4E7082482
:1006F00026009E403242DFD03C42DDD00A680634FC
:10070000A2430A600122110099402123696082639B
:10071000C2540022013BC254036B002BCCD098473B
:10072000CAE7C046F0B54E46DE4657464546E0B5F8
:100730008946096885B0002900D182E0704B00220B
:100740009B46704B8A4698460125544695402C405E
:10075000009472D04B46596810230F009F430197B5
:10076000022F00D174E0036856009C460323B34077
:100770006446DB431C40270003240C40B440A446DD
:100780003C0067463C43019F0460013F012F00D8B5
:100790007BE0C5682B404D46AD68B5402B43C36038
:1007A00080235B05194248D05B4601245D46032641
:1007B0000F279B6916402343AB61AB69B60023400A
:1007C000514CB740A44690240393039B93089B008D
:1007D00063449D68E405BD43A04212D04B4FB8422C
:1007E00000D180E04A4FB84200D178E0494FB8428A
:1007F00000D17CE0484FB84200D17CE00527B740EB
:100800003D439D604346009C1B68E543CC034ED4AA
:1008100044462B40236063688C034FD444462B40EE
:100820006360A368CC0250D444462B40A360E368C5
:10083000890251D42B404146CB6053460132D3400C
:1008400082D105B03CBC90469946A246AB46F0BD6D
:1008500007260F241640B600B440D3089B00C318E7
:100860001F6AA7434C462469B44026003E431E62DB
:1008700003235600B340DB4307681F40BC460327F1
:100880000F40B74064462743076087684C461F40C7
:10089000BC46E7686446B740274301248760476841
:1008A000AF430D09254095403D43456071E7009CED
:1008B00023434446236063688C03AFD5009C2343E5
:1008C00044466360A368CC02AED5009C23434446F3
:1008D000A360E3688902ADD500990B43ABE702271B
:1008E000B7403D438DE70124B440254389E7032405
:1008F000B440254385E70427B7403D4381E7C04620
:1009000000100240000401400000014000040048C3
:1009100000080048000C004800100048002A01D1DF
:10092000816270478161FCE74369594041617047CA
:100930001023F0B5C64604000D00160002279846A5
:1009400000B523686A1C2FD1022110209A69114238
:1009500028D19A691042F9D020219A691142FCD01D
:100960001022DA611032DA619A69920701D5002209
:100970009A62012299690A4202D199690A439A61ED
:100980005A681E490A405A600423636441232022A6
:10099000E254002301202232A354023AA35404BC9F
:1009A0009046F0BD0020FAE79A691742FAD1414615
:1009B0009A69114213D1002D04D0FFF751FC801B1E
:1009C000A842BED92022636C0320134363644123F1
:1009D000E25400232232A354023AA354DFE7202733
:1009E00007E0002DD2D0FFF73BFC801B8542CDD322
:1009F00023689A691742F4D0B2E7C04600E800FEC7
:100A0000F0B5C646040000B50D001600002945D01B
:100A100010232027984604E0FFF722FC801B854224
:100A200043D323689A6917424CD141469A691142CF
:100A3000F2D020276A1C25D120219A691142FCD0CE
:100A40001022DA611032DA619A69920701D5002228
:100A50009A62012299690A4202D199690A439A610C
:100A60005A6819490A405A600423636441232022CA
:100A7000E254002301202232A354023AA35404BCBE
:100A80009046F0BD9A691742DAD1002DEED0FFF7FB
:100A9000E7FB801B8542E9D32368CBE703689A69AB
:100AA00092060FD49A69D206C3D42022636C032025
:100AB000134363644123E25400232232A354023AD5
:100AC000A354DCE70020DAE700E800FE10B5041EBE
:100AD0004CD04123C35CDBB2002B42D04123242203
:100AE0000121E2542368A0681A688A431A60616889
:100AF0001F4A0A401A619A681E490A409A60E268D1
:100B0000012A29D08421090201439960022A02D1D5
:100B1000802212015A605968174A00200A435A601D
:100B2000DA6814490A40DA60616922690A43A169F6
:100B300009020A43DA60216AE2690A4301211A6064
:100B40001A680A431A60002341221F316364A154CA
:100B500001322363A35410BD80210902014399602F
:100B6000D9E74022835404F079F9B7E70120F2E78E
:100B7000FFFFFFF0FF7FFFFF00800002F8B5474650
:100B8000CE469846412380B5C35C04000F009146D1
:100B90000220202B76D12033E25C012A72D0012280
:100BA000E254FFF75DFB80260500360205E0FFF703
:100BB00057FB401B192800D976E02268936933401F
:100BC000F5D141212120605401311138605449464A
:100BD00061624146636461856363638DBF05BF0DD8
:100BE000FF2B00D87CE0FF2344492385536819403C
:100BF000434B3B430B43536080239B043B43802682
:100C00009846638D2A0008992000002B29D0FFF711
:100C10008FFE002852D1636A5A1C62621B782268D8
:100C20009362638D013B9BB26385238D013B9BB235
:100C30002385002BE5D1638D002BE2D0089B013387
:100C400024D193691E42FCD0638DFF2B3BD9FF2337
:100C50002A492385536819402A4B3B430B43536071
:100C6000CFE7FFF7CDFE002828D120212368264DAD
:100C7000D9615A682A405A604123E1540133E05453
:100C8000023BE0540CBC90469946F8BD93691E4265
:100C9000DAD1089B002B07D0FFF7E2FA089B401B34
:100CA000834201D32268CAE741232022E254002371
:100CB0002232A354023AA3540320E3E7636C0120D9
:100CC000042BDFD0F8E7638D0C4851689BB20140DC
:100CD00040462385DBB21B0403430B43536090E77C
:100CE000638D064950689BB2084008492385DBB2F2
:100CF00039431B040B43034353607DE7009800FC1A
:100D00000020FF010000FF0100E800FE00200002BB
:100D1000F0B5C646412700B5C45D98460225202C93
:100D200034D1802306681B02B4691C402ED14023B5
:100D3000C35C012B2AD043462035C5552035313FB1
:100D4000475544644385164B4262C362154B436367
:100D5000438DFF2B1ED88025428DAD0492B2D4B2B4
:100D6000240490238905890D9B0102850B43726839
:100D70000D4911400B432B43234373600022402352
:100D80000025C2543368F43213433360280004BC96
:100D90009046F0BDFF2480252404FF226D04E0E787
:100DA0000000FFFF41160008009800FC036810B522
:100DB00099691A68436B002B00D0984710BDC04654
:100DC0007047C0467047C0467047C0467047C0462F
:100DD0007047C0467047C0467047C0467047C0461F
:100DE0007047C0467047C0460023422270B5835406
:100DF0003F4A0400C2624385436C026819434123A1
:100E00004164C15C282905D0C15C292902D0C15C9C
:100E10002A292ED141202821235C205C0B40283B2D
:100E20005D1EAB41AF255B42AB43473B01402829E8
:100E300001D0F7235B4211680B4013602821412346
:100E4000E1540023802123632A4BC90163631368A3
:100E50000B4021D180201168000201402ED1412396
:100E6000E25C602A3BD040232000E154FFF7B8FF4A
:100E700070BDC15CC15CFE20116881431160E15C02
:100E8000602901D02021E154002380212363636382
:100E90001368C9010B40DDD013681749A06B0B40E4
:100EA0001360164B002243634023E254FFF7C8FB54
:100EB0000028DDD0A06B436B9847D9E71168104834
:100EC00001401160E06B0D4A42634022A354FFF7DA
:100ED000B7FB0028CCD0E06B436B9847C8E7403A9B
:100EE000E254013BE1542000FFF77CFFC0E7C0461D
:100EF0000000FFFF85100008FFBFFFFF1914000866
:100F0000FF7FFFFF2022F8B504000368DA61183A7A
:100F1000DA613932A05CFE20A25C1A6882431A6052
:100F200080225868120202435A605A6853480240AD
:100F30005A609A69920701D500229A620122986943
:100F4000024202D1986902439A611A6852042DD470
:100F50001A6812042AD4628D002A03D00420626C1D
:100F600002436264042211400E1E07D0596A636A6C
:100F7000581C60621970238D002B31D10025422747
:100F80002563E555636C6563002B3AD1E16A3C4A01
:100F9000914215D14122A15C222967D02021A15480
:100FA00040222000A354FFF70FFFF8BD4122A25CAE
:100FB000212A0FD0E26B1268526892B26285CAE7AA
:100FC000E26220214122A154013AA3542000FFF7FC
:100FD00001FFEAE7A26B1268526892B26285BAE733
:100FE00000254227013B2385638D013B9BB263852E
:100FF000636C1A4362642563E555636C6563002B7B
:10100000C4D0616C2000FFF7EFFE4123E25C282A88
:10101000CBD11B4AE26220222563E254E5552368C6
:101020006563002E12D05A6A636A591C61621A7095
:10103000238D002B09D00422013B2385638D013BC6
:101040009BB26385636C1343636423684122A15C94
:10105000FE21A25C1A6820008A431A601022DA611D
:1010600040230022E254FFF7B5FE9EE70239A15467
:10107000013AA3542000FFF7A9FE96E700E800FE1E
:101080000000FFFFF0B54646D6464F464023C0B5A8
:101090001600C25C04000D00012A00D1EBE0012221
:1010A000C254303B0B422AD0334228D0428D0168D3
:1010B000002A00D09AE08023C26A9B049A4200D1A1
:1010C000A6E0C26A9A4200D1A2E0E26AC64B9A4206
:1010D00004D04123E35C292B00D10CE11023CB6128
:1010E00020232B4202D0334200D0C6E0402300220E
:1010F0000020E2541CBC90469946A246F0BD042351
:101100002B4237D108232B4201D0334274D1022322
:101110002B42E5D03342E3D0638D002B00D0B1E009
:101120008023E26A5B049A4202D0E36A002BD7D1A3
:1011300042230021E154013BE25C292A00D12CE149
:10114000E25C2A2ACCD12220023AE2542063E35CFA
:1011500020681340283B5A1E9341AF225B429343C1
:101160000268453B1340036040232000E154FFF731
:101170002DFEB5E73342C5D0638D002B0CD023681C
:101180005A6A636A591C61621A70238D013B238578
:10119000638D013B9BB26385638D9BB2002B9FD116
:1011A000E16A914A91429BD04222A354013AA15C48
:1011B000292900D1DAE0A15C2A2900D090E7222079
:1011C0000239A1542063A25C20680A40283A511ECB
:1011D0008A41AF2152428A430168453A0A4002607F
:1011E00040222000A354FFF7F1FD79E70422CB61F0
:1011F000436C1343436473E74122A15C193A2068AE
:101200000A40282A4CD0C36100224023E25467E7F9
:101210004123E25C282A00D057E7734A2020E2628B
:1012200000222263E0540133E2543E3B62632B42CE
:1012300011D0626A496A501C60621170228D002AC6
:1012400008D0013A2285628D013A92B26285626CC1
:101250001343636421684123E25CFE22E35C0B6874
:10126000200093430B6010230022CB613033E25403
:10127000FFF7B0FD34E702203CE729002000FFF72C
:1012800041FE33E7636A5A1C62621B7822689362EC
:10129000638D013B9BB26385238D013B23851FE753
:1012A000FE278169BC46C903CA0F92468269120CA7
:1012B0003A408768C1688846E16802294AD1BF057B
:1012C000BF0DF9094A4006210A407DD1A16C8C4628
:1012D00001218846C4446146A164A16C022900D062
:1012E000FEE6A264C3613833E25451463A0020005E
:1012F000FFF76EFDF4E6193BCB618B699B0701D5C7
:1013000000238B6201238A69134202D18A69134345
:101310008B6142230020E054013BE25C292A65D026
:10132000E25C2A2A00D0DBE62227023AE254276355
:10133000E35C1340283B5A1E9341AF225B42934328
:101340000A68453B13400B604023E0542000FFF740
:101350003DFDC5E6B82703685146BB430360402303
:101360000020E0542000FFF733FDB9E621200139C9
:10137000A1542063A25C20680A40283A511E8A4189
:10138000AF2152428A430168433A0A400260402238
:101390002000A354FFF718FDA2E62120013AE254F1
:1013A0002063E35C20681340283B5A1E9341AF2220
:1013B0005B4293430268433B134003604023200099
:1013C000E154FFF701FD8BE6B822036851469343D1
:1013D000036000224023E2546246434620001A4044
:1013E000FFF7F6FC7CE6C0460000FFFF2127013A2C
:1013F000E2542763E35C1340283B5A1E9341AF221B
:101400005B4293430A68433B13400B604023E05424
:101410002000FFF7D9FC63E68023406A1B020268C4
:1014200010B551680B4353600023826B5363C26B4A
:1014300053634133C25C602A02D0FFF7D1FC10BD78
:10144000403AC254FFF7CEFCF9E7C04620230268B9
:1014500070B5D361536804007348034053600023A0
:1014600023636363714BE36210230B4204D00421B6
:10147000D361636C0B43636493699B0701D50023BD
:101480009362012391690B4202D191690B439361ED
:1014900041202821235C205C0B40283B5D1EAB4192
:1014A000AF255B42AB43473B0140282901D0F723DE
:1014B0005B4211680B401360636C002B0CD141211F
:1014C000605C602808D0625C212A00D16CE0625C1C
:1014D000222A00D176E070BD00214220636C2154A5
:1014E0005248E0626185616C0B4363644123E15CB7
:1014F000282905D0E15C292902D0E15C2A292ED1D6
:1015000041202821235C205C0B40283B5D1EAB4121
:10151000AF255B42AB43473B0140282901D0F7236D
:101520005B4211680B40136028214123E1540023E2
:10153000802123633E4BC901636313680B4021D1B3
:1015400080201168000201404AD14123E25C602AF8
:1015500058D040232000E154FFF742FCBBE7FE20B7
:10156000E15CE15C116881431160E15C602901D0BC
:101570002021E15400238021236363631368C901A0
:101580000B40DDD013682B49A06B0B4013602A4B36
:10159000002243634023E254FFF752F800289AD018
:1015A000A06B436B984796E7013A62544221625C14
:1015B0006354D2B2402A2DD040222000A354FFF71A
:1015C000FFFB88E7023A62544221625C6354D2B264
:1015D000402A24D040222000A354FFF7F3FB7AE7EF
:1015E0001168164801401160E06B134A42634022C3
:1015F000A354FFF725F8002800D16CE7E06B436B9C
:10160000984768E7403AE254013BE1542000FFF775
:10161000E9FB60E7A3542000FFF7DEFB5BE7A35480
:101620002000FFF7DBFB56E700E800FE0000FFFFAD
:1016300085100008FFBFFFFF19140008FF7FFFFFA0
:10164000F8B5CE464746402380B51600C25C04007C
:101650000D00012A00D1A1E00122C254303B0B420F
:101660001ED033421CD004210268D361436C0B436B
:10167000436493699B0701D5002393620123916919
:101680000B425FD020232B4202D0334200D087E0B0
:10169000402300220020E2540CBC90469946F8BD3D
:1016A00004232B420BD102232B4218D0334216D0F5
:1016B000636A5A1C62621B782268936207E03342B5
:1016C000F1D023685A6A636A591C61621A70238DCB
:1016D000013B2385638D013B9BB26385D2E72B06DB
:1016E00017D440232B42CDD03342CBD0628D002A79
:1016F0004FD180222168920448680240C2D1E76A33
:101700005E48874268D180234A68DB0113434B60FF
:10171000B8E77306B6D5238D2168002B16D1638DEB
:10172000002B13D04B689B059A0D638DFF2B3CD982
:10173000FF23534823854B681840524B0343134300
:101740004B609FE791690B4393619BE780234A6855
:101750009B0413401DD14222A354013AA05C2128CE
:1017600057D02020A0540E3820636363A05C282249
:101770000240283A501E8241AF20524282430868FC
:10178000453A02400A6040222000A354FFF71AFBAA
:1017900078E740212000FFF727FB73E702207BE773
:1017A00029002000FFF752FE72E7638D3348E76A95
:1017B0009BB22385874244D0E06A814648688046D0
:1017C00047462F48074038004F46DBB238431B04DA
:1017D000034313434B6055E7422022540138275CF2
:1017E000212F34D0202727540E3F27636263275CC4
:1017F000282038402838471EB841AF274042B84318
:101800000F68453838400860E2542000FFF7DAFAE4
:1018100038E70138A0540F3820636363A05C193A9D
:101820000240283A501E8241AF205242824308684B
:10183000433A02400A6040222000A354FFF7C0FA56
:1018400020E748680E4F074080208004BDE7013F35
:1018500027540F3F27636263275C193838402838C4
:10186000471EB841AF274042B8430F68433838405D
:101870000860E2542000FFF7A3FA03E70000FFFF2F
:10188000009800FC0000FF01036870B50400802090
:101890009A6940001E6802421CD080258021ED001C
:1018A000890015401140320655D50126626C32433D
:1018B0006264D861002D06D00820626C0243626425
:1018C0008022D200DA6100294BD10B21626C1142D7
:1018D0000BD170BD80218900114052053DD53206E3
:1018E000EAD40B21626C1142F3D000214220626CD9
:1018F00021544648E0626185616C0A43626441227A
:10190000A15C282935D0A15C292932D0A15C2A29E3
:101910002FD0FE20A15CA15C196881431960A15CF5
:10192000602901D02021A15400228021226362631A
:101930001A68C9010A403CD18020196800020140A0
:101940004AD14123E25C602A58D040232000E15470
:10195000FFF746FABDE7002DB7D10029B5D0320612
:10196000B3D50221626C0A43626480229200DA617C
:10197000ABE741202821225C205C0A40283A551E12
:10198000AA41AF255242AA43473A0140282901D033
:10199000F722524219680A401A6028214122A154B4
:1019A0000022802122631A4AC90162631A680A4030
:1019B000C2D01A681749A06B0A401A60164B002261
:1019C00043634023E254FEF73BFE002800D180E74A
:1019D000A06B436B98477CE7196810480140196079
:1019E000E06B0D4B43634023E254FEF729FE0028D1
:1019F00000D16EE7E06B436B98476AE7403AE254E8
:101A0000013BE1542000FFF7EDF962E70000FFFF22
:101A100085100008FFBFFFFF19140008FF7FFFFFBC
:101A2000F0B5CE464746412480B5035D0222DBB2C5
:101A3000202B1CD14026855D012D18D00127223294
:101A400002550268B9461568BD4315601568A84679
:101A50004746094D2F401760156829434D461160D0
:101A6000116829431160035500230022835510009B
:101A70000CBC90469946F0BDFFEFFFFFF0B5CE4697
:101A80004746412480B5035D0222DBB2202B1BD1E7
:101A90004026855D012D17D00127223202550268AC
:101AA000B94615680902BD4315601568A846474642
:101AB000084D2F404D46394311601168294311608C
:101AC000035500230022835510000CBC9046994614
:101AD000F0BDC046FFF0FFFFF0B5CE46474680B5EB
:101AE000036883B00400DA072FD50C21C54842688B
:101AF0000A40042A00D104E142681140082900D1BB
:101B0000F6E06368012B00D135E1002B00D169E1DB
:101B1000052B00D128E2BB4BBB491A680A401A606A
:101B20001A68BA490A401A60FEF79AFB8025070036
:101B3000B44EAD0205E0FEF793FBC01B642800D94C
:101B40004EE133682B42F6D023689A0729D50C2240
:101B5000AC494868024200D1E7E048680240082AE0
:101B600000D1D9E0E368002B00D17BE10122A54F31
:101B700002253B6813433B60FEF772FB060005E05D
:101B8000FEF76EFB801B022800D929E13B681D424D
:101B9000F6D0F8213A6823698A43DB0013433B609F
:101BA00023681A072BD45A0743D58022954B520538
:101BB000D9690025114207D1D96901351143D9618D
:101BC000DB691A400192019B8026914F76003B68A9
:101BD000334200D1D6E0A368012B00D1E3E0002B13
:101BE00000D125E1052B00D195E10121854B1A6A31
:101BF0008A431A621A6A03318A431A62D7E0E36998
:101C0000804D002B00D1A3E001226B6A0226134312
:101C10006B62FEF725FB070005E0FEF721FBC01B0A
:101C2000022800D9DCE06B6A1E42F6D023685A070E
:101C3000BBD4DA0612D56269012A00D175E10532FA
:101C400000D023E10420F8256E494A6B82434A63A1
:101C5000486BA269A843D20002434A639B0622D57F
:101C60000C2268494B6813400C2B00D12DE14B68C6
:101C70001A40082A00D121E1236A624D002B00D1CD
:101C80002EE180266B6B760233436B63FEF7E8FA36
:101C9000070005E0FEF7E4FAC01B022800D99FE028
:101CA0006B6B3342F6D0636A002B1BD00C22554D70
:101CB00069680A40082A2DD0022B00D160E12B6808
:101CC000544A802413402B60FEF7CAFAA40406008D
:101CD00005E0FEF7C5FA801B022800D980E02B68DA
:101CE0002342F6D1002003B00CBC90469946F0BDCB
:101CF000C021426849020A40802149028A4200D03C
:101D0000FFE6404A1268920300D41EE76268002A88
:101D100000D01AE70120E6E74A68C02149020A40DC
:101D2000802109028A4200D01CE7364A12689207D5
:101D300002D5E268012AEDD1F8253248226901680E
:101D4000D200A9430A4302601A0700D42BE756E7E2
:101D500001226B6A022693436B62FEF781FA070049
:101D600004E0FEF77DFAC01B022839D86B6A1E42D8
:101D7000F7D123685BE78023224A5B0211680B439B
:101D80001360D1E63B6833433B60FEF769FA804657
:101D900005E0FEF765FA4346C01A642820D83B6880
:101DA0003342F6D017E717490A6A13430B62FEF76E
:101DB00057FA194B8146134F0226984605E0FEF765
:101DC0004FFA4B46C01A40450AD83B6A1E42F6D02D
:101DD000012D00D198E02368DA0600D43EE72AE717
:101DE000032080E7074D084A2B68802613402B60AC
:101DF0002B68064AB60213402B60FEF731FA070043
:101E000011E0C04600100240FFFFFEFFFFFFFBFF96
:101E100000700040FFFFFFFE88130000FEF720FA6D
:101E2000C01B6428DCD82B683342F7D123688CE6CA
:101E300001226F4E0227336A93433362336A0332BF
:101E400093433362FEF70CFA6A4B8146984605E0ED
:101E5000FEF706FA4B46C01A4045C1D8336A1F4206
:101E6000F6D1B5E70122624D02262B6893432B6021
:101E7000FEF7F6F9070004E0FEF7F2F9C01B0228AE
:101E8000AED82B681E42F7D123688AE60422584D4B
:101E900002266B6B13436B636B6B033A93436B6369
:101EA000FEF7DEF9070004E0FEF7DAF9C01B0228AE
:101EB00096D86B6B1E42F7D12368CFE6C0224B68E1
:101EC00052021340934200D0D6E6494B5B6BDB03D2
:101ED00000D4E8E6236A012B00D1E4E6012002E702
:101EE0006B6B454A802613406B63FEF7B9F97602A7
:101EF000070005E0FEF7B4F9C01B022800D96FE720
:101F00006B6B3342F6D1CEE6394A3C49D3690B407C
:101F1000D361236860E70421354B1A6A0A431A62C9
:101F20001A6A03390A431A6241E70421304D022636
:101F30006B6B0B436B636B6B1A436A63FEF790F931
:101F4000070005E0FEF78CF9C01B022800D947E71F
:101F50006B6B1E42F6D0F8216A6BA3698A43DB00E3
:101F600013436B63236879E68022214BD202196800
:101F70000A431A608022196852020A431A60D3E5A4
:101F80002B681F4A802613402B60FEF769F9B604C0
:101F9000070005E0FEF764F9C01B022800D91FE71F
:101FA0002B683342F6D10F22EB6A9343226B134323
:101FB000EB62A16AE36A6A680B43124980240A4013
:101FC00013436B6080232A685B0413432B60FEF786
:101FD00047F9074D0600A40405E0FEF741F9801B10
:101FE000022800D9FCE62B682342F6D07AE6C046E8
:101FF0000010024088130000FFFFFEFFFFFFFFEF0D
:10200000FFFFFFFEFF7FC2FFF0B5CE46474601232C
:1020100080B50C00744989B00A6805001A40A242D4
:102020000DD20A689A4322430A600A681340A34209
:1020300005D0012009B00CBC90469946F0BD2B6834
:102040009A0706D5F02069494A688243A868024386
:102050004A60DB072BD56B68644A012B6ED0022BDC
:1020600068D0032B00D194E012689207E1D50321D8
:102070005E4E72688A4313437360FEF7F1F86B6833
:102080000700012B75D0022B00D187E0032B00D174
:1020900094E00C239846564B994604E0FEF7E0F88E
:1020A000C01B484563D8424673681A42F6D10121E5
:1020B0004D4A13680B40A34205D913688B43136044
:1020C00013681942B5D12B685B072BD46946494B7D
:1020D0000A00180070C870C200681033106004AAAB
:1020E000100070CB70C01B68404D03600C206B6803
:1020F0001840082826D00C38434258413E4B4042F5
:1021000018403E4B9C466044384B3D4A5B681B067A
:102110001B0FD35CD8403B4B1860002002F08AFFB5
:10212000002087E7314A384953680B40E9680B4380
:102130005360CBE71268920199D47AE71268920350
:1021400095D476E70F209C0C04400C5DE96A0840AA
:10215000115CC0228020520213404002834201D011
:1021600093423BD02548FDF7CFFF6043CCE70320E7
:1021700060E70B3398461E4B994604E0FEF770F873
:10218000C01B4845F3D8424673681340042BF5D171
:102190008DE7526BD20300D569E74AE70A339846C8
:1021A000134B994604E0FEF75BF8C01B4845DED8A8
:1021B000424673681340082BF5D178E709339846F7
:1021C0000B4B994604E0FEF74BF8C01B4845CED8B0
:1021D0004246736813400C2BF5D168E70B48FDF7B6
:1021E00093FF604390E7C046002002400010024089
:1021F000881300007C5C0008005A620200127A001A
:10220000206000080C000020FFF8FFFF006CDC02DB
:1022100070B588B069461C4B0A00180070C870C2BF
:1022200000681033106004AA100070CB70C01B68E7
:10223000164D03600C206B68184008280AD00C3833
:1022400043425841124B40421840124B9C46604456
:1022500008B070BD0F209C0C04400C5DE96A08407A
:10226000115CC0228020520213404002834201D000
:10227000934204D00748FDF747FF6043E8E706486C
:10228000FDF742FF6043E3E77C5C0008001002407A
:10229000005A620200127A00006CDC02014B1868DE
:1022A0007047C0460C000020044B054A5B685B0584
:1022B0005B0FD35C034A1068D8407047001002409F
:1022C000306000080C0000200723032203600A4B43
:1022D00010B55C6822404260F0225C682240826057
:1022E000E0225B68D2001340C360044B1A680123EC
:1022F00013400B6010BDC046001002400020024099
:10230000F0B5CE46474680B5036883B00400DA03D3
:1023100036D58022494B5205D9690027114207D191
:10232000D96901371143D961DB691A400192019BD8
:102330008026434D76002B68334254D0C0213F4D58
:1023400089002A6A60680A4011D0014091420ED08B
:102350008022296A2E6A520232432A622A6A394B43
:10236000394E0B4032402A622B62CB0754D4334A99
:102370003449136A0B4003431362012F44D023688E
:10238000DA0706D503202D490A6B8243A068024371
:102390000A639A0706D529492C480A6B0240E0686F
:1023A00002430A639A0606D5102024490A6B824329
:1023B000206902430A639A0306D580201F490A6BED
:1023C0008243A06902430A6300205B0506D54021D1
:1023D0001A4A136B8B4361690B43136303B00CBC44
:1023E00090469946F0BD2B6833432B60FDF738FFCC
:1023F000804605E0FDF734FF4346C01A642809D83B
:102400002B683342F6D099E7D36911490B40D36169
:102410002368B5E70320E1E7FDF722FF0D4B804677
:102420000226994605E0FDF71BFF4346C01A4845C2
:10243000F0D82B6A1E42F6D0606898E70010024080
:1024400000700040FFFCFFFFFFFFFEFFFFFFFCFFEF
:10245000FFFFFFEF88130000F8B5041E52D00023E1
:1024600083625D33C35CDBB2002B46D05D23022266
:102470004021E2542268E56813688B431360E0232F
:10248000216BDB009D422ED9F0231B019D423BD1E5
:10249000A76A00293DD00021A6686368A06933437C
:1024A0002669334366693343E6693343266A334317
:1024B0008026B600064033433B431360636A000C3A
:1024C0002B43656B2B430425284003430B43536088
:1024D000D369174900200B40D361002301222366F2
:1024E0005D33E2540FE09D4217D00023A362002920
:1024F00017D0802100274901CEE75C22835402F0E7
:10250000DBFCB3E70120F8BD00230027A36200290C
:10251000C1D1022300212363BEE7A76A002903D1AA
:10252000390001230F00236380214901B4E7C0462D
:10253000FFF7FFFF70B5041E4AD03D23C35CDBB23A
:10254000002B24D03D2302222C4EE2542268A569A0
:102550001368E0686168B2423CD08026F605B2425A
:102560001AD0274EB24217D0264EB24241D0264E44
:10257000B24233D0254EB24230D0254EB2422DD099
:102580008026B3432B431360D06291621AE03C2251
:10259000835402F0B9FCD5E77026B343A6683343F1
:1025A0001C4E3340266933438026B3432B431360CC
:1025B000164BD06291629A4202D0154B9A4201D1D9
:1025C00063691363012353613D220020A35470BD4E
:1025D0000120FCE77026B343A66833430D4E334019
:1025E000266933438026B3432B431360D062916244
:1025F000E6E7084E334026693343C1E7002C01402B
:102600000004004000200040004001400044014020
:1026100000480140FFFCFFFF03680120D968014327
:10262000D9601A6802431A60002070473C2370B5D5
:10263000C25C012A67D001240222C4540133C2546F
:1026400003685A4D9A682A409A600A68402A00D165
:1026500095E01DD9702A00D181E02ED98024640133
:10266000A24200D176E08024A401A2421DD19A6842
:102670004F4C4D6814408A68C9682A4309020A43CE
:1026800022439A6080229968D2010A439A600CE042
:10269000102A41D02ED9202A37D0302A05D17021D6
:1026A0009A688A4339390A439A603D230122C25409
:1026B0000022013BC254002070BD502A33D0602A52
:1026C000F3D110251C6A4A68AC43C9681C629D6935
:1026D000384E090335402943A0251C6A99617021B1
:1026E000AC43120122431A629A688A4309390A43A9
:1026F0009A60DAE7002AD8D170219A688A4369394A
:102700000A439A60D1E70220D6E770219A688A438B
:1027100049390A439A60C8E770219A688A4359394F
:102720000A439A60C1E74D68CA68196A1E6A1201B5
:10273000A6431E62F0269C69B44322430A24A143A7
:1027400029439A61196270219A688A4319390A43A8
:102750009A60AAE707219A688A439A60A5E79A686F
:10276000134C4D6814408A68C9682A4309020A4319
:10277000772122439A609A680A439A6095E74D68E8
:10278000CA68196A1E6A1201A6431E62F0269C6975
:10279000B44322430A24A14329439A611962702158
:1027A0009A688A4329390A439A607EE78800FFFFC6
:1027B000FF00FFFFFF0FFFFF7047C0467047C04696
:1027C0007047C0467047C0460222036810B51969B9
:1027D00004000A4202D0D9680A4265D1042219696C
:1027E0000A4202D0D9680A424BD1082219690A422A
:1027F00002D0D9680A4233D1102219690A4202D0A4
:10280000D9680A421CD1012219690A4202D0D9684A
:102810000A425CD1802219690A4202D0D9680A4270
:102820005CD1402219690A4202D0D9680A425DD1BE
:10283000202219690A4202D0D9680A4241D110BD4A
:10284000213A1A6119322277DA69C0239B002000ED
:102850001A425ED0FFF7B2FF002323772368D2E746
:10286000113A1A61DB690D32227720009B074DD1A6
:10287000FFF7A2FF2000FFF7A3FF002323772368C1
:10288000BAE7093A1A61073222779A69C0239B0096
:1028900020001A4237D1FFF78FFF2000FFF790FF8B
:1028A000002323772368A0E7053A1A619B69043265
:1028B00002779B0721D0FFF781FF0023237723684E
:1028C0008CE7413A1A61200000F04CF8B7E7033A70
:1028D0001A61200002F0B2F923689BE7023AFF3A3E
:1028E0001A61200000F040F823689AE7813A1A61E3
:1028F0002000FFF767FF23689AE7FFF75DFF2000DE
:10290000FFF75EFFD9E7FFF759FFC9E7FFF756FF6B
:10291000B3E7FFF751FF2000FFF752FF9CE7C046E7
:1029200070B53C24035D012B19D03D250223702690
:10293000435503685A68B2435A605A680E6849683A
:10294000324380265A609A68B2439A609A680A4372
:102950009A600123435500230355002070BD0220D7
:10296000FCE7C0467047C0467047C0460300692078
:1029700030B51C5C6738202C1ED100291DD00138D1
:10298000002A19D080249D686401A54217D06820D0
:102990001C5C012C19D0D96450215A5202315A5270
:1029A000212400221731DA665C541A5400201A6878
:1029B000173113680B43136030BD0120FCE71C691D
:1029C000002CE4D10142E2D0F6E70220F4E7C04651
:1029D00003006A2070B51C5C6838202C2DD10029BA
:1029E0002CD00138002A28D080259C686D01AC428B
:1029F00026D068255E5D012E4DD058555965582169
:102A00005A5202315A52002C2CD11A69002A3ED156
:102A10005C22FF21995200226A212220DA66585452
:102A200002395A541B6867399A6800200A439A6031
:102A30009022196852000A431A6070BD0120FCE719
:102A40001C69002C19D10142F7D16820185C0128BB
:102A500021D0596558215A5202315A525C220F49ED
:102A60009952D8E7802252059442D4D11A69002A9B
:102A70000DD05C223F219952CDE76820185C0128D7
:102A800009D0596558215A5202315A52C0E75C2286
:102A90007F219952BFE70220CFE7C046FF01000027
:102AA0007047C0467047C04600235A2210B5406A9E
:102AB0008352083A8352FFF7F5FF10BD8021036867
:102AC00070B5DD69040089008B481E68FDF72CFF96
:102AD0002B0718D1202223682A4267D199688022C7
:102AE0005203154202D0490200D5B1E080222A42A9
:102AF00002D0324200D08CE040222A4202D0324240
:102B000000D07CE070BD0122236899680A4062D041
:102B10000121294205D0F00503D51962E06E014379
:102B2000E166022129425FD0002A06D00420196202
:102B3000E16E0143E16628425AD1290705D5B10665
:102B400000D57FE0002A00D07CE0E26E002AD9D0D8
:102B500020222A4202D0324200D095E0E26E1207D3
:102B600004D440259A68154000D1A9E01A68634949
:102B70000A401A609A682331FF318A439A606A22B8
:102B80001F31A1549A68203111426BD09A68606E4F
:102B90008A439A60002865D0594B4363FDF750FD86
:102BA0000028AFD0606E436B9847ABE7324200D14C
:102BB00094E74A32A25C222A58D1988C8023A168DB
:102BC0003A32A25A80B25B01994254D01040C0B24E
:102BD00001F00EFE96E790204000064200D17EE70D
:102BE000012129429DD096E76907A6D5002AA4D0E5
:102BF000042102201962E16E0143E1669DE7196834
:102C00002000914319606923203AE254FFF748FFFE
:102C100078E76921615C212900D073E73131615A7D
:102C2000002952D08021A068E26C4901884259D025
:102C3000511CE16412781A855222A35A013B9BB2BF
:102C4000A3525FE708211962E26E0A43E2667CE75D
:102C50001A6220236922A3540132A354200000F0F9
:102C60000DFA4FE72000FFF71DFF4BE708219A6997
:102C70000A439A6146E72369002BA7D1636D104090
:102C8000188002336365A2E74A32A25C222A24D16B
:102C9000988C8023A1683A32A25A80B25B01994293
:102CA00005D01040C0B201F0A3FD236856E72369A8
:102CB000002BF6D1636D1040188002336365F1E795
:102CC0002000FFF7EFFEE5661CE7196891431960E5
:102CD00040211A680A431A6014E708219A690A43D6
:102CE0009A613BE721690029A2D111880232C90506
:102CF000C90D1985E2649FE700040048DFFEFFFF6D
:102D0000A92A0008436A30B5DA0706D50168284CBD
:102D10004A682240846A22434A609A0706D50168BD
:102D2000244C4A682240C46A22434A605A0706D5A6
:102D30000168214C4A682240046B22434A601A070A
:102D400006D501681D4C4A682240446B22434A6004
:102D5000DA0606D501681A4C8A682240846B224341
:102D60008A609A0606D50168164C8A682240C46BB0
:102D700022438A605A060AD50168134D4A68046CDA
:102D80002A4022434A6080225203944209D01B0603
:102D900006D502680D4953680B40816C0B435360A4
:102DA00030BD4A680A4C2240446C22434A60EEE738
:102DB000FFFFFDFFFFFFFEFFFFFFFBFFFF7FFFFFAA
:102DC000FFEFFFFFFFDFFFFFFFFFEFFFFFFFF7FF5B
:102DD000FFFF9FFFF0B5C646040000B5002837D0BE
:102DE0006923C35CDBB2002B36D06923242225681B
:102DF000E2542B68233A93432B602069A3682A6826
:102E000003436069E16903438D480B430240134368
:102E10002B606B688B4A206A1340E26813436B6037
:102E2000A369AA680343884802401343AB60874BF9
:102E30009D424FD0864B9D4263D0864B9D4212D01F
:102E4000854B9D420FD080231B02994200D1E5E0C3
:102E5000012004BC9046F0BD6822835402F074F84F
:102E6000C3E7002BEFD180231B02994200D1C4E0BD
:102E7000FFF71AFA636825685B0818186168FDF7A0
:102E800043F90004000CE860636A002B00D082E084
:102E90006B68724A13402A226B60AB689343AB6045
:102EA0002B68293A13432B600023E366FDF7D8F91A
:102EB0002368664A0600934248D0654A934245D04B
:102EC00020236922A3540132A35400224833E25440
:102ED0000020BEE7624B1A6B03231340614AD35CA8
:102EE0008022120291426FD0022B59D000D8A2E06A
:102EF000042B24D0082BABD16368580880231B0215
:102F000051E0C0208022564B80021B6B52020340CE
:102F1000934210D0A5D980229202934200D181E041
:102F2000834200D08FE780231B02994238D1636827
:102F300058084D4B53E080231B02994278D0FFF78D
:102F400067F9636825685B08181897E71A6812071D
:102F50002CD41A685207B3D5444A80279046FF0301
:102F6000DD693D40ACD1FDF77BF92368801B40450E
:102F7000F6D91A683E4903200A401A609A68A331BC
:102F8000FF318A439A6020236922A3540132A3545B
:102F90004833E5545DE72000FFF7B4FE256877E786
:102FA00063685808334B9C46604467E72F4A802784
:102FB0009046BF03DD693D40CBD1FDF751F9236851
:102FC000801B4045F6D9D4E7022BB0D013D9042B8F
:102FD0002ED0082B22D16368580880235B029C46C0
:102FE00061686044FDF790F8234B03400007400FF1
:102FF0001843E86048E7002B10D1FFF755F96368E4
:1030000040005B08C0186168FDF77EF81A4B256820
:1030100003400007400F1843E86035E70023012014
:10302000EB6016E780231B02994200D064E7D2E7E9
:10303000FFF7EEF8E3E7002B00D009E718E7C046FA
:10304000F369FFEFFFCFFFFFFFF4FFFF0038014000
:103050000044004000480040004C0040FFB7FFFF24
:10306000001002409C5C00080024F400FFFFFF01F8
:103070005FFEFFFF00127A00F0FF00007047C046BD
:10308000014B18687047C046A402002070B5234D5C
:103090002B689C6963062AD4230624D4E3061ED435
:1030A000A30602D501221E4B1A608026F600344288
:1030B0000CD18026B600344207D01A4800F02CFD0F
:1030C00041232022EA542B68DE6170BD164800F0CF
:1030D00023FD41232022EA542B68DE61E9E71348EF
:1030E00000F01AFDDCE7124800F016FDD6E71148A3
:1030F00000F012FD0223104E104A7370002313607B
:103100000F4A7021137053709370280003330D4AD7
:10311000FDF7FEFD03237370BEE7C046C40A00201E
:10312000FC01002020610008186100080C61000803
:1031300000610008F860000800000020040300207F
:10314000E4020020B0020020F8B5224E0A222249F3
:103150003000FFF70BFC214CA023782220005B00FD
:10316000E2501F49733A1E3002F08CF8200000250F
:103170001C4907220E3002F085F822001A4BA57375
:1031800083CB83C21B88194F1380194B380014223C
:1031900018491D609D80FFF71BFC90233A685B0077
:1031A000116830000B43144E136014493222FFF7AC
:1031B0000FFC300001220821FDF7B0FB104B30005E
:1031C00001220821DD61A567FDF7A8FB0D4B1D60FD
:1031D000F8BDC046100B00203861000840080020F0
:1031E000446100085A61000864610008C00B0020B7
:1031F00000020020BC02002000040048E40400207B
:103200000803002018060020F0B5CE46474680B5DA
:10321000D54C8FB0A36F012B00D1A3E00122082170
:10322000D248FDF77BFBD24D2B781F2B52D8D14AC9
:103230009B00D3589F46AA230122CF4F5B00E25048
:10324000CE490B323800FFF791FBE36FCC4E0522DD
:10325000002B00D0EFE2CB49300002F013F8210040
:10326000701D243102F04FF88423E258012A00D166
:10327000CCE3C54B98468823E258012A01D100F0DF
:1032800016FC8C23E258012A01D100F0E8FB8C23C4
:103290005B00E258012A00D11AE38A235B00E2585E
:1032A000012A00D1EEE28E235B00E258012A00D110
:1032B0002EE33000FCF7B4FF07000322B3493018B7
:1032C000023701F0DFFFBAB231004046FFF74EFB94
:1032D00000232B70AE4A136801331360132B03DDF8
:1032E000AC4B5B68012B4FD09E21A026B022490039
:1032F00063587600A6590133520028786350A258CB
:10330000B3421FDA002803D1B02301325B00E25040
:103310003B2A2DDCA04AA1491368013313608B427C
:103320000BDD2B78002B08D113609D4A9D4B116853
:10333000196012791A710E232B700FB00CBC9046D5
:103340009946F0BD0028E3D160509249CB69002B2B
:1033500017D0012B00D157E28B69012BD4D1132355
:103360002B70D5E7002208218048FDF7D7FA5AE7ED
:10337000B02300225B00E250FFF7E6FE01232B7032
:10338000C8E711332B70C3E70023874913607A48DD
:103390000522FFF7EBFA9E220D2352002B70A35853
:1033A0000133A350B0235B00E258B1E708227F4904
:1033B0007148FFF7DBFA8021012209027C48FDF702
:1033C000ADFA00227B4B9A8003232B7082E7012306
:1033D0006D4E704F082278493000BB60FFF7C6FA87
:1033E000764B18009846FCF71BFF414682B230002E
:1033F000FFF7BCFA022272493000FFF7B7FA002348
:103400003B622B7066E70C226E495F48FFF7AEFA0D
:1034100000238022A3502B705CE7002301222B7035
:103420008033E2506A3B01AE6B4421321A80320095
:10343000654B83CB83C215201968684411601B79E2
:103440002100137101F048FF02226049871B01F03F
:1034500019FF2100B81C1E31301801F03DFF032276
:103460005749871B01F00EFFA36F002B00D1FCE131
:1034700015232B702EE70E2255494348FFF776FAA5
:103480000023444AA367D3618022A3502B7021E715
:1034900001AF5049380001F01FFFC61B03223B4912
:1034A000023601F0EFFEB2B239003748FFF75EFA9C
:1034B0000023384A2B7053620CE7072246493248F2
:1034C000FFF754FA06E70A2244492F48FFF74EFA5D
:1034D000AA2200235200A3502B70FBE60E22404983
:1034E0002948FFF743FA01222A4B9A610023A36778
:1034F00012332B70EEE60E223A492348FFF736FAD4
:1035000000232B70E6E60C2237491F48FFF72EFAFE
:1035100009232B70DEE6082234491B48FFF726FA00
:1035200000232B703533FF33E358012B00D0D1E655
:103530000A332B70CEE60B222D490F48FFF716FAFF
:1035400004222C491048FFF711FAC3E605222A4944
:103550000D48FFF70BFABDE60C2228490A48FFF791
:1035600005FA00232B70B5E640080020000400484F
:1035700004000020A05C0008100B0020606300081D
:103580005005002070630008C00B0020E8620008AE
:103590001806002008030020D80900200F0E0000A4
:1035A000EC63000844040020E46300088061000824
:1035B000000800480002002054630008480300206F
:1035C00050660008446300082C630008406300084C
:1035D0001C63000878050020C0630008B46300087D
:1035E000FC6200080C630008EC62000880620008BE
:1035F000D0630008DC630008C8630008206200088C
:103600000A22D649D648FFF7B1F9D64E0022B38830
:10361000032B00D908E18021D3480902FDF77EF988
:10362000B3880133B38055E6CD4F0A22CF49380025
:10363000FFF79CF90C22CE493800FFF797F9CD4BE4
:1036400018009846FCF7ECFDCB4E01280CD910224F
:103650004146300001F05FFE002800D1FBE00F2260
:10366000C6493800FFF782F9C54B984633004246F9
:1036700003CA03C31188380019809278C1499A702F
:103680000722FFF773F93000FCF7CAFD310082B260
:103690003800FFF76BF938000222BB49FFF766F9E3
:1036A000BA4F3B68002B26D07B68002B23D08023A9
:1036B0005B00E358012B1ED0B54B09229946180038
:1036C000B44901F0DFFD48460A224146093001F0C5
:1036D000D9FD48460422B049133001F0D3FD16222B
:1036E0004946AE48FFF742F93100AD48F83101F0E4
:1036F0000AFE0023BB609A2301225B00E2500023F4
:103700002B70E7E50F22A749A448FFF72FF9F8230C
:103710000021A54AD150E13B2B70DBE50B22A349E8
:103720009E48FFF723F90D232B70D3E5A04E072207
:10373000A049300001F0EFFD002800D185E0032210
:103740009D49300001F0E7FD002800D194E09A2265
:10375000002301215200A3500432A1502B70B9E57F
:103760001E2296498D48FFF701F91F232B70B1E502
:10377000092293498948FFF7F9F810232B70A9E52E
:10378000092290498548FFF7F1F8A82305225B003C
:10379000E250483BFF3B2B709CE509228A497F4859
:1037A000FFF7E4F807232B7094E5092287496C485A
:1037B000FFF7DCF80B2286497848FFF7D7F801229B
:1037C000724B5A601A6006232B7083E509228149E7
:1037D0007248FFF7CBF87DE5614E0C227E49300040
:1037E000FFF7C4F85F4FBB88032B10D801220421D8
:1037F0007A48FDF793F8BB880C22013378493000F2
:10380000BB80FFF7B3F865E513332B7080E500222A
:1038100004217248FDF782F804230B22714930001D
:103820002B70FFF7A3F855E504216C48FDF776F8F7
:1038300002232B704EE56C49300001F023FD21007E
:10384000701D943101F05FFD0EE513226749534866
:10385000FFF78CF87BE70C2265493800FFF786F804
:103860004146300001F04FFDFEE60237BAB23100AA
:103870004A48FFF77BF82DE513225E494748FFF7DA
:1038800075F864E70022E250E83B337091465A49EC
:103890000432701C01F0F6FC611DFF31701D01F057
:1038A0001BFD821B92B231003800FFF75FF8072240
:1038B00052493800FFF75AF83000FCF7B1FC3100EC
:1038C00082B24046FFF752F84A464D4B1A70EAE47E
:1038D0000022E250EC3B337091464A490732701C9B
:1038E00001F0D0FC072231003800FFF73FF8072233
:1038F00042493800FFF73AF83000FCF791FC3100FC
:1039000082B24046FFF732F84A463D4B1A70C4E493
:103910000022E250F03B337091463B490532701C67
:1039200001F0B0FC2100B01D4C3101F0D5FC821B30
:1039300092B231003800FFF719F807222F493800FA
:10394000FFF714F83000FCF76BFC310082B2404600
:10395000FFF70CF84A462A4B1A70AAE47461000873
:10396000100B002000020020000800488C620008B4
:1039700098620008F20800204C030020B86200089A
:10398000C8620008D46200085066000808030020DE
:10399000E4040020DC62000854620008C00B002030
:1039A000780500207062000848030020306200089B
:1039B000150900203C6200085862000800620008F7
:1039C000F4610008E8610008DC610008C4610008D7
:1039D000D0610008B86100088C610008000400484C
:1039E0009C610008AC61000878630008446200082C
:1039F000A86200085C620008A463000880630008F5
:103A0000400300209C630008AC6300080022E250E1
:103A10002C239146337005323949701C01F032FC79
:103A20002100B01D943101F057FC821B92B231008D
:103A30003800FEF79BFF072232493800FEF796FF59
:103A40003000FCF7EDFB304B82B231001800984695
:103A5000FEF78CFF4A462D4B1A70FFF70CFC002234
:103A6000E250603B3370914629490932701C01F0E5
:103A700009FC21003000C6310A3001F02DFC821B08
:103A800092B231003800FEF771FF07221D4938005D
:103A9000FEF76CFF3000FCF7C3FB310082B24046FA
:103AA000FEF764FF4A46194B1A70FFF7F0FB00223D
:103AB000E2505C3B3370914616490832701C01F0AD
:103AC000E1FB21003000B231083001F005FC821B1F
:103AD00092B231003800FEF749FF07220949380049
:103AE000FEF744FF3000FCF79BFB310082B24046FA
:103AF000FEF73CFF4A46054B1A70FFF7C2FBC04673
:103B00007863000880630008C00B00204003002099
:103B1000906300088863000810B50400FCF780FB80
:103B2000210082B20148FEF721FF10BD100B0020DA
:103B300070B51D4C88B011221C49200001F0A2FB79
:103B40001B4D1C492A00684601F0A6FB694620006F
:103B500001F0CBFB2A0018491E32684601F09CFB9D
:103B60002000FCF75DFB6946001901F0B5FB05225A
:103B70001249061B01F086FB2900701D94390019BB
:103B800001F0AAFB3A2329000370012576390130A0
:103B900001F0A2FB2A1B82182100094801F072FBE8
:103BA000084B5D6208B070BD7805002030640008E5
:103BB000D408002044640008506400085C640008D5
:103BC0004404002008030020F0B5C64600B5564F57
:103BD0008EB0102255493800FEF7C8FE01A8FFF745
:103BE0004FFA534C0C225349200001F04BFB01AA21
:103BF000514904A801F050FB04A9200001F083FB07
:103C00004E4D4F492A0004A801F046FB2000FCF766
:103C100007FB04A9201801F05FFBEB6A012B00D120
:103C20007DE02000FCF7FCFA9423464D5B00EB5846
:103C30002018012B69D00E22434901F023FB2000FC
:103C4000FCF7EEFA90235B00EB582018012B61D0B3
:103C500014223E4901F016FB3D4D3E492A0004A8BE
:103C600001F01AFB04A9200001F03FFB2A003A49A9
:103C70005A3A04A801F010FB04A9200001F035FB1A
:103C80002A0036493C3A04A801F006FB04A92000AA
:103C900001F02BFB2023324A324904A8137001F0B3
:103CA000FBFA2000FCF7BCFA04A9201801F014FB71
:103CB00005222D49061B01F0E5FA2900701DEE3999
:103CC000201801F009FB3A2329000370D039013094
:103CD00001F002FB0126254B05009846321B821895
:103CE000210018002C1B01F0CDFAA2B24146380089
:103CF000FEF73CFE02221E493800FEF737FE1D4B40
:103D00005E620EB004BC9046F0BD0D221A4901F06F
:103D1000B9FA94E71022194901F0B4FA9CE7152288
:103D2000174901F0AFFA7CE7100B0020B0640008DF
:103D300078050020C4640008D0640008440900200D
:103D4000D8640008400800201065000830650008AD
:103D50002E090020446500084464000850640008EF
:103D600048070020546500085C64000844040020F3
:103D70005066000808030020006500082065000860
:103D8000E8640008F0B5DE464E4657464546E0B5C5
:103D9000E54CF5B00922E5492000FEF7E7FDE44DCA
:103DA00000262800FCF73CFA290082B22000FEF72A
:103DB000DDFDE04F022239002000FEF7D7FD29008B
:103DC00047A801F0A0FA0023A02200931AA93B33D0
:103DD00047A800F069FF942399461E339C46D64DB0
:103DE000AC446346A944029303957FE00522D3497E
:103DF0001AA801F090FA002800D1D0E00422D0499E
:103E00001AA801F088FA002800D1E5E00422CD4983
:103E10001AA801F080FA002800D114E10422CA494E
:103E20001AA801F078FA002814D18A235B00EB5815
:103E3000002B00D114E2C54B18009846FCF7F0F9AE
:103E4000414682B22000FEF791FD02223900200097
:103E5000FEF78CFDBE4B0522BE491800984601F0C6
:103E60005AFA002800D1CEE10522BB491AA801F078
:103E700052FA8046002800D1ACE10322B7491AA8C3
:103E800001F049FA002800D190E10422B4491AA8AF
:103E900001F041FA002800D131E10722B1491AA806
:103EA00001F039FA8046002800D10EE10522AE4922
:103EB0001AA801F030FA002800D1F9E00322AB493A
:103EC0001AA801F028FA002800D1D9E00722A84951
:103ED0001AA801F020FA002800D1E8670136009600
:103EE0003B23A0221AA947A800F0DEFE1AA8FCF77F
:103EF00097F9012800D899E182B21AA92000FEF7AB
:103F000035FD022239002000FEF730FD04229949D8
:103F10001AA801F000FA8046031E00D066E70133BC
:103F20009A460093282239330DA91AA800F0BCFE46
:103F300043461E22009349462C230DA800F0B4FEF0
:103F4000534602991E2200930DA82B33884600F099
:103F5000ABFE4846FCF764F9494682B22000FEF702
:103F600005FD032284492000FEF700FD4046FCF7D2
:103F700057F9414682B22000FEF7F8FC02223900D0
:103F80002000FEF7F3FC4B465246943BDA676B4940
:103F900005221AA801F0BFF9002800D02EE701235E
:103FA0000422009305A9393347A800F07DFE0322BF
:103FB000724905A801F0AFF9002800D01EE70522DC
:103FC0006F492000FEF7D2FC04225D491AA801F0D7
:103FD000A2F9002800D019E70F226A492000FEF755
:103FE000C5FC0123282200930DA939331AA800F03B
:103FF0005BFE052264490DA801F08DF9002802D16D
:1040000094235B00E850052260490DA801F083F974
:10401000002803D1942301225B00EA500DA8FCF78D
:10402000FFF80DA982B22000FEF7A0FC02223900A1
:104030002000FEF79BFC042242491AA801F06BF90C
:10404000002800D0EAE601232822009305A998461B
:104050001AA8393300F028FE192205A94C4801F0AE
:104060005AF98246002800D0EFE00B22494920008F
:10407000FEF77CFC98235146039A5B00D150CDE6B5
:10408000454B142298460123414600931AA8393320
:1040900000F00AFE0A21404600F036FE43460201C7
:1040A000101AA022453BFF3B8000520098500DE7BC
:1040B0001B223A492000FEF759FCFFF739FD1C226C
:1040C00037492000FEF752FCF8E60DAB9A46012373
:1040D000042200939B46514639331AA800F0E4FDB0
:1040E00053461B78312B00D1E5E016222D492000E4
:1040F000FEF73CFC962342465B00EA50D6E60DAB49
:104100009846012304220093414639331AA800F04F
:10411000CBFD43461B78312B00D1D6E0112222493A
:104120002000FEF723FCB8E6100B0020C86500084D
:10413000580700205066000840080020E06500088D
:10414000F0650008186600083C6600084409002075
:104150006C03002054660008586600088466000856
:10416000AC660008B4660008E86600082C67000822
:1041700030670008D4650008DC6500088465000825
:10418000E8650008F8650008086600081066000881
:104190008C0800202066000884090020F0660008D2
:1041A0000C670008D0660008706600080DAB9846E2
:1041B000012304220093414639331AA800F074FD0C
:1041C00043461B78312B6ED0132243492000FEF763
:1041D000CDFB5AE60DAB9A460123042200939B4681
:1041E000514639331AA800F05FFD53461B78312B36
:1041F0004FD0902342465B00EA50384911222000FC
:10420000FEF7B4FB39E6364B04229A4601235146A9
:1042100000934046393300F047FD0A21504600F034
:1042200073FD642358435346D8601DE69222002351
:104230005200AB503432AB502A4A137075B03CBCBC
:1042400090469946A246AB46F0BD0D222649200075
:10425000FEF78CFB98234146039A5B00D150DDE5C5
:104260000E2222492000FEF781FB6B1DFF3398468A
:10427000012305220093414639331AA800F014FDAA
:104280000A21404600F040FD64235843AC33E85017
:10429000D1E50D2216492000FEF768FB90235A460F
:1042A0005B00EA50E9E50E2212492000FEF75EFBB2
:1042B000FFF78AFCE9E512220F492000FEF756FBC2
:1042C00096235A465B00EA50F0E50D22084920008B
:1042D000FEF74CFBE1E5C0469866000870660008F2
:1042E00044090020040000202C66000844660008F1
:1042F0006066000888660008BC660008F0B5D6460F
:104300004F464646C0B5D54D86B00422D449280054
:1043100000F0B8FFD34EE81C310000F0DDFFD24FB3
:1043200003223900441B00F0ADFFD04B02341800CB
:10433000A2B229009846FEF719FBCD4B99461B699E
:10434000012B20D0A825CB4C6D006359012B2DD01B
:10435000012B07DD013B635106B01CBC904699461A
:10436000A246F0BD0722C449300000F0D4FF002867
:1043700038D0AC225200A358012B00D1C9E034DD63
:10438000013BA350E8E700224946A8250B620A61D9
:10439000BA48310000F0B7FF1222B9494046FEF793
:1043A000E5FAB44C6D006359012BD1D12333994602
:1043B000A1443100484600F0A6FF0522B14940461D
:1043C000FEF7D4FA4846FBF72BFF494682B2404637
:1043D000FEF7CCFA022239004046FEF7C7FA002366
:1043E0006351B9E701236351B6E70A22A6493000B9
:1043F00000F091FF002800D187E00422A34930009B
:1044000000F089FF002800D186E00622A049300094
:1044100000F081FF002800D192E003229D49300086
:1044200000F079FF002800D194E008229A4930007A
:1044300000F071FF002800D1A9E006229749300062
:1044400000F069FF002800D199E00F229449300064
:1044500000F061FF002800D17EE70D229149300075
:1044600000F059FF002800D1C4E007228E49300037
:1044700000F051FF002800D1D4E007228B49300022
:1044800000F049FF051E00D1D5E008228849300020
:1044900000F041FF051E00D1D6E009228549300019
:1044A00000F039FF002800D1A4E008228249300042
:1044B00000F031FF002800D19CE005227F49300048
:1044C00000F029FF002800D016E14B465B6A012B63
:1044D00000D141E70023012400930A222C3302A9D2
:1044E000300000F0E1FB202303227549009402A86C
:1044F00000F0DAFB03231422009372491F333000CB
:1045000000F0D2FB4B461C6126E705226E4B1A7069
:1045100022E7FFF737FC1FE701236C4C00932100D3
:104520001F330322300000F0BFFB200000F079FEB3
:1045300071224000121A6649200000F0ADFE0BE720
:10454000210001234C3100931E221F33300000F064
:10455000ABFB01E75F4B98605F4B18604B46196AF5
:104560005B6A012B2ED0584B1A78092A3BD00129BF
:1045700036D01E2A00D0B9E01A3A1A70ECE6802331
:104580001B22E0507F3BA3674F4B1A70E4E60123E8
:10459000524D00939A460F2221332900300000F03B
:1045A00083FB2800FBF73CFE032827D800234A465C
:1045B000D3619033E358012B00D0CDE60E22424B5D
:1045C0001A70C9E64B465B68012BCCD14B46DB69C0
:1045D000002BC8D10E223C4B1A70012900D0BBE63B
:1045E00016221A70B8E64846083A4261012900D0FE
:1045F000B2E6F5E71322344B1A70ADE64B4652464D
:10460000DA614A460023936114222F4B29001A7065
:1046100082B24046FEF7AAF9022239004046FEF770
:10462000A5F999E680211522274B49002C481A70DC
:10463000FCF77AF990E6284BA06718602948FFF745
:104640006BFA214B1D7087E6234BA0671860264844
:10465000FFF762FA1C4B1D707EE6C046E4040020A2
:10466000386700085807002050660008100B00202B
:104670000803002040080020506700086C03002059
:104680003C670008F4630008586700086467000886
:104690006C67000874670008786700088C6700087A
:1046A0008467000894670008A4670008AC670008E6
:1046B000C4670008E8670008F4670008006800089D
:1046C000480300204C03002004000020480700207D
:1046D000FC630008000200201806002020040020CF
:1046E00000040048B4670008D06700081C2A00D006
:1046F00032E601321A702FE610221149300000F024
:104700000AFE002818D005220E49300000F003FEF2
:10471000002800D020E601220B4B1A700B4A908033
:104720004A465060D0619C225200A158012900D015
:1047300012E6A05018700FE6FEF706FD0CE6C04624
:10474000086800081C68000804000020000200201F
:10475000214B10B5DA68196991421DD01F4C596977
:10476000A45C1F480132445496246400A24200DD38
:104770000022DA604A1CE62A0FDC5A61425C3E2ABB
:1047800012D00A2A06D10022425401215A61421E47
:10479000127849420D2A13D010BD0121002249424E
:1047A0005A61425C3E2AECD10E4B9B6F013B5A4250
:1047B00053410B225B4213400B4A0F331370EBE75C
:1047C000002242545A61FFF799FD80210748890170
:1047D000FCF7AAF8E0E7C046000200201C06002013
:1047E000580700204008002004000020000800486E
:1047F000B0220021094B520099503E2802D1043AC0
:1048000001319950064A07491369C854962101336A
:1048100049008B4200DD00231361704740080020EF
:10482000000200201C06002038220D20002314491D
:1048300010B54A700132CA70253A0A7160324A7165
:10484000203A8A711B32CA71633A88B00A720B3AF5
:104850004A7203AC0B3268440B708B708B722370FE
:1048600000F010FD0A23220000937C21023305484A
:10487000FCF784F90448FFF74FF908B010BDC046B3
:10488000E0090020C40A002024680008132310B5A2
:1048900098B00B93123B0C930E9310930F330F931E
:1048A000119380235B02159380231B03022416932C
:1048B00000230BA814941793FDF70EF9002800D0DD
:1048C000FEE70723029003900121684600930194BC
:1048D000FDF79AFB002800D0FEE7232306900790FF
:1048E000089004A80493FDF70BFD041E00D0FEE71A
:1048F000FDF7D4FCFA218900FBF706FCFBF738FE34
:104900000420FBF751FE0120220021004042FBF76A
:10491000F9FD18B010BDC046F0B5C64600B58CB064
:10492000FBF786FCFFF7B2FF8021B14C09036269F7
:10493000E0250A43626163692D020B4080210193E7
:10494000019B6269C9030A4362616369A9480B401C
:1049500080210293029B626989020A436261636952
:10496000B2270B4080210393039B6269C9020A436B
:104970006261636900220B4004932900049BFBF7EA
:10498000CDFF9D4B002219009C489846FBF7C6FFBF
:104990009020FF0100223900C005FBF7BFFF012670
:1049A0000795002507A99348089609950A95FBF7EE
:1049B000B9FE434607A991480793089609950A95B9
:1049C000FBF7B0FE902007A9C00507970896099548
:1049D0000A95FBF7A7FEA02390201B0207A9C0059C
:1049E000079308950995FBF79DFE63690022334301
:1049F000636163690021334000930920009BFBF74A
:104A000081FD0920FBF7AAFD7D4C7E4B0427236026
:104A1000C2232000FF336560A560E5602661676101
:104A2000A561E56126626562A362E562256366634E
:104A3000FBF72EFC002800D0FEE780235B010893E3
:104A4000802307905B0507A920000993FBF7CAFCA8
:104A5000002800D0FEE707A920000796FBF7C2FC5C
:104A6000002800D0FEE707A920000797FBF7BAFC53
:104A7000002800D0FEE7052307A920000793FBF7D5
:104A8000B1FC002800D0FEE7062307A92000079309
:104A9000FBF7A8FC002800D0FEE7072307A92000A9
:104AA0000793FBF79FFC002800D0FEE7564C574BBE
:104AB000A0602360564B20616061A061E0612062CC
:104AC00020006360E660FCF701F8011E00D0FEE7FD
:104AD0002000FCF7A5FF011E00D0FEE72000FCF738
:104AE000CDFF002800D0FEE74A484B4BE022036090
:104AF0008223D200C26080225B00436000239200C8
:104B00008261FA3A836003614361C3610362436275
:104B10008362FF3A03630833C2624363FDF79CFC80
:104B2000002800D0FEE7E1250C243C4B3C4A6D02F6
:104B30009860D86018619861D8611862586218004E
:104B40001A605D605C61FEF745F9002800D0FEE761
:104B5000344B354A9860D86018619861D861186202
:104B6000586218001A605D605C61FEF733F9002836
:104B700000D0FEE72D4B2E4A9860D86018619861EE
:104B8000D8611862586218001A605D605C61FEF7B7
:104B900021F9002800D0FEE7264C274B60602360F7
:104BA0006423A06020616061A0612000E360FDF7E4
:104BB000C1FC002800D0FEE7802307A95B0120008C
:104BC0000793FDF733FD002800D0FEE7059006901F
:104BD00005A92000FDF7A4FE002800D0FEE7FA207A
:104BE0004000FBF743FBFFF71FFEFEF7ADFAFEE7C1
:104BF00000100240000800483F1300000004004875
:104C0000740C002000240140C40A0020005400401D
:104C10000E090020F009002000380040100B002091
:104C200000380140C00B002000440040540A00201E
:104C300000480040800B0020002C014070B5164C4D
:104C4000050023681D2B0DDC01332360134A6368C4
:104C500093420FDC0133636080232A68DB059A42AC
:104C600016D070BD00232360FFF772FD63680B4A06
:104C70009342EFDD00236360FEF7C6FA8021084807
:104C8000C901FBF751FE80232A68DB059A42E8D16F
:104C9000FBF7DEFAE5E7C0462C020020E703000040
:104CA00000080048FEE7C046F0B50600013A05A836
:104CB0000078D7B232788446002500240020002AEC
:104CC0000CD117E01F2A04D90A55BC4201DA01347D
:104CD00024B2013000B2325C002A0BD09342F1D1F1
:104CE000AC4509D0013000B2325C0135EDB2002490
:104CF000002AF3D1AC4503D1091900230B70F0BD94
:104D000001204042F9E7C04610B503000A291CD033
:104D1000002010290BD010BD1100613905292DD9B3
:104D200011004139052901D8373A104301331A7867
:104D3000002AF0D02F2AF9D911003039CCB2000165
:104D4000092CE9D808430133F1E702780020002A52
:104D5000E1D011003039CCB2092C0CD882001018E7
:104D6000400008185A780133002AD4D01100303995
:104D7000CCB2092CF2D92D2AE9D9F3E7573A1043DE
:104D80000133D4E70122134B00B599690520114383
:104D90009961996983B00A4080210092009ADA698A
:104DA00049050A43DA61DB6900220B4001930021C7
:104DB0004042019BFBF7A6FB02200022002140425B
:104DC000FBF7A0FB0120002200214042FBF79AFBE9
:104DD00003B000BD00100240F0B51B4B026887B065
:104DE00004009A4201D007B0F0BD8027174BBF00E6
:104DF0009A6990203A439A619B6900263B40009350
:104E0000009BF323C005019301A9F03B0293039695
:104E1000FBF788FC0E4D0F4B28002B608023EB60C6
:104E200080231B016E60AE602F616B61AE61EE612D
:104E3000FBF7CEFB002802D1E5636C62D3E76F215C
:104E40000548FFF72FFFF7E700240140001002405C
:104E5000300C0020080002408C68000800B5134B9D
:104E6000026887B09A4201D007B000BDC023032278
:104E70000193AE3B029301A9113B0D4803930492A9
:104E80000593FBF74FFC80200A4A8003D169014358
:104E9000D161D36900210340009300221720009BB9
:104EA000FBF730FB1720FBF759FBDDE70054004010
:104EB000000400480010024000B5104B026887B0A3
:104EC0009A4201D007B000BD80200D4AC001D169CF
:104ED0000143D161D369032203400093009BE02387
:104EE0001B02019302230293002301A905480393A7
:104EF00004920593FBF716FCE4E7C0460038004037
:104F0000001002400004004800B50D4B026883B059
:104F10009A4201D003B000BD80200A4A0001916985
:104F200001439161936900210340019300220D2008
:104F3000019BFBF7E7FA0D20FBF710FBEAE7C04601
:104F4000002C01400010024000B50368344A89B0CB
:104F5000934207D0334A934241D0334A934224D0FC
:104F600009B000BD8020314AC001916901439161BF
:104F7000936903A903400093009BC023DB000393C4
:104F80000223049300239020059303330693C00566
:104F9000023B0793FBF7C6FB002200211B20FBF717
:104FA000B1FA1B20FBF7DAFADAE780201F4AC002C9
:104FB000D1690143D161D36903A903400293029BE4
:104FC000C0231B010393022304930023059303339F
:104FD0000693174801330793FBF7A4FBC0E7802033
:104FE000124A8002D1690143D161D369032203408F
:104FF0000193019B0C23902003930A3B049303A984
:10500000013BC005059306920793FBF78BFB00223B
:1050100000211C20FBF776FA1C20FBF79FFA9FE784
:1050200000380140004400400048004000100240A9
:105030000004004810B5010086B000220F20FBF7E5
:1050400061FA0F20FBF78AFA0123144A02A8D169FA
:105050001943D161D269694613400193019BFDF761
:1050600033F9FDF721F980230D4CDB0523600D4B4F
:105070000D49E360FBF748F8002301386060200029
:105080002361A360FDF756FA03000120002B02D133
:105090002000FDF7C1FA06B010BDC0460010024066
:1050A000C00C0020E703000040420F007047C046DC
:1050B000FEE7C0467047C0467047C04610B5FBF7D4
:1050C00083FA10BD10B50248FBF7DEFA10BDC046EA
:1050D000300C002010B50248FDF776FB10BDC0462D
:1050E000800B002010B50248FDF76EFB10BDC046D6
:1050F000C00C002010B5FDF7C9FF064803689A6987
:10510000E023DB001A4202D1FBF750FE10BDFCF792
:10511000BBFBFBE7C40A002010B50248FDF7CEFC3C
:1051200010BDC046100B002010B50248FDF7C6FCAC
:1051300010BDC046C00B00200B4A10B51368002BF1
:1051400006D069461818884208D81060180010BDAB
:105150006946064B181813608842F6D900F068F8C3
:105160000C2303600D3BF1E738020020080D0020FE
:105170000121114B11481A680A431A605A6802400B
:105180005A601A680E4802401A601A680D480240B8
:105190001A605A680C4802400F205A60DA6A82434B
:1051A000DA621A6B094802401A635A6B8A435A63DF
:1051B00000229A607047C046001002400CB8FF08F9
:1051C000FFFFF6FEFFFFFBFFFFFFC0FF2CFEFCFF13
:1051D0000D4885460D480E490E4A002302E0D4587A
:1051E000C4500433C4188C42F9D30B4A0B4C00232F
:1051F00001E013600432A242FBD3FFF7B9FF00F0D5
:105200001DF8FFF789FBFEE70040002000000020AA
:10521000E0010020F0690008E0010020040D0020FA
:10522000FEE710B50A22002100F008F910BD0000C9
:10523000014B18687047C0461000002070B500266A
:105240000C4D0D4C641BA410A64209D1002600F0A1
:1052500009FD0A4D0A4C641BA410A64205D170BD7D
:10526000B300EB5898470136EEE7B300EB58984788
:105270000136F2E7E8690008E8690008E869000813
:10528000EC690008002310B59A4200D110BDCC5C37
:10529000C4540133F8E700000EB400B50B499CB0CC
:1052A0001DAB02900690079104910948094904CB6F
:1052B0000591006802A9019300F04CF90023029ABD
:1052C00013701CB008BC03B01847C046FFFFFF7F37
:1052D000100000200802FFFF03000A7818001A706F
:1052E00001310133002AF8D17047020010B513785C
:1052F000541C002B05D1CC5CD4540133002CFAD1C2
:1053000010BD2200F3E703000A7801311A7001335F
:10531000002AF9D17047002330B59A420AD0013AE9
:10532000C45CCD5CAC4204D1934202D00133002C6A
:10533000F6D1631B180030BDF0B51F000E0087B01A
:105340000590019102920C98347800F08BF80822B5
:1053500000194378751C134036D12D2C36D1B51C5D
:1053600074780126002F62D0102F09D1302C07D17C
:1053700020222B789343582B54D110276C78023578
:105380002D4B3900F31818000393FAF743FF0491EB
:1053900001210023494202008C46180021003039C7
:1053A00009291AD80C00A74223DD591C09D06346ED
:1053B000824206D302D10499A14202DB0123784341
:1053C00020182C780135E9E72E00BCE72B2C01D002
:1053D0001E00C7E7B51C7478FAE721004139192986
:1053E00001D8373CDFE721006139192901D8573C42
:1053F000D9E75A1C08D1059A23331360029B0398FE
:10540000002B09D107B0F0BD002E00D04042029A17
:10541000002AF7D0002B01D06B1E0193029B019A4A
:105420001A60EFE73024002FAAD10827A8E7302C14
:105430009ED00A27A4E7C046FFFFFF7F37B51300C1
:10544000064A05001068046A002C00D1044C0A00CA
:1054500000942900FFF770FF3EBDC04610000020F9
:1054600074000020EC300068704782B0002900D141
:1054700001A9101E06D0002B06D013780B601078FF
:10548000431E984102B0704702204042FAE70000F4
:10549000F0B58E6885B007000C00039201939E4220
:1054A0003CD890238A89DB001A4234D0032509694D
:1054B00023685B1A0293636902985D43EB0F5D19E1
:1054C000019B6D1001331B18AB4200D91D00530521
:1054D00032D52900380000F025FB061E09D10C2327
:1054E0003B6040230120A28940421343A38105B0C1
:1054F000F0BD029A2169FFF7C5FEA389144A1A403C
:1055000080231343A381029B2661F6182660656100
:10551000019EED1AA560019B9E4200D9019E3200BA
:105520000399206800F0A1FAA36800209B1BA360E8
:1055300023689E192660DAE72A00380000F050FB45
:10554000061EE0D12169380000F0A2FAC7E7C04684
:105550007FFBFFFFF0B5A1B003901D008B890F000A
:1055600016001B0611D50B69002B0ED1402100F04F
:10557000D9FA38603861002805D10C23039A013824
:10558000136021B0F0BD40237B61002308AC636150
:10559000203363761033A376079535002B78002BE4
:1055A00001D0252B46D1AB1B05930CD0320039001E
:1055B0000398FFF76DFF431C00D1AEE06269059BC5
:1055C0009446634463612B78002B00D1A5E001224F
:1055D00000235242626004A9543252186E1C2360A8
:1055E000E360A3601370A36531780522534800F08F
:1055F00031FA751C00281FD12268D30604D5532325
:1056000004A95B1820211970130704D5532304A99A
:105610005B182B21197033782A2B16D03500002106
:105620000A20E3682A786E1C303A092A4ED90029EC
:1056300018D010E00135B1E7404B2268C01A0123B1
:105640008340134323602E00CEE7079B191D1B6880
:105650000791002B01DB0B9304E05B42E360022324
:10566000134323602B782E2B0AD16B782A2B35D14C
:10567000079B02351A1D1B680792002B2BDB099331
:105680002F4E29780322300000F0E4F9002806D0DC
:105690004023801B8340226801351343236029780F
:1056A000062228486E1C217600F0D4F900283CD050
:1056B000254B002B25D10722079B07339343083343
:1056C00007936369049A9B18636166E7434301216A
:1056D0009B183500A6E701235B42D0E700230A2090
:1056E0001A000135636029786E1C3039092903D905
:1056F000002BC5D00992C3E742430123521835005D
:10570000F1E707AB00933A00104B2100039800E04B
:1057100000BF0490049B0133D3D1BB890D985B0675
:1057200000D42EE7012040422BE707AB00933A005C
:10573000064B2100039800F079F8EAE7B268000808
:10574000B8680008BC680008000000009154000818
:10575000F7B5150001938A680B6900900C0093421D
:1057600000DA130022002B6043321278002A01D0A5
:1057700001332B6023689B0602D52B6802332B6014
:10578000062723681F4027D0230043331B785A1E67
:1057900093412268920630D4220001994332009846
:1057A000089EB047431C25D0062320682A68E1687C
:1057B00003400025042B03D18D1AEB43DB171D405A
:1057C000A3682269934201DD9B1AED180027BD42B0
:1057D00020D1002010E00137E3682A689B1ABB4201
:1057E000D2DD22000123193201990098089EB047AA
:1057F000431CF0D101204042FEBD3020E11843316E
:10580000087021005A1C45310978A218433202332E
:105810001170C1E7220001231A3201990098089EF5
:10582000B047431CE6D00137D1E70000F0B589B09E
:1058300004920A0043320593039002920A7E0C0000
:105840000E9B6E2A00D186E01FD8632A33D008D879
:10585000002A00D18CE0582A4DD0250042352A700C
:1058600030E0642A01D0692AF7D1196825680A1D39
:10587000280629D508681A60002803DA2D23029A21
:10588000404213706B4E0A274FE0732A74D008D839
:105890006F2A1FD0702AE0D1202209680A432260B3
:1058A00003E0752A16D0782AD7D122007821453214
:1058B0001170614E22E025001A684235111D1960F1
:1058C00013682B70012365E008681A606906D3D558
:1058D00000B2D1E719682568081D186008682E060F
:1058E00005D5544E08276F2A1BD00A2719E06D06EC
:1058F000F7D580B2F5E745314E4E0A701868226838
:10590000011D00681960150621D5D30702D5202393
:105910001A4322601027002803D1202322689A43CB
:1059200022602300002243331A706368A360002BB7
:1059300058DB0422216891432160002854D1029D44
:10594000002B5AD02500337842352B7055E0550690
:10595000DBD580B2D9E71A680D68101D4969186057
:1059600013682E0601D5196002E06D06FBD519807B
:105970000023029D23614FE01A68111D196015680C
:1059800000216268280000F065F8002801D0401B63
:105990006060636823610023029A13703CE023690E
:1059A0002A0004990398059DA847431C3ED023680C
:1059B0009B0715D4079BE068984239DA180037E056
:1059C00022000123193204990398059EB047431C15
:1059D0002CD00135E368079A9B1AAB42F0DCE9E76B
:1059E0000025F7E70028ADD0029D3900FAF712FC38
:1059F000735C013D2B700028F7D1082F09D1236873
:105A0000DB0706D563682269934202DC3023013D3F
:105A10002B70029B5B1B2361059B07AA009321004F
:105A2000049B0398FFF794FE431CB8D10120404229
:105A300009B0F0BDC3680008D46800080B1E04D08C
:105A4000FF2A04D98A2303608B3B180070470A7031
:105A50000123FAE7C9B28218904201D100207047B1
:105A600003788B42FBD00130F6E710B5884202D9AB
:105A70008B18984203D3002307E08B5C8354013AD0
:105A8000FBD210BDCC5CC45401339A42FAD1F8E782
:105A900070B50500002910D00C1F2368002B00DA18
:105AA000E418280000F0D4F81D4A1368002B05D133
:105AB00063601460280000F0CCF870BDA34209D9DF
:105AC000216860188342F3D118685B68411821602F
:105AD000EEE713005A68002A01D0A242F9D91968EA
