:020000040800F2
:1000000000400020896000085D5F0008615F000813
:1000100000000000000000000000000000000000E0
:10002000000000000000000000000000655F000804
:100030000000000000000000695F00086D5F00081C
:10004000715F0008D9600008D9600008D960000815
:10005000D9600008D9600008D9600008D96000089C
:10006000D9600008815F0008D9600008D9600008E5
:10007000D9600008915F0008D9600008A15F0008FE
:10008000D9600008D9600008D9600008D96000086C
:10009000D9600008D9600008D9600008B15F000885
:1000A000D9600008D9600008D9600008D15F000855
:1000B000E15F0008D9600008D9600008D960000835
:1000C00010B5064C2378002B07D1054B002B02D02E
:1000D000044800E000BF0123237010BDE8010020A8
:1000E000000000002C6B0008044B10B5002B03D05F
:1000F0000349044800E000BF10BDC04600000000F6
:10010000EC0100202C6B0008002243088B4274D3C2
:1001100003098B425FD3030A8B4244D3030B8B4208
:1001200028D3030C8B420DD3FF22090212BA030C11
:100130008B4202D31212090265D0030B8B4219D3F2
:1001400000E0090AC30B8B4201D3CB03C01A524112
:10015000830B8B4201D38B03C01A5241430B8B425A
:1001600001D34B03C01A5241030B8B4201D30B0343
:10017000C01A5241C30A8B4201D3CB02C01A52416A
:10018000830A8B4201D38B02C01A5241430A8B422D
:1001900001D34B02C01A5241030A8B4201D30B0216
:1001A000C01A5241CDD2C3098B4201D3CB01C01A30
:1001B000524183098B4201D38B01C01A524143093A
:1001C0008B4201D34B01C01A524103098B4201D328
:1001D0000B01C01A5241C3088B4201D3CB00C01A95
:1001E000524183088B4201D38B00C01A524143080D
:1001F0008B4201D34B00C01A5241411A00D2014632
:10020000524110467047FFE701B5002000F0F0F8BA
:1002100002BDC0460029F7D076E7704703460B437E
:100220007FD4002243088B4274D303098B425FD3EF
:10023000030A8B4244D3030B8B4228D3030C8B421B
:100240000DD3FF22090212BA030C8B4202D3121201
:10025000090265D0030B8B4219D300E0090AC30BD6
:100260008B4201D3CB03C01A5241830B8B4201D383
:100270008B03C01A5241430B8B4201D34B03C01A6C
:100280005241030B8B4201D30B03C01A5241C30AE4
:100290008B4201D3CB02C01A5241830A8B4201D355
:1002A0008B02C01A5241430A8B4201D34B02C01A3F
:1002B0005241030A8B4201D30B02C01A5241CDD2E4
:1002C000C3098B4201D3CB01C01A524183098B422F
:1002D00001D38B01C01A524143098B4201D34B0118
:1002E000C01A524103098B4201D30B01C01A52417B
:1002F000C3088B4201D3CB00C01A524183088B4202
:1003000001D38B00C01A524143088B4201D34B00EA
:10031000C01A5241411A00D201465241104670475C
:100320005DE0CA0F00D04942031000D34042534061
:1003300000229C4603098B422DD3030A8B4212D321
:10034000FC22890112BA030A8B420CD38901921153
:100350008B4208D3890192118B4204D389013AD090
:10036000921100E08909C3098B4201D3CB01C01A65
:10037000524183098B4201D38B01C01A5241430978
:100380008B4201D34B01C01A524103098B4201D366
:100390000B01C01A5241C3088B4201D3CB00C01AD3
:1003A000524183088B4201D38B00C01A5241D9D2EB
:1003B00043088B4201D34B00C01A5241411A00D26C
:1003C0000146634652415B10104601D34042002B68
:1003D00000D54942704763465B1000D3404201B5E7
:1003E000002000F005F802BD0029F8D016E770479C
:1003F0007047C0460023C25C0133002AFBD1581E5F
:10040000704700001021064A10B5136800200B4306
:10041000136005F067FD05F0BFFB002010BDC0466E
:1004200000200240034A044B11681B785B181360DC
:100430007047C0465802002000000020014B186899
:100440007047C0465802002070B50400FFF7F6FF61
:100450000500631C02D0044B1B78E418FFF7EEFF85
:10046000401BA042FAD370BD00000020F8B5041E66
:1004700000D176E0836B002B69D0A36BDB0605D53A
:1004800010220120A36B1343A363F8BD042023684B
:100490009A681040F4D1A26B47490A400631FF31F7
:1004A0000A43A263032299680A40012A74D01821E2
:1004B000DA688A43A1680A43DA601A6961689200BF
:1004C00092080A431A61DA683C490A40DA60217EE0
:1004D000627E8903D2031143A26AA67E013A551EA9
:1004E000AA411503E2687703114322693943022ABE
:1004F00000D104202422A25C52000A43E17E2A4358
:100500000243012942D0C220E169FF30814202D07A
:10051000206A01430A43D968E56A1143D960802102
:1005200049058D421FD0691E06291CD9DB68244964
:100530000B40934220D01222A36B01209343023A36
:100540001343A363E36B0F3A1343E3639DE7342242
:10055000C363835405F038FBA36BDB0600D58FE73C
:1005600094E7012091E70721586988435861586949
:10057000294001435961D9E700230322E363A36BB8
:1005800000209343023A1343A3637EE7002E0AD16F
:10059000802149020A43B6E719680A4293D1DA6812
:1005A000120490D483E72025A06B2843A063E06B5E
:1005B0000143E163A7E7C046FDFEFFFF1902FEFF0E
:1005C000E7FF3F830023F0B583B001933433C25C6F
:1005D0000400012A44D001222668C06AE254B368AC
:1005E0005B0709D520220120A36B1343A3633423A7
:1005F0000022E25403B0F0BD0B68334D1F00AC463F
:100600004D689A40103F65452CD0B56A2A43B262C6
:100610008022520590420FD0013806280CD90722BB
:10062000886871691140884206D07169914371618F
:10063000716902400A437261022F0FD823490A6888
:10064000102B29D0113B5842434121485B420340C3
:10065000802040048446634413430B600020C6E7B7
:100660000220C7E7B16A9143B162022FF6D8174A58
:100670001168102B0ED0113B1A00531E9A41144BD7
:1006800052421340134A94466344104A0B4013608D
:100690000020ACE7104BF8E780231B041A430F4BF4
:1006A0000A6018680E49FFF72FFD830018184000F4
:1006B0000190019B002BD1D0019B013B0193019B39
:1006C000002BF9D1002092E701100000082701401B
:1006D000000040FFFFFFBFFFFFFF7FFF140000206F
:1006E00040420F00FF22032330B51400C5B22B4057
:1006F000DB009C4089010A40E4439A4000280BDB60
:100700000C4B80089C46C023800060449B00C1586D
:100710000C402243C25030BD0F2307492B408C466A
:10072000083B9B089B006344D9690C402243DA6173
:10073000F1E7C04600E100E000ED00E0002805DB45
:100740001F2318401E3B8340014A13607047C04678
:1007500000E100E070B5041E27D021250223435597
:100760000068134A0368A1681A4063680B43E16894
:100770000B4321690B4361690B43A1690B43E16999
:100780000B43134303600B4B14219C466044FFF75B
:10079000BBFC094B0122E36300238000206400209E
:1007A000A36362551F32A35470BD0120FCE7C0460D
:1007B0000FC0FFFFF8FFFDBF00000240212330B54E
:1007C000C25C022A06D000221D3B83631C33C25444
:1007D000012030BD0E240268056C1168A143116030
:1007E000012114688C4314600C00AC40C26B54604F
:1007F000C15400222023C2540020EAE7212370B50F
:10080000C25C022A03D01D3B8363012070BD0E240D
:100810000268056C1168A1431160012114688C43C2
:1008200014600C00AC40C26B5460C1540022202301
:10083000C254436B002B02D098470020E6E700200B
:10084000E4E7C046F8B504242600036CC56B9E405F
:100850002A6801680F6832420DD03C420BD00B6809
:100860009B0602D40B68A3430B60C36A6E60002B27
:1008700000D09847F8BD022426009E40324214D092
:100880003C4212D00B689B0606D40A220B689343A5
:100890000B602123093AC254202300226E60C25407
:1008A000836A002BE6D09847E4E7082426009E40A0
:1008B0003242DFD03C42DDD00A680634A2430A60EF
:1008C000012211009940212369608263C2540022F1
:1008D000013BC254036B002BCCD09847CAE7C046FB
:1008E0002123C05CC0B27047F0B55746DE464E4685
:1008F0004546E0B50B6885B08A46002B79D0694A39
:1009000000240192684A9C46914601256346A54011
:100910002B40984669D053465A681023170061004F
:100920009F430D3B8B40DB439B4653469E6800979D
:10093000013F8E40012F63D95B46C5681D402E43A1
:10094000C6605B4605682B40032515408D402B4350
:10095000036080235B051A4247D00121019D0F26C9
:10096000AB690B43AB61AB6903250B404F49254095
:100970008B46AD00AE400393039BA3089B005B44F2
:100980009968B1439026F605B04212D0484EB04265
:1009900000D17BE0474EB04200D173E0464EB042FA
:1009A00000D177E0454EB04200D177E00526AE4059
:1009B000314399604B4641461B68CD43D10348D42F
:1009C00049462B400B604968930349D44B46294064
:1009D00059609968D3024AD44B4629409960DB6834
:1009E00092024BD42B404A46D36063460134E34025
:1009F0008BD105B03CBC90469946A246AB46F0BDB3
:100A00005B4687681F405346DB688B401F430123CA
:100A100087604768AF4315091D40A5405B463D43CD
:100A20004560C5681D40009B2E43C660022B00D068
:100A300087E707262640B6000D33B340E508AD0032
:100A400045192F6A9F4353461B69B3401F432F62CA
:100A500077E741460B4349460B6049689303B5D598
:100A6000434619434B4659609968D302B4D543466F
:100A700019434B469960DB689202B3D542461A434C
:100A80001300B0E70226AE40314392E70126AE40A4
:100A900031438EE70326AE4031438AE70426AE4059
:100AA000314386E70010024000040140000001408D
:100AB0000004004800080048000C004800100048EE
:100AC000002A01D1816270478161FCE7426913000D
:100AD0000B401B04914319438161704710B5041EFC
:100AE0004CD04123C35CDBB2002B42D041232422F3
:100AF0000121E2542368A0681A688A431A60616879
:100B00001F4A0A401A619A681E490A409A60E268C0
:100B1000012A29D08421090201439960022A02D1C5
:100B2000802212015A605968174A00200A435A600D
:100B3000DA6814490A40DA60616922690A43A169E6
:100B400009020A43DA60216AE2690A4301211A6054
:100B50001A680A431A60002341221F316364A154BA
:100B600001322363A35410BD80210902014399601F
:100B7000D9E74022835405F073F8B7E70120F2E784
:100B8000FFFFFFF0FF7FFFFF00800002036810B54A
:100B900099691A68436B002B00D0984710BDC04676
:100BA0007047C0467047C046422110B50024026815
:100BB0001368445441395C040BD5136820490B4039
:100BC00013604121435C292B0ED0435C2A2B21D09A
:100BD00010BDDB0B1942F4D013681A490B404121B8
:100BE0001360435C292BF0D12124013B435404635F
:100BF000415C0B40283B591E8B41AF215B428B432C
:100C00001168433B0B40136040230022C254FFF79E
:100C1000C7FFDDE72224023B43540463415C0B40E1
:100C2000283B591E8B41AF215B428B431168453BEA
:100C30000B40136040230022C254FFF7B3FFC7E705
:100C4000FFBFFFFFFF7FFFFF7047C046F8B5FE25DF
:100C50000368C66899699A69C903120C9C68C90F30
:100C60002A40DF68022E0DD1A405A40DE6095640E6
:100C70000622324010D1856C01358564856C022DC9
:100C800016D0F8BDB8251C68AC431C604023002476
:100C9000C454FFF7D9FFF4E7B8241A68A2431A60D6
:100CA00040230022C2542A003A40FFF7CDFFE8E774
:100CB00006358264DD614023C2542200FFF7C4FF81
:100CC000DFE7C0467047C0467047C0467047C04621
:100CD000406A10B5836B002B01D000225A63C36BAE
:100CE000002B01D000225A634123C25C602A06D047
:100CF0000023402203638354FFF7E6FF10BD403A10
:100D0000C2540023203203638354FFF7DFFFF5E76B
:100D1000412270B50400835C422500206055444D9B
:100D2000283BE5626085606C014361642168022BA9
:100D300033D82820A35CA25C0340283B5D1EAB4156
:100D4000AF255B42AB43473B1040282801D0F72337
:100D50005B420A6813400B6028224123E254354B62
:100D60006363A06B236B002804D01A001025113A8E
:100D7000AA4320D0E06B002803D01022123B9343FB
:100D80002ED04123E25C602A48D000234022236316
:100D90002000A354FFF798FF70BDFE20A35CA35C66
:100DA0000B6883430B60A35C602B01D02023A3540A
:100DB00000236363D5E70B685B042AD4FFF790FD3B
:100DC0000128DED0A06B1C4B002243634023E25479
:100DD000FFF714FD0028DFD0A06B436B9847DBE7DB
:100DE0000B681B0403D50B68144A13400B60FFF714
:100DF00077FD0128C5D0E06B0F4B002243634023F1
:100E0000E254FFF7FBFC0028C6D0E06B436B984729
:100E1000C2E70B680A4A13400B60CFE7403AE2543E
:100E20000023203223632000A354FFF74FFFB3E7D2
:100E30000000FFFF05100008D10C0008FF7FFFFF36
:100E4000FFBFFFFFF0B50368040041202026C6461F
:100E50000D001968225C00B5DE61183EB243212AFC
:100E600057D0222A00D17DE0802258681202024326
:100E70005A605A685F4802405A609A69920701D5E1
:100E800000229A6201229869024202D198690243C3
:100E90009A610122480443D51A6857490A401A60EA
:100EA000A26B002A03D01268526892B262856A0768
:100EB0000AD504225B6A9543626A1370636A013340
:100EC0006362238D002B46D1638D002B03D0042257
:100ED000636C1343636400264227E655636C6663C4
:100EE0009846002B45D1E36A444DAB4223D14123C0
:100EF000E25C222A00D172E02022E25443464246BC
:100F0000236340232000E254FFF74AFE04BC9046CE
:100F1000F0BD205C1868F236B04318602263A3E786
:100F2000C90B0A42C3D01A6835490A401A60E26BFD
:100F3000002AB8D1BBE72000FFF736FE412320226C
:100F4000E562E25443464246236340232000E254D4
:100F5000FFF7B8FEDAE7013B2385638D013B9BB2C7
:100F60006385B1E7FC26205C1868B04318602263F3
:100F70007AE7616C2000FFF7CBFE4123E25C282A70
:100F8000C4D11E4AE26220222663E254E655236859
:100F900066636A0713D55B6A626A1370636A01331A
:100FA0006362238D002B09D00422013B2385638DCE
:100FB000013B9BB26385636C1343636423684122E6
:100FC000A15CFE21A25C1A6820008A431A601022EC
:100FD000DA6140230022E254FFF774FE96E7023AFA
:100FE000E25443464246236340232000E254FFF785
:100FF000D9FD8BE700E800FEFFBFFFFF0000FFFF09
:10100000FF7FFFFFF8B516004022835C04000D004F
:10101000C76A012B00D181E0012383544A0913429E
:1010200003D07209134200D064E00123EA0618D508
:101030003209134215D0628D216892B2002A5FD125
:101040004120265C282E00D16EE04123E35C292B51
:1010500000D19DE01023CB61402300220020E25408
:10106000F8BD01236A0710D401232A072BD5F20803
:10107000134228D04033E25C193B1340282B00D1A7
:1010800099E008222368DA61E6E7B2081342EBD060
:10109000638D002B0DD02368626A5B6A1370636AEC
:1010A00001336362238D013B2385638D013B9BB23A
:1010B0006385638D002BCFD1414B9F42CCD0200064
:1010C000FFF772FDC8E70123AA07C5D576083342AA
:1010D000C2D0638D002B23D0636A22681978013354
:1010E00091626362638D013B9BB26385238D013BFB
:1010F0002385B1E7FFF7A6FE0123EA06B1D597E7FE
:1011000010230422CB61636C134363642D4B1F4295
:10111000A2D1616C2000FFF7FBFD9DE702209FE755
:10112000284B1F42CBD097E78026B604B74200D0A9
:101130008BE7234EAD08E662202622632654013059
:10114000225462632B4213D04B6A626A1370636A43
:1011500001336362238D002B09D00422013B2385D8
:10116000638D013B9BB26385636C134363642168A9
:101170004123E25CFE22E35C0B68200093430B609A
:1011800010230022CB613033E254FFF79BFD63E76D
:101190000B4B9F4200D15DE71023CB618B699B070E
:1011A00001D500238B6201238A69134287D18A69A2
:1011B00013438B6183E72000FFF748FD4CE7C046EF
:1011C0000000FFFFFFFFFFFE0122016870B58B6981
:1011D00004005E0A980A1B0A0D68104016401A4265
:1011E00019D0EB091A4256D0636C1A4380235B0076
:1011F0006264CB61002800D173E00822636C134362
:1012000063648023DB00CB61002E4AD10B22636C28
:101210001A4209D170BD00283FD0ED092A42ECD115
:101220000B22636C1A42F5D0002542263632A05CB0
:10123000A5554C4E2838E6626585656C2B43636482
:10124000A35C022835D9FE20A35C0B6883430B60A6
:10125000A35C602B01D02023A35400236363A06B05
:10126000236B002804D01A001025113AAA433BD062
:10127000E06B002803D01022123B93434ED0412351
:10128000E25C602A64D00023402223632000A35440
:10129000FFF71AFDBEE70028B8D1002EB6D02B0606
:1012A000B4D50222636C1343636480239B00CB613B
:1012B000ACE728200340283B5D1EAB41AF255B42D5
:1012C000A25CAB43473B1040282801D0F7235B4288
:1012D0000A6813400B6028224123E254224B6363C7
:1012E000BDE7002EDDD191E70B685B0403D50B68E9
:1012F0001E4A13400B60FFF7F3FA0128BFD0A06B22
:101300001B4B002243634023E254FFF777FA002887
:1013100000D17FE7A06B436B98477BE70B681B040A
:1013200003D50B68134A13400B60FFF7D9FA012865
:10133000A5D0E06B0E4B002243634023E254FFF73D
:101340005DFA002800D165E7E06B436B984761E7E1
:10135000403AE2540023203223632000A354FFF7D5
:10136000B5FC57E70000FFFF05100008FFBFFFFFB7
:10137000D10C0008FF7FFFFFF0B5CE464746412461
:1013800080B5035D0222DBB2202B1CD14026855D97
:10139000012D18D00127223202550268B94615687E
:1013A000BD4315601568A8464746094D2F40176094
:1013B000156829434D461160116829431160035592
:1013C00000230022835510000CBC90469946F0BDC6
:1013D000FFEFFFFFF0B5CE464746412480B5035DE1
:1013E0000222DBB2202B1BD14026855D012D17D0B8
:1013F0000127223202550268B94615680902BD4329
:1014000015601568A8464746084D2F404D4639439C
:101410001160116829431160035500230022835590
:1014200010000CBC90469946F0BDC046FFF0FFFF8F
:10143000F0B5CE46474680B5040083B0002800D101
:10144000F6E00368DA0735D50C21C04842680A4047
:10145000042A00D15EE142681140082900D150E120
:101460006368012B0FD0002B00D17DE1052B00D14B
:10147000EDE1B64BB6491A680A401A601A68B549D8
:101480000A401A6005E08023B04A5B0211680B43F2
:101490001360FEF7D3FF80250700AC4EAD0205E0D8
:1014A000FEF7CCFFC01B642800D94DE133682B4206
:1014B000F6D023689A0744D41A0717D5E369A34DD9
:1014C000002B00D1D3E001226B6A022613436B622A
:1014D000FEF7B4FF070005E0FEF7B0FFC01B0228CF
:1014E00000D931E16B6A1E42F6D023685A0771D5E4
:1014F0008022964B5205D9690025114207D1D9693E
:1015000001351143D961DB691A400192019B8026A4
:10151000914F76003B68334200D105E1A368012B6F
:101520003AD0002B00D138E1052B00D1D3E10121C5
:10153000864B1A6A8A431A621A6A03318A431A620C
:101540002EE00C2281494868024200D17FE04868C1
:101550000240082A00D171E0E368002B00D136E197
:1015600001227A4F02253B6813433B60FEF766FF7A
:10157000060005E0FEF762FF801B022800D9E3E0C9
:101580003B681D42F6D0F8213A6823698A43DB00A4
:1015900013433B6023688FE76C490A6A13430B626D
:1015A000FEF74CFF6D4B8146684F0226984606E0D9
:1015B000FEF744FF4B46C01A404500D9C4E03B6AE1
:1015C0001E42F5D0012D04D1604A6549D3690B4014
:1015D000D3612368DA0612D56269012A00D19FE13E
:1015E000053200D007E10420F82558494A6B8243B0
:1015F0004A63486BA269A843D20002434A639B0630
:101600005ED50C2251494B6813400C2B09D04B6816
:101610001A40082A3ED1C0224B685202134093421E
:1016200038D14A4B5B6BDB034AD5236A012B47D089
:10163000012003B00CBC90469946F0BD4A68C02119
:1016400049020A40802109028A4200D084E73F4AC9
:101650001268920702D5E268012AE9D1F8253B48D1
:1016600022690168D200A9430A43026024E70122EB
:101670006B6A022693436B62FEF7E0FE070004E00C
:10168000FEF7DCFEC01B02285ED86B6A1E42F7D153
:1016900023682BE7236A2D4D002B00D1C3E0802661
:1016A0006B6B760233436B63FEF7C8FE070004E002
:1016B000FEF7C4FEC01B022846D86B6B3342F7D03E
:1016C000636A002B1BD00C22204D69680A40082A4F
:1016D00000D10AE1022B00D1C5E02B68214A802409
:1016E00013402B60FEF7AAFEA404060004E0FEF7F8
:1016F000A5FE801B022827D82B682342F7D10020A3
:1017000097E7C021426849020A40802149028A4283
:1017100000D0A5E60D4A1268920300D4CAE66268BA
:10172000002A00D0C6E683E73B6833433B60FEF700
:1017300085FE80463B68334200D0EFE6FEF77EFE32
:101740004346C01A6428F5D9032072E7001002400E
:10175000FFFFFEFFFFFFFBFF00700040881300004B
:10176000FFFFFFEFFFFFFFFE7D4D7E4A2B688026C7
:1017700013402B602B687C4AB60213402B60FEF7A7
:101780005DFE070004E0FEF759FEC01B6428DBD8AD
:101790002B683342F7D123688CE60122704E022772
:1017A000336A93433362336A033293433362FEF7FF
:1017B00045FE6E4B8146984605E0FEF73FFE4B46E0
:1017C000C01A4045C0D8336A1F42F6D1FAE601225A
:1017D000634D02262B6893432B60FEF72FFE070014
:1017E00004E0FEF72BFEC01B0228ADD82B681E427A
:1017F000F7D1236860E60422594D02266B6B134330
:101800006B636B6B033A93436B63FEF717FE070042
:1018100004E0FEF713FEC01B022895D86B6B1E4236
:10182000F7D12368EBE66B6B4E4A802613406B635F
:10183000FEF704FE7602070005E0FEF7FFFDC01B81
:10184000022800D980E76B6B3342F6D138E780225B
:10185000434BD20219680A431A6080221968520267
:101860000A431A6015E62B68414A802613402B6014
:10187000FEF7E4FDB604070005E0FEF7DFFDC01B40
:10188000022800D960E72B683342F6D10F22EB6AB9
:101890009343226B1343EB62A16AE36A6A680B43CA
:1018A000344980240A4013436B6080232A685B0418
:1018B00013432B60FEF7C2FD294D0600A40405E08A
:1018C000FEF7BCFD801B022800D93DE72B682342B0
:1018D000F6D00020ADE60421214B1A6A0A431A62B1
:1018E0001A6A03390A431A625AE6012B00D19FE6AD
:1018F000C0226B68A06A5202E96A1A40824200D094
:1019000096E60F220A40216B8A4200D090E6F02032
:1019100080030340E06A181A431E9841C0B288E66B
:1019200004210F4D02266B6B0B436B636B6B1A43E9
:101930006A63FEF783FD070005E0FEF77FFDC01B2D
:10194000022800D900E76B6B1E42F6D0F8216A6BC3
:10195000A3698A43DB0013436B6323684FE6C046E9
:1019600000100240FFFFFEFFFFFFFBFF8813000097
:10197000FFFFFFFEFF7FC2FFF0B5CE46474680B5B2
:10198000040089B00D0000280DD001235B490A68CE
:101990001A40AA420DD20A689A432A430A600A688A
:1019A0001340AB4205D0012009B00CBC90469946CB
:1019B000F0BD23689A070ED55A0705D5E022504995
:1019C000D200486802434A60F0204D494A68824389
:1019D000A06802434A60DB0724D56368484A012BAC
:1019E00062D0022B7BD0032B00D181E012689207DA
:1019F000D9D50321424E0C2772688A431343736082
:101A0000FEF71CFD3F4B8146984605E0FEF716FDAC
:101A10004B46C01A404560D8726863683A409B00E4
:101A20009A42F3D10121354A13680B40AB4205D9E4
:101A300013688B43136013681942B4D123685B07A2
:101A400006D52F4A304953680B40E1680B43536079
:101A500069462E4B0A00180070C870C20068103327
:101A6000106004AA100070CB70C01B68244D036086
:101A70000C206B68184008281AD00C384342584193
:101A8000234B40421840234B9C4660441C4B224A47
:101A90005B681B061B0FD35CD840204B18600020EE
:101AA00004F020FA00207FE712689203A1D47AE7BD
:101AB0000F209C0C04400C5DE96A0840115CC022B8
:101AC0008020520213404002834201D093420AD048
:101AD0001048FEF719FB6043D8E7032064E712685B
:101AE000920186D45FE70E48FEF70EFB6043CDE718
:101AF000526BD20300D57CE755E7C0460020024078
:101B00000010024088130000FFF8FFFF446B00083C
:101B1000005A620200127A000C6F000814000020C4
:101B2000006CDC0270B588B069461C4B0A001800D6
:101B300070C870C200681033106004AA100070CB27
:101B400070C01B68164D03600C206B681840082895
:101B50000AD00C3843425841124B40421840124BB5
:101B60009C46604408B070BD0F209C0C04400C5D86
:101B7000E96A0840115CC0228020520213404002F2
:101B8000834201D0934204D00748FEF7BDFA604378
:101B9000E8E70648FEF7B8FA6043E3E7446B00085D
:101BA00000100240005A620200127A00006CDC024F
:101BB000044B054A5B685B055B0FD35C034A106806
:101BC000D8407047001002401C6F0008140000202D
:101BD0000723032203600A4B10B55C682240426071
:101BE000F0225C6822408260E0225B68D2001340F1
:101BF000C360044B1A68012313400B6010BDC0463C
:101C00000010024000200240F0B5CE46474680B5A5
:101C1000036883B00400DA0336D58022494B5205AD
:101C2000D9690027114207D1D96901371143D96118
:101C3000DB691A400192019B8026434D76002B6898
:101C4000334254D0C0213F4D89002A6A60680A405F
:101C500011D0014091420ED08022296A2E6A520290
:101C600032432A622A6A394B394E0B4032402A628B
:101C70002B62CB0754D4334A3449136A0B400343D5
:101C80001362012F44D02368DA0706D503202D49BB
:101C90000A6B8243A06802430A639A0706D5294962
:101CA0002C480A6B0240E06802430A639A0606D594
:101CB000102024490A6B8243206902430A639A0375
:101CC00006D580201F490A6B8243A06902430A633C
:101CD00000205B0506D540211A4A136B8B436169CE
:101CE0000B43136303B00CBC90469946F0BD2B68C0
:101CF00033432B60FEF7A2FB804605E0FEF79EFB18
:101D00004346C01A642809D82B683342F6D099E7B5
:101D1000D36911490B40D3612368B5E70320E1E79C
:101D2000FEF78CFB0D4B80460226994605E0FEF738
:101D300085FB4346C01A4845F0D82B6A1E42F6D0B0
:101D4000606898E70010024000700040FFFCFFFF51
:101D5000FFFFFEFFFFFFFCFFFFFFFFEF8813000008
:101D6000F0B5D6464F4646460400C0B5002800D11F
:101D700085E0456A002D65D000230361436100239F
:101D8000A3625D33E35CDBB2002B68D05D230222EB
:101D90004021E2542268E06813688B431360E0231B
:101DA000DB00984262D9F0231B01984200D071E019
:101DB0008023A16A9B01194000238C469A46822306
:101DC00066685B0033408426A76836023E40334392
:101DD00002262769A1693E40334301266769B1465F
:101DE00037403B438027BF000F403B433827E6691D
:101DF000090C374080263B433700266A3740664649
:101E00003B43334313600823666B57463340F02649
:101E10003601304018430423194001431020054087
:101E20000D432F435760D3691C4900200B40D361F9
:101E300000234A4623665D33E2541CBC9046994613
:101E4000A246F0BD822342685B009A4297D00023ED
:101E5000C561A3625D33E35CDBB2002B96D15C22EB
:101E60002000A35403F03AFF656A8FE7984208D038
:101E700080235B019A460023A3629C469FE70120D2
:101E8000DBE78023A16A9B01194080235B018C461C
:101E90009A4694E700239A46EDE7C046FFF7FFFF16
:101EA00070B5041E5CD03D23C35CDBB2002B24D094
:101EB0003D230222354EE2542268A5691368E0688A
:101EC0006168B2424ED08026F605B2421AD0304E3A
:101ED000B24217D02F4EB24253D02F4EB24245D00D
:101EE0002E4EB24242D02E4EB2423FD08026B34355
:101EF0002B431360D06291621AE03C22835403F0BA
:101F000021FFD5E77026B343A6683343254E3340FF
:101F1000266933438026B3432B4313601F4BD062A3
:101F200091629A4202D01E4B9A4201D163691363B7
:101F30000123536146220020A354083AA3540132DE
:101F4000A3540132A3540132A3540132A3540132E9
:101F5000A3540132A3540132A354083AA35470BDD0
:101F60000120FCE77026B343A66833430D4E33408F
:101F7000266933438026B3432B431360D0629162BA
:101F8000D4E7084E334026693343AFE7002C0140C5
:101F90000004004000200040004001400044014097
:101FA00000480140FFFCFFFF3D23C15C01220129E5
:101FB00001D0100070470131C1540368D968114342
:101FC000D9600F498B420ED08021C9058B420AD0BF
:101FD0000C498B4207D00C498B4204D0186802434D
:101FE0001A600022E5E7072299680A40062A05D010
:101FF00001211A680A431A600022DAE70022D8E7B2
:10200000002C014000040040004001403C2370B51A
:10201000C25C012A58D001240222C4540133C254A4
:1020200003684B4D9A682A409A600A68402A00D19A
:1020300074E04BD9602A2ED057D9702A1BD0802447
:10204000A401A2420FD19A68424C4D6814408A689C
:10205000C9682A4309020A4322439A608022996888
:10206000D2010A439A603D230122C2540022013B5F
:10207000C254002070BD9A68364C4D6814408A687E
:10208000C9682A4309020A43772122439A609A6861
:102090000A439A60E7E710251C6A4A68AC43C9689E
:1020A0001C629D692C4E090335402943A0251C6AFA
:1020B00099617021AC43120122431A629A688A43E3
:1020C00009390A439A60CEE70220D3E7102A04D0E8
:1020D0003BD9202A01D0302AC5D170249968A14368
:1020E000693C22430A439A60BDE7502ABBD14D6840
:1020F000CA68196A1E6A1201A6431E62F0269C690C
:10210000B44322430A24A14329439A6119627021EE
:102110009A688A4319390A439A60A4E74D68CA68E5
:10212000196A1E6A1201A6431E62F0269C69B44316
:1021300022430A24A14329439A61196270219A68B3
:102140008A4329390A439A608DE7002AC5D08AE775
:102150008800FFFFFF00FFFFFF0FFFFF7047C04633
:102160007047C0467047C0467047C04602220368A9
:1021700010B5196904000A4202D0D9680A4265D133
:10218000042219690A4202D0D9680A424BD10822B6
:1021900019690A4202D0D9680A4233D1102219695A
:1021A0000A4202D0D9680A421CD1012219690A42A6
:1021B00002D0D9680A425CD1802219690A4202D051
:1021C000D9680A425CD1402219690A4202D0D96812
:1021D0000A425DD1202219690A4202D0D9680A4216
:1021E00041D110BD213A1A6119322277DA69C02330
:1021F0009B0020001A425ED0FFF7B2FF0023237736
:102200002368D2E7113A1A61DB690D322277200088
:102210009B074DD1FFF7A2FF2000FFF7A3FF00238C
:1022200023772368BAE7093A1A61073222779A6955
:10223000C0239B0020001A4237D1FFF78FFF2000F8
:10224000FFF790FF002323772368A0E7053A1A6180
:102250009B69043202779B0721D0FFF781FF00239F
:10226000237723688CE7413A1A61200000F05EF87A
:10227000B7E7033A1A61200003F074F923689BE77B
:10228000023AFF3A1A61200000F052F823689AE7F8
:10229000813A1A612000FFF767FF23689AE7FFF78A
:1022A0005DFF2000FFF75EFFD9E7FFF759FFC9E7A1
:1022B000FFF756FFB3E7FFF751FF2000FFF752FF8C
:1022C0009CE7C0463C2330B5C25C012A26D00122DF
:1022D0007025C25401330132C25403685A689C68A5
:1022E000AA430D682A435A600D4A934209D08022BE
:1022F000D205934205D00B4A934202D00A4A934238
:1023000004D1802294434A6814439C603D230122F7
:10231000C2540022013BC254002030BD0220FCE721
:10232000002C014000040040004001407047C046BE
:102330007047C046836F10B5212B00D010BD5221CD
:10234000425A0368002A0BD0C46C22880234D2059A
:10235000D20D1A85C464435A013B9BB24352EDE748
:102360001A682E318A431A601A6840390A431A6083
:10237000E4E7C046836F10B5212B00D010BD522278
:10238000815A0368002909D0C16C0C7801311C8581
:10239000C164835A013B9BB28352EFE71A688031D4
:1023A0008A431A601A6840390A431A60E6E7C04651
:1023B000F8B557464E464546DE46E0B51E00836FEB
:1023C00005000F0014000220202B51D1002955D008
:1023D0000138002A4CD08023AA685B019A424FD072
:1023E0007423EA5C012A00D1A9E00122EA54002208
:1023F0000C33EA505F3BAB67FEF720F85023002216
:10240000EC520233EC5280239346AA6882465B0169
:102410009A4200D1A6E074230022EA54223BEB5AF0
:102420002A68002B15D0802480231B019946731C39
:102430002CD1D3691C42FCD0002F50D03B780137FF
:10244000138552216B5A013B9BB26B526B5A002B86
:10245000EAD10423984680231B0140279946731C28
:1024600046D14021D3691942FCD020230020AB671C
:102470003CBC90469946A246AB46F8BD0120F7E722
:102480002B69002BACD10142AAD0F1E7D3692340DC
:102490009846D1D1FDF7D2FF53462A68C01A86422A
:1024A0004FD3002E4DD0042113681942BFD04946A6
:1024B000D3690B42BBD0116213682E4903200B4035
:1024C00013609368A331FF318B43936020238022F4
:1024D000AB67EB67AB5042465433EA54C8E75B4600
:1024E0001B88DB05DB0D138502239C46E344A8E72C
:1024F000D4693C40B9D1FDF7A1FF53462A68C01A00
:1025000086421ED3002E1CD0414613681942A6D025
:102510004946D3690B42A2D01162136815490320C2
:102520000B4013609368A331FF318B4393602023EA
:102530008022AB67EB67AB505433EC5498E7022032
:1025400096E713680B4903200B4013609368A3318F
:10255000FF318B43936020230022AB67EB6754333A
:10256000EA5485E72B69002B00D054E7BB460027CF
:1025700051E7C0465FFEFFFF30B5846F03000220C5
:10258000202C22D1002921D00138002A1DD08024FE
:102590009D686401A5421BD07420185C01282CD0D2
:1025A000D96450215A5202315A5280220021995046
:1025B0005F3A9A67124A9A66002174220020995461
:1025C0001A68803113680B43136030BD0120FCE7AB
:1025D0001C69002CE0D104000C40F6D17420185C7A
:1025E00001280AD0D96450215A5202315A5280220D
:1025F0009C505F3A9A67034ADDE70220E5E7C04650
:10260000752300083523000870B5C46F030002204D
:10261000202C49D1002948D00138002A44D08025F7
:102620009C686D01AC4242D074201D5C012D00D12C
:102630006BE001251D5400201866186845682D02BE
:1026400004D580250668ED04354305605965582199
:102650005A5202315A52002280215A6649018C4254
:102660002BD0002C06D11A69002A43D1FF215C32FD
:10267000995205E0802149058C423FD05C215A5295
:102680008022002199505E3ADA67826801310A435C
:1026900082601F4A5A66002174229954902302686E
:1026A0005B0013430360002070BD0120FCE71D693F
:1026B000002DB9D10142B7D0F6E7196900290CD134
:1026C0005C22144C9C522432995001215E3ADA6704
:1026D00082680A438260104ADCE75C21FF245C5276
:1026E00024315A502222DA6782687F390A43826095
:1026F000074ACFE75C227F219952C1E71A69002A75
:10270000F8D05C223F219952BAE70220CCE7C046BC
:10271000C1290008FF010000392A00087047C0469F
:102720007047C0467047C04600235A2210B5406A21
:102730008352083A8352FFF7F5FF10BD7047C04639
:10274000F8B5CE46474603680400DA699748196829
:1027500080B59D68024200D171E00120284000D17F
:1027600078E00125154206D0CE0504D580271D62EC
:10277000E6593543E5510225154200D1CFE0002846
:1027800008D0802704261D62E5593543E5511642DD
:1027900000D0CAE0150705D58D0600D5CDE000288C
:1027A00000D0CAE080200001024207D04D0105D5CB
:1027B00080252026186260593043605180202058BF
:1027C000002838D02020104202D0084200D0BFE0BC
:1027D000802561599A68520603D428260E4000D1FC
:1027E000BEE01A6872490A401A609A682331FF31C4
:1027F0008A439A60226E012A03D11A680F318A43F4
:102800001A602022E26700224021226662669A68EE
:10281000114200D198E09A68206F8A439A6000289C
:1028200000D191E0634B4363FDF7E8FF002802D03D
:10283000206F436B98470CBC90469946F8BD20200A
:1028400010420BD0084209D0636E002BF3D0200059
:102850009847F0E7584E314200D082E7266E012EAD
:1028600023D080204003024208D1802010420CD0A7
:1028700008420AD0A36E002BE9D1DCE76D02F4D543
:102880001862200000F0F6FAD5E740201042D2D0BE
:102890000842D0D01A6882431A602023A36700231D
:1028A0002000A366FFF73AFFC5E710271742D8D0EC
:1028B0000F42D6D040211F629A680A4055D0206F3F
:1028C0000268526892B2002AB5D05825A846655BC6
:1028D000A9469542AFD95A2562538269202A15D05C
:1028E0001A68364D2A401A609A68B2439A609A680C
:1028F0008A439A602022E267002222661A68BA435D
:102900001A60FDF75BFF4346E35A99465A23E15AA2
:102910004B46591A89B22000FFF710FF8BE7550785
:1029200000D437E7002800D134E7042580260227A9
:102930001D62A5593D43A5512CE7082680251E623E
:102940006059304360512DE72000FFF7EBFE72E73E
:10295000626E002A00D13BE720009047236837E7EA
:102960002000FFF7DFFE665165E75A20215A205A02
:1029700089B2002800D15EE75820205A411A89B256
:10298000002900D157E71868094D28401860986859
:10299000B04398602020E067226662661A682000D3
:1029A000BA431A60FFF7CAFE45E7C0460F080000A9
:1029B000DFFEFFFF2927000820010004FFFEFFFFC4
:1029C000C36F10B502680400222B04D0082193695C
:1029D0000B43936110BD908C3A33E35A80B2626D21
:1029E0000340137002F0A0FB5A23E35A9BB2002B62
:1029F000F0D122680F4811680140116091682330BE
:102A0000FF30814391602021E1676366236E012BD3
:102A100005D02000FFF784FE00232366DAE7136861
:102A200010398B43136058232000E15AFFF786FECC
:102A3000F2E7C046DFFEFFFFC26F10B50368040077
:102A4000222A04D008219A690A439A6110BD5C21A8
:102A5000988C615A626D014011805A210232626580
:102A6000625A013A92B26252625A92B2002AEDD18F
:102A700019680F480140196099682330FF3081437D
:102A800099602021E1676266226E012A05D020004C
:102A9000FFF746FE00232366D8E71A6810398A43F9
:102AA0001A6058232000E15AFFF748FEF2E7C046BB
:102AB000DFFEFFFF436A30B5DA0706D50168284C10
:102AC0004A682240846A22434A609A0706D5016810
:102AD000244C4A682240C46A22434A605A0706D5F9
:102AE0000168214C4A682240046B22434A601A075D
:102AF00006D501681D4C4A682240446B22434A6057
:102B0000DA0606D501681A4C8A682240846B224393
:102B10008A609A0606D50168164C8A682240C46B02
:102B200022438A605A060AD50168134D4A68046C2C
:102B30002A4022434A6080225203944209D01B0655
:102B400006D502680D4953680B40816C0B435360F6
:102B500030BD4A680A4C2240446C22434A60EEE78A
:102B6000FFFFFDFFFFFFFEFFFFFFFBFFFF7FFFFFFC
:102B7000FFEFFFFFFFDFFFFFFFFFEFFFFFFFF7FFAD
:102B8000FFFF9FFFF8B5CE464746040080B50028FA
:102B900000D182E0836F002B35D024230121A3676D
:102BA000236820691A68E5698A431A60A26819686F
:102BB0000243606902439F482A4301400A431A6066
:102BC0005A689D49206A0A40E1680A435A60A2692E
:102BD00099680243994801400A439A60984A93428F
:102BE0005DD0984A934200D16DE0974A934211D04C
:102BF000964A93420ED0002301206366A3660CBC64
:102C000090469946F8BD7422835403F0BBF8C4E79C
:102C1000002AF0D180231B029D4200D1F4E0FEF790
:102C2000C7FF002800D1B7E0636861685B08181827
:102C3000FDF76AFA0004000C0200854B103A9A4234
:102C4000D9D82368D86000236366A366636A002B23
:102C500000D084E023687F495A680A402A215A60DC
:102C60009A688A439A601A6829390A431A6080234D
:102C70000022E250FDF7E2FB236806001A68120703
:102C800042D41A6852076ED420237422A367E367E4
:102C9000002300202366A354B1E70120AFE76E4B69
:102CA00080201A6B032313406C4A0002D35C8542D8
:102CB00000D184E0022B1DD000D8B7E0042B20D037
:102CC000082BB1D097E7644BC0211A6B802389028F
:102CD0000A405B029A420FD09AD980208002824239
:102CE00000D197E08A4200D085E780231B029D42F5
:102CF00000D196E05A4897E780231B029D4200D1FD
:102D000091E0FEF70FFF8CE7564A80279046042299
:102D10009146BF03DD693D40B3D1FDF78FFB2368CA
:102D2000801B1A6840453BD849461142F2D08022A8
:102D3000D96912011142EDD01A621A684A4903207A
:102D40000A401A609A68A331FF318A439A602023AF
:102D50008022A367E367A3505433E5544FE7200074
:102D6000FFF7A8FE76E73F4A802790460422914667
:102D7000FF03DD693D4087D1FDF760FB2368801BC1
:102D80001A6840450CD849461142F2D08022D969D0
:102D900012011142EDD0CFE700236366A36655E729
:102DA000314903200A401A609A68A331FF318A43EF
:102DB0009A602023A367E3675433E5541FE7022B8F
:102DC0002FD01ED9042B2ED080204002082B00D0FB
:102DD00011E7636861685B081818FDF795F903044B
:102DE0001A0C1B49103A8A4200D904E71F4A1B03F8
:102DF00010405B0F184300232268D0606366A3660F
:102E000024E7002B00D0F6E6FEF7D2FE0028C3D060
:102E10004000DEE780200002854200D004E7180071
:102E2000D7E71348D5E7FEF77DFEEFE7002B00D08C
:102E3000E1E6F4E6F369FFEFFFCFFFFFFFF4FFFFEA
:102E4000003801400044004000480040004C004071
:102E5000EFFF0000FFB7FFFF00100240646B0008A7
:102E600000127A00FFFFFF015FFEFFFFF0FF00008E
:102E70000024F4007047C04610B504000120002C67
:102E80000ED0200003F00EF880230020E1682268B5
:102E90000B431360616823690B43A1680B435360C4
:102EA00010BDC0460368C26800201A607047C04663
:102EB0007047C046036810B55A68920502D59A68F3
:102EC000D20700D410BD022252429A60FFF7F0FFF1
:102ED000F8E7C046014B18687047C046B4020020AE
:102EE000F0B5C646402317000122654C00B5884660
:102EF000E2540600FDF7A2FA8021226809029369D4
:102F00000B40FCD141212120605401311138605423
:102F1000414661620221BFB2636467856185636374
:102F20005848638D51689BB2084057492385DBB2EE
:102F30000143B6051B040B43B60D33435360FDF745
:102F40007DFA638D002B15D00125FDF777FA2168F6
:102F50008B691D42FCD0636A5A1C62621B788B62CB
:102F6000638D013B9BB26385238D013B2385638D7C
:102F7000002BEAD1FDF762FA012122689369194218
:102F8000FCD041232221E15401331239E1540023C2
:102F90004146636467856363638D6162FF2B51D92A
:102FA000FF233849238553681940384B0B4333437B
:102FB0005360344B042580279846638D002B2CD01A
:102FC000FDF73CFA226893691D42FCD0636A526A9D
:102FD000591C61621A70238D628D013B013A9BB2CC
:102FE00092B223856285002BE7D1638D002BE4D05C
:102FF000FDF724FA226893691F42FCD0638DFF2BF2
:103000002ED9FF232385434651681940204B0B439B
:1030100033435360638D002BD2D120212268936902
:103020001942FCD0D16153681A48034053604123D0
:103030004222E1540023A354023A0020A35404BCCA
:103040009046F0BD638D0F4851689BB2084012490D
:103050002385DBB201431B040B4333435360A8E7D2
:103060004146638D50689BB20840802123858904C6
:10307000DBB201431B040B43334353609DE7C0465F
:10308000F80A0020009800FC002000820024FF8144
:103090000000FF0100E800FE00240082F0B54F466A
:1030A000D6464646C0B5934F3B78072B00D9CEE0B5
:1030B000914A9B00D3589F460223904C23701D33A6
:1030C00063708F4B994640234A46D35C0222904658
:1030D000012B06D0013221007020FFF701FF237879
:1030E0009846884E09228849300003F027F8874D1A
:1030F00010230A222900404602F0A0FA844B29003E
:103100009A465246A3783000136003F052F830001C
:10311000FDF770F97F4B022219003018984603F032
:103120000DF810230A222900607802F087FA52462F
:1031300012686378944652461B02634429003000AB
:10314000136003F036F83000FDF754F902224146CF
:10315000301802F0F3FF10230A222900A07802F0B1
:103160006DFA52461268A378944652461B04634493
:1031700029003000136003F01CF83000FDF73AF925
:1031800002223018414602F0D9FF02234A4623703A
:10319000213363701D33D35C02229146012B06D08C
:1031A000013221007020FFF79BFE237899460B2205
:1031B0005949300002F0C2FF10230A222900484674
:1031C00002F03CFA2900300002F0F3FF3000FDF776
:1031D00011F902224146301802F0B0FF10230A22F2
:1031E0006078290002F02AFA2900300002F0E1FF9D
:1031F0003000FDF7FFF802224146301802F09EFF32
:1032000010230A22A078290002F018FA29003000C1
:1032100002F0CFFF3000FDF7EDF8022241463018F2
:1032200002F08CFF3D4800F0F3F9300000F0F0F9B7
:103230003B4C200000F0ECF93A4800F0E9F930008E
:1032400000F0E6F9200000F0E3F904233B701CBC19
:1032500090469946A246F0BD334800F0D9F90323C1
:103260003B70F4E702233B70F1E7264C09222F491B
:10327000200002F063FF2E4800F0CAF9234D1F4BD7
:103280000A22290098461878102302F0D7F9294815
:1032900000F0BEF9280000F0BBF9214E300000F02C
:1032A000B7F92900200002F084FF2000FDF7A2F802
:1032B00002221849001902F041FF43460A22290060
:1032C0005878102302F0BAF91B4800F0A1F9280041
:1032D00000F09EF9300000F09BF92900200002F078
:1032E00068FF200000F094F9300000F091F903230A
:1032F0003B70ACE708000020686B0008C0020020AB
:10330000F80A002008030020546F0008CC020020B7
:103310000403002004710008606F00086C6F00084F
:1033200080750008746F0008B86F0008246F0008EB
:10333000306F00083C6F0008486F00080223684C9B
:10334000022723701A336370664B994640234A461E
:10335000D35C012B05D0032221007020FFF7C0FDB4
:103360002778614E0A226149300002F0E7FE604D85
:103370000A2210232900380002F060F95D4FA3787B
:10338000290030003B6002F014FF3000FDF732F8F6
:10339000594B022219008019984602F0CFFE1023E3
:1033A0000A222900607802F049F93A686378944665
:1033B0001B026344290030003B6002F0FAFE30003B
:1033C000FDF718F802224146801902F0B7FE1023DB
:1033D0000A222900A07802F031F93A68237894464D
:1033E0001B046344290030003B6002F0E2FE300021
:1033F000FDF700F8414F03228019390002F09EFECC
:1034000002234A462370193363702533D35C0222AA
:103410009146012B06D0013221007020FFF760FD9C
:1034200023789946364E0A223649300002F086FE4D
:1034300010230A222900484602F000F92900300032
:1034400002F0B7FE3000FCF7D5FF4146801902229A
:1034500002F074FE10230A222900607802F0EEF8D0
:103460002900300002F0A5FE3000FCF7C3FF414602
:103470008019022202F062FE6378A07822781B0293
:103480001B1812049B18204A2900136010230A22DB
:1034900002F0D4F82900300002F08BFE3000FCF777
:1034A000A9FF03228019390002F048FECFE602236B
:1034B0000B490C4A0B7019334B702533D35C012B2D
:1034C00003D003227020FFF70BFD104800F0A0F896
:1034D000BDE60F4800F09CF803233B70B7E6C046FA
:1034E000C0020020F80A002008030020806F0008B6
:1034F000CC0200200403002004710008807500083D
:10350000E00200208C6F0008F4020020986F000891
:10351000A86F000810B5034C03492068FCF77EFE35
:10352000206010BD0403002030750000962210B505
:10353000054CD20023680020934203DD06211800C9
:10354000FCF76CFE206010BDF4020020F8B5234E9D
:1035500005230A2222493000FEF72AFF214CA0232E
:10356000B42220005B00E2501F49AF3A1E3002F047
:10357000E5FD20001D4907220E3002F0DFFD22008C
:103580001B4B1C4F23CB23C2002519883800118008
:103590009B7819499370194B14221D609D80FFF789
:1035A00033F890233A685B00116830000B43144EE7
:1035B000136014493222FFF727F830000122082156
:1035C000FDF77EFA104B300001220821DD61A5676E
:1035D000FDF776FA0D4B1D60F8BDC046440B002088
:1035E0001870000870080020247000083A70000865
:1035F00044700008240C0020CC02002004020020AB
:103600000004004810050020340300204406002078
:1036100010B50400FCF7EEFE052382B2210002483B
:10362000FEF7C6FE10BDC046440B002070B51D4C11
:1036300088B011221C49200002F080FD1B4D1C495E
:103640002A00684602F08CFD6946200002F0B1FDB8
:103650002A0018491E32684602F082FD2000FCF75D
:10366000C9FE6946001902F09BFD05221249061B9E
:1036700002F064FD2900701D9439001902F090FDDC
:103680003A232900037001257639013002F088FDC4
:103690002A1B82182100094802F050FD084B5D6288
:1036A00008B070BDA4050020D470000804090020F3
:1036B000E8700008F4700008007100087004002031
:1036C00034030020F0B5C64600B5584F8EB0052330
:1036D000102257493800FEF76BFE01A8FFF7FAFBEE
:1036E000544C0C225449200002F028FD01AA5349F1
:1036F00004A802F035FD04A9200002F068FD504D39
:1037000050492A0004A802F02BFD2000FCF772FEAD
:1037100004A9201802F044FDEB6A012B00D17FE0E0
:103720002000FCF767FE9423474D5B00EB58201800
:10373000012B6BD00E22454902F000FD2000FCF762
:1037400059FE90235B00EB582018012B63D0142204
:103750003F4902F0F3FC3F4D3F492A0004A802F024
:10376000FFFC04A9200002F024FD2A003B495A3A3C
:1037700004A802F0F5FC04A9200002F01AFD2A00BA
:1037800037493C3A04A802F0EBFC04A9200002F0FF
:1037900010FD2023334A344904A8137002F0E0FCE2
:1037A0002000FCF727FE04A9201802F0F9FC0522EE
:1037B0002E49061B02F0C2FC2900701DEE392018AC
:1037C00002F0EEFC3A2329000370D039013002F0F8
:1037D000E7FC0126264B05009846321B8218210083
:1037E00018002C1B02F0AAFCA2B2414605233800A7
:1037F000FEF7DEFD052302221E493800FEF7D8FD44
:103800001D4B5E620EB004BC9046F0BD0D221B49FC
:1038100002F094FC92E71022194902F08FFC9AE71B
:103820001522184902F08AFC7AE7C046440B0020B2
:1038300054710008A4050020687100087471000824
:10384000740900207C71000870080020B471000821
:10385000D47100085E090020E8710008E8700008D3
:10386000F470000878070020F87100080071000863
:10387000700400208075000834030020A471000843
:10388000C47100088C71000870B586B0FFF742FE65
:10389000284B01A918680A220A2301F0CFFE264C02
:1038A000264B220003CB03C220001B88244913802F
:1038B0000A30062202F042FC20002249103002F0B9
:1038C0006FFC0A23051B037008221F49013002F018
:1038D00035FC2800093001A9001902F061FC1B4EDB
:1038E0000222310002F02AFCFFF720FE184B01A94A
:1038F0000A2218680A2301F0A1FE2000FCF77AFDD5
:10390000050008220019134902F018FC28000830AD
:1039100001A9001902F044FC051B31000222013507
:1039200002F00CFCAAB2052321000B48FEF740FD73
:1039300006B070BD480600207004002054720008D4
:10394000607200089408002048710008B4760008EE
:103950000C0A002068720008440B0020F0B5DE4617
:1039600057464E464546E0B5A1B0FFF7D3FD9E4C05
:103970009E4E0A2221000A2306AD306001F05EFE51
:103980002800FCF737FD2C232B5401302100281888
:1039900002F01DFCFFF7CAFD954B964C9A46186045
:1039A000A36F012B15D0012208219348FDF788F859
:1039B00080219248C901FDF789F8FFF7ABFDFFF7B9
:1039C000B5FD8F4F3B78202B42D88E4A9B00D358B1
:1039D0009F46002208218848FDF772F8E8E7002397
:1039E0003B700133984642467F33E25013AB02AA44
:1039F00094469B465623222263441A805A46824BA1
:103A000043CB43C255201968604411601B792100E3
:103A1000137102F0C5FB5B46C31A994602227B492B
:103A200002F08CFB4B462100981C1E31584402F0DA
:103A3000B7FB5B460322C31A7549994602F07EFB29
:103A4000A36F9A46002B01D100F03BFC16233B707C
:103A5000704B714E9846714B9946714A1368013309
:103A60001360132B03DD4B465B68012B58D03B786A
:103A70009E22520092465146A258280001326250BE
:103A8000B1680291494609680191494689680091E7
:103A9000644902F065FB2800FCF7ACFC052382B208
:103AA00029004046FEF784FCA02253465200E3580A
:103AB000A25893420ADB3A78002A07D14A46926814
:103AC000002A03D149460968012934D0B0225200A6
:103AD000A2583B2A3DDC544A5449106888420ADD0A
:103AE0003978002907D1A16F002904D14946096816
:103AF000012900D197E31D2B05DD4B461B68002BE8
:103B000001D10A33B360F368012B02D1B3680133EA
:103B1000B36021B03CBC90469946A246AB46F0BD8E
:103B2000002343491360404605330522FEF740FC5D
:103B30000E233B709CE75346E2504B46DB69002B5B
:103B400000D054E312333B704F33FF33E3583B2B29
:103B5000D9DDB02300225B00E250FFF7F7FC012320
:103B60003B703C33FF33E358C5E7FFF78DFE00237E
:103B70003B706DE7274B0B2298462E4905234046A4
:103B8000FEF716FC04222C492C48FEF7F5FC002316
:103B9000214EB3600133F360204B99465DE7052267
:103BA00027492648FEF7E8FC00231B4EB36001338B
:103BB000F360184B9846194B99464EE70722214966
:103BC000EFE70A2220491D48FEF7D6FC0122002318
:103BD000114EF2605432FF32B360A3503B700D4B74
:103BE00098460E4B994638E7CC0200204806002044
:103BF0000C0A00207008002000040048000800485B
:103C00000C000020886B0008EC73000800740008AA
:103C100080750008440B00200402002034030020BB
:103C200044060020B4740008080A00200F0E0000AB
:103C3000AC74000898740008A4740008240C0020D8
:103C400090740008887400087C740008AA2301227C
:103C50005B00E250EC4B0B329846EC4905234046A2
:103C6000FEF7A6FBE36F002B00D0ECE2E84B052249
:103C70009946E849180002F061FA4B462100581DA8
:103C8000243102F0A4FAFFF745FC0A230A2213A903
:103C9000306801F0D3FC4846FCF7ACFB4B4606000D
:103CA00004221818DC4902F049FAF01C13A9484410
:103CB00002F08DFAFFF73AFC53460A2213A918685E
:103CC0000A2301F0BBFC4846FCF794FB4B46060078
:103CD000D2491818042202F031FAF01C484413A902
:103CE00002F075FA8423E2589246012A00D1D3E308
:103CF000CB4BCC4E05938823E2589246012A00D143
:103D000027E38C23E2589246012A00D1F2E28C2369
:103D10005B00E2589246012A01D100F020FC8A2380
:103D20005B00E2589246012A00D1E8E38E235B0053
:103D3000E2589246012A00D13AE34846FCF75AFB82
:103D4000824648460322B849504402F0F7F95246E9
:103D5000023292B249460598FEF70EFC002301227A
:103D6000B3603B70B14BF260994676E60822B049E9
:103D7000AB48FEF701FC00230122AA4E3B70B36062
:103D80003533FF33E358F260012B00D011E70C23E9
:103D900024E713AE3000A74B06CB06C0A64902F0BD
:103DA000FFF9831B98460322A44902F0C7F9434652
:103DB0009A1C92B231009A48FEF7DEFB01220023E2
:103DC000984E3B70F260994AB36013628E4B9146F5
:103DD000984642E60C229A499148FEF7CDFB012213
:103DE0000023904EF2607F32B360A350F6E60E22BD
:103DF00094498B48FEF7C0FB01220023894EA3673C
:103E0000F2608A4AB360D361914680223B70A3502E
:103E10007D4B984621E60E228B498148FEF7ACFB8C
:103E2000002301227F4EB360F260D7E60E2287495D
:103E30007B48FEF7A1FB002301227A4EA367B36003
:103E400013337A493B70704BF26089468A61984619
:103E500003E60C227E497248FEF78EFB0023714E6A
:103E6000B3600133F3600933B8E67A49280002F001
:103E700097F9461B03226C49023602F05FF9B2B291
:103E800029006748FEF778FB01220023654E3B704E
:103E9000F260664AB36053625B4B91469846DCE53C
:103EA000624B6D49994601234A469360564B0A225C
:103EB000984605234046FEF77BFA05230C22674906
:103EC0004046FEF775FA664E3000FCF793FA654BF4
:103ED0009A4601280DD918001022310002F07FF90E
:103EE0000523002800D1D7E10F225F494046FEF7A5
:103EF0005FFA5E4E5346320003CA03C31188404640
:103F0000198092785A499A7005230722FEF750FAD1
:103F10005046FCF76FFA052382B251464046FEF741
:103F200047FA0523022245494046FEF741FA4B462F
:103F30001B68002B00D158E14B465B68002B00D179
:103F400053E180235B00E358012B00D14DE1494B45
:103F500009229B461800484902F0F0F85846310003
:103F60000A22093002F0EAF8584604224349133085
:103F700002F0E4F8594616222948FEF7FDFA00231C
:103F80005146284EF831B36032480133F36002F0F5
:103F90001EF99A2301225B00E25000233B705CE58E
:103FA0000B2237491E48FEF7E7FA00231D4EB36087
:103FB0000133F3600D3311E60F2232491848FEF742
:103FC000DBFA01220023174E1B49F260F732B3607F
:103FD0008B50183302E61E222B491148FEF7CCFA0B
:103FE0000023104EB3600133F3601F33F6E509225E
:103FF00026490B48FEF7C0FA00230A4EB36001338E
:10400000F3601033EAE5C046440B0020207400083A
:104010007C05002030740008387400083C740008E7
:10402000240C002004020020A873000834030020A0
:104030007C73000814740008740300208075000865
:1040400004740008DC730008CC730008BC7300081B
:10405000AC730008A4050020887300089470000861
:104060002209002078030020B4700008947300082F
:10407000A073000810050020547000085073000859
:104080002C7300086C7300080C73000800730008A0
:10409000DF4E0722DF49300002F0A1F880460028F9
:1040A00000D103E10322DC49300002F098F8804699
:1040B000002800D111E1D94E9A220023012152009B
:1040C000A3500432A15089E50922D549D548FEF70D
:1040D00053FA00230522D14EB3600133F36050330D
:1040E000FF33E250473BFF3B78E50922CE49CD48FC
:1040F000FEF742FA0023C94EB3600133F360073381
:104100006CE50A22C949C748FEF736FA0023C34EB8
:10411000B3600133F360043360E5C54B0C2298466D
:10412000C44905234046FEF743F9BC4EB388032B30
:1041300000D996E001220421BF48FCF7C1FCB388F6
:104140000C220133B380BD4905234046FEF730F908
:10415000BB4B994681E4B64B08229846B9490523E2
:104160004046FEF725F9802101220902B648FCF7F6
:10417000A7FC0023A94EB38003333B70B04B994694
:104180006BE4AB4B0A229846B04905234046FEF744
:104190000FF9A24E0022B388022B73D88021AA48BF
:1041A0000902FCF78DFCB3880133B380A44B994618
:1041B00053E49F4B09229846A54905234046FEF744
:1041C000F7F80B22A3499748FEF7D6F90023934E40
:1041D0009B4AB3600133F36053601360063391462A
:1041E0003B703AE40B229C4917E68C4ED1E6012B3A
:1041F00076D04B469B69012B00D1D8E1B0235B0000
:10420000E3583B2B00DDA4E4944A954B1168994296
:1042100000DC78E4A36F002B00D074E44B461B68ED
:10422000012B00D06FE4002313608E4A8E4B11687F
:10423000196012791A71FFF727FB0F233B702E3399
:10424000FF33E35857E4894B052299468849180003
:1042500001F074FF21004B469431581D01F0B7FF67
:1042600040E5002204217448FCF72AFC04230B22B9
:104270003B70804901334046FEF79AF8704B9946EF
:10428000FFF7EBFB04216C48FCF71AFC02233B70A0
:104290006B4B9946FFF7E1FB0C2277494046FEF74E
:1042A00087F83100504601F092FF22E6132273494D
:1042B0005C48FEF761F94346584EB3600123F36052
:1042C000FAE64A46023292B259465648FEF754F987
:1042D0005346524EB36043466AE413226849E7E707
:1042E00014333B704C33FF33E3583B2B01DCFFF7B7
:1042F0000AFC2EE400229346E2504A46603B1370CB
:10430000501C6049092201F019FF21004846C631BE
:104310000A3001F045FF4B46C21A92B205234946C6
:104320004046FEF745F80523072257494046FEF769
:104330003FF84846FCF75EF8494682B20598FEF71A
:104340001BF95B46B36053465A46F3604F4B1A70F5
:10435000DDE400229346E2504A465C3B1370501C59
:104360004B49082201F0EAFE21004846B2310830EC
:1043700001F016FF4B46C21A92B205234946404649
:10438000FEF716F8052307223F494046FEF710F8CE
:104390004846FCF72FF8494682B20598FEF7ECF83C
:1043A0005B46B36053465A46F360384B1A70A8E434
:1043B00000229346E2504A46F03B1370501C3549A8
:1043C000052201F0BBFE4B462100981D4C3101F047
:1043D000E7FE4B46C21A92B2052349464046FDF716
:1043E000E7FF0523072228494046FDF7E1FF48463D
:1043F000FCF700F8494682B20598FEF7BDF85B4627
:10440000B36053465A46F360204B1A7095E4C04699
:104410004509002038730008547300080402002086
:10442000F4720008240C0020E8720008B87200083A
:10443000440B00208C720008000400489C720008A5
:1044400034030020807200080008004874720008DD
:10445000D0720008DC720008C4720008080A00204C
:104460000F0E0000D8740008700400207C050020A6
:1044700040740008AC720008A47000084073000883
:104480005873000858740008487400086C03002032
:10449000507400087474000800229346E2502C23E4
:1044A0004A4648491370501C052201F047FE4B460E
:1044B0002100981D943101F073FE4B46C21A92B24E
:1044C000052349464046FDF773FF052307223E4971
:1044D0004046FDF76DFF4846FBF78CFF3B4B82B231
:1044E000494618000593FEF747F85B46384E5A4692
:1044F000B3605346F360374B1A70FFF7FCFB0022A2
:104500009346E2504A46E83B1370501C324904225D
:1045100001F014FE4B46611DFF31581D01F040FEB5
:104520004B46C21A92B2052349464046FDF740FF6A
:104530000523072224494046FDF73AFF4846FBF78A
:1045400059FF494682B20598FEF716F85B46B360FC
:1045500053465A46F3601F4B1A70FFF7E7FB0022E1
:104560009346E2504A46EC3B1370501C1B4907220D
:1045700001F0E4FD0523072249464046FDF718FFF8
:104580000523072210494046FDF712FF4846FBF776
:1045900031FF494682B20598FDF7EEFF5B46B360F6
:1045A00053465A46F3600B4B1A70FFF7B8FB1333B0
:1045B0003B704D33FF33E3583B2B01DCFFF7A3FA8D
:1045C000FFF7C7FA4074000848740008240C002064
:1045D000040200206C0300206C740008647400085E
:1045E00030B50125174C83B022230F2221000095FE
:1045F000154800F0F3FF2000FBF7FCFE134B0328E7
:104600000CD80022DA619023114AD358012B01D033
:1046100003B030BD0F220F4B1A70F9E70022DD61A5
:104620009A610D4D0B4B15321A70210082B2052391
:104630002800FDF7BDFE0523022208492800FDF7EA
:10464000B7FEE5E74C040020880700203403002073
:10465000700800200C000020440B0020807500082A
:104660000023164A1361164A1360164B5A6A186AD9
:10467000012A0AD0144A11780A2914D001280FD02F
:104680001F2915D10423137070475A68012AF1D1EC
:10469000DA69002AEED10F230B4A13700128F3D1F7
:1046A00017231370F0E7093959610128ECD1F7E7B6
:1046B0001D29E9D11E231370E6E7C046040200203D
:1046C00044060020340300200C000020F0B5DE4634
:1046D0004E4657464546E0B5E54CF5B00523092260
:1046E000E4492000FDF764FEE34D00262800FBF7B7
:1046F00081FE290082B205232000FDF759FEDF4F1D
:104700000523022239002000FDF752FE290047A8A8
:1047100001F05DFD0023A02200931AA93B3347A8B6
:1047200000F05CFF942399461E339C46D44DAC4464
:104730006346A9440293039582E00522D1491AA851
:1047400001F04DFD002800D1D9E00422CE491AA87D
:1047500001F045FD002800D1EFE00422CB491AA862
:1047600001F03DFD002800D121E10422C8491AA82A
:1047700001F035FD002816D18A235B00EB58002B91
:1047800000D12AE2C34B18009846FBF733FE0523FD
:1047900082B241462000FDF70BFE052302223900BC
:1047A0002000FDF705FEBC4B0522BC4918009846C9
:1047B00001F015FD002800D1E1E10522B8491AA851
:1047C00001F00DFD8046002800D1BDE10322B5496E
:1047D0001AA801F004FD002800D19FE10422B2498B
:1047E0001AA801F0FCFC002800D181E10722AF49A2
:1047F0001AA801F0F4FC8046002800D11CE1052233
:10480000AB491AA801F0EBFC002800D105E1032216
:10481000A8491AA801F0E3FC002800D1E5E007222E
:10482000A5491AA801F0DBFC002800D1E867013691
:10483000F3B20093A0223B231AA947A800F0CEFEB2
:104840001AA8FBF7D7FD012800D8ABE182B20523F7
:104850001AA92000FDF7ACFD052302223900200033
:10486000FDF7A6FD042295491AA801F0B8FC804680
:10487000031E00D061E701339A46009328223933A2
:104880000DA91AA800F0AAFE43461E22009349462D
:104890002C230DA800F0A2FE534602991E2200937D
:1048A0000DA82B33884600F099FE4846FBF7A2FD81
:1048B000052382B249462000FDF77AFD0523032235
:1048C0007F492000FDF774FD4046FBF793FD05236B
:1048D00082B241462000FDF76BFD0523022239001C
:1048E0002000FDF765FD4B465246943BDA6765496B
:1048F00005221AA801F073FC002800D025E7012347
:104900000422009305A9393347A800F067FE03226B
:104910006C4905A801F063FC002800D015E70522CA
:10492000694905232000FDF743FD042256491AA8D2
:1049300001F055FC002800D00FE705230F22634942
:104940002000FDF735FD0123282200930DA93933FE
:104950001AA800F043FE05225D490DA801F03FFCB6
:10496000002802D194235B00E850052259490DA884
:1049700001F035FC002803D1942301225B00EA50AA
:104980000DA8FBF737FD052382B20DA92000FDF726
:104990000FFD0222390005232000FDF709FD042246
:1049A0003A491AA801F01BFC002800D0DDE60123DB
:1049B0002822009305A998461AA8393300F00EFE64
:1049C000192205A9444801F00AFC8246031E00D0C2
:1049D000F7E005330B2241492000FDF7E9FC98235D
:1049E0005146039A5B00D150BFE63D4B14229846D6
:1049F0000123414600931AA8393300F0EFFD0A2144
:104A0000404601F08BF843460201101AA022453BB4
:104A1000FF3B80005200985001E705231B223149DB
:104A20002000FDF7C5FCFEF701FE05231C222E49E0
:104A30002000FDF7BDFCEAE60DAB9A4601230422F7
:104A400000939B46514639331AA800F0C7FD5346E0
:104A50001B78312B00D1EEE00523162223492000DC
:104A6000FDF7A6FC962342465B00EA50C7E6C04627
:104A7000440B0020F87400088807002080750008A7
:104A8000700800201075000820750008487500089F
:104A90006C750008740900209803002084750008D4
:104AA00088750008B4750008DC750008E475000816
:104AB000187600085C760008607600080475000827
:104AC0000C75000828720008187500082875000881
:104AD0003875000840750008BC08002050750008B3
:104AE000B4090020207600083C7600080076000813
:104AF0000DAB9846012304220093414639331AA88E
:104B000000F06CFD43461B78312B00D19EE005235D
:104B1000112252492000FDF74BFC67E60DAB984689
:104B2000012304220093414639331AA800F056FDB0
:104B300043461B78312B00D174E0052313224849EA
:104B40002000FDF735FC49E60DAB9A46012304220F
:104B500000939B46514639331AA800F03FFD534657
:104B60001B78312B53D0902342465B00EA501C3B0C
:104B7000FF3B112239492000FDF71AFC26E6394B8C
:104B800004229A460123514600934046393300F0EF
:104B900025FD0A21504600F0C1FF642358435346C7
:104BA000D8600AE6922200235200AB503432AB5058
:104BB0002D4A137075B03CBC90469946A246AB4650
:104BC000F0BD05230D2229492000FDF7F1FB9823B4
:104BD0004146039A5B00D150C7E505330E222449B4
:104BE0002000FDF7E5FB6B1DFF33984601230522EE
:104BF0000093414639331AA800F0F0FC0A214046E0
:104C000000F08CFF64235843AC33E850BAE52C3BEA
:104C10000D2218492000FDF7CBFB90235A465B007C
:104C2000EA50D3E52C3B0E2213492000FDF7C0FBD0
:104C3000FEF748FDD2E52C3B122210492000FDF77B
:104C4000B7FB96235A465B00EA50D8E52C3B0D2271
:104C500008492000FDF7ACFBC8E5C046A075000878
:104C6000C8750008740900200C0000205C7500085D
:104C70007475000890750008B8750008EC75000898
:104C8000F0B5CE46474680B5D24D87B00422D24912
:104C9000280001F053FAD14EE81C310001F080FAEF
:104CA000CF4F03223900441B01F048FACD4B0234A8
:104CB0009846A2B2052329004046FDF779FBCA4B6E
:104CC00099461B69012B1FD0A825C84C6D0063595C
:104CD000012B2DD0012B06DD013B635107B00CBC2D
:104CE00090469946F0BD0722C149300001F077FA9D
:104CF000002848D0AC225200A358012B00D1EDE08F
:104D000044DD013BA350E9E700224946A8250A619A
:104D10000B62B848310001F05AFA05231222B64955
:104D20004046FDF745FBB14C6D006359012BD1D1D5
:104D300024343100200001F04AFA0722AC49200057
:104D400001F04DFA002802D10822AC4B1A7005235D
:104D50000522AB494046FDF72BFBAA4C2000FBF790
:104D600049FB210082B205234046FDF721FB0523C4
:104D7000022239004046FDF71BFBA8230022243CF9
:104D80005B00E250AAE701236351A7E70A229E498C
:104D9000300001F024FA002800D19BE008229B4952
:104DA000300001F01CFA002800D193E00922984954
:104DB000300001F014FA002800D192E00422954955
:104DC000300001F00CFA002800D195E0062292494B
:104DD000300001F004FA002800D189E006228F4952
:104DE000300001F0FCF9002800D199E003228C4941
:104DF000300001F0F4F9002800D19AE00822894936
:104E0000300001F0ECF9002800D195E00622864937
:104E1000300001F0E4F9002800D190E00F2283492E
:104E2000300001F0DCF9002800D190E00D2280492B
:104E3000300001F0D4F9002800D18DE007227D492F
:104E4000300001F0CCF9002800D189E007227A492E
:104E5000300001F0C4F9051E00D187E0082277492F
:104E6000300001F0BCF9051E00D1A6E0092274490A
:104E7000300001F0B4F900286ED0082271493000EA
:104E800001F0ADF9002867D005226F49300001F02C
:104E9000A6F9002873D14B465B6A012B00D11DE7B0
:104EA000012400902C230A2202A9300000F096FB76
:104EB000202303226549009402A800F08FFB0323FE
:104EC0001422009362491F33300000F087FB4B46E9
:104ED0001C6103E70622494B1A70FFE6FFF7F6FB59
:104EE000FCE6052311225B494046FDF761FAF5E631
:104EF00000234A469360F1E60123574C00932100BA
:104F00001F330322300000F069FB200001F0E5F8B8
:104F100071224000121A5149200001F021F9DDE60A
:104F200001231E2200934E491F33300000F056FB30
:104F3000D4E6FFF795FBD1E6FFF752FBCEE68023E0
:104F40001C22E0507F3BA3672C4B1A70C6E616224A
:104F50002A4BA0671A70C1E61422284B1A70BDE6CE
:104F6000802140484900FBF7B1FDB7E63E4BA06702
:104F700018603E48FEF74CFB204B1D70AEE6102239
:104F80003B49300001F02BF900281FD00522394998
:104F9000300001F024F9002800D09FE6364B9880BD
:104FA0004B465860D8619C235B00E258012A00D030
:104FB00094E6E050114B187090E62B4BA0671860F8
:104FC0002E48FEF725FB0D4B1D7087E6FEF7BEFA57
:104FD00084E6C04610050020687600088807002097
:104FE00080750008440B0020340300207008002066
:104FF00060700008980300206C7600080C00002008
:105000006870000894080020807600088C760008FC
:1050100098760008B8760008C0760008C8760008C0
:10502000D0760008D4760008E8760008E07600081C
:10503000F07600080077000808770008207700085D
:1050400044770008507700085C770008740300205C
:1050500078030020A476000878070020707000080C
:10506000BC08002000040048440600201077000817
:105070006477000878770008040200202C77000885
:10508000234B70B55A69996991421ED0214DD96957
:10509000AD5C21480024455496250132DC606D004A
:1050A000AA4213DC5A614A1CE62A13DCDA61425C2C
:1050B0003E2A16D00A2A06D1002242540121DA6182
:1050C000421E127849420D2A17D070BD4A1C5C61FD
:1050D000E62AEBDD012100224942DA61425C3E2AE8
:1050E000E8D10E4B9B6F013B5A4253410B225B426E
:1050F00013400B4A10331370E7E700224254DA6181
:10510000FFF7BEFD802107488901FBF7DFFCDCE7E4
:10511000040200204C0600208807002070080020B0
:105120000C00002000080048B0220021094B52006A
:1051300099503E2802D1043A01319950064A074954
:105140009369C8549621013349008B4200DD002346
:105150009361704770080020040200204C06002074
:1051600010B598B02C2200210DA800F0F0FF1022FD
:105170000021684600F0EBFF1C22002104A800F08B
:10518000E6FF13230B93123B0C930E931093802393
:105190005B021024159380230F9411941B030E3C83
:1051A0000BA814941693FCF743F9002800D0FEE7EF
:1051B0000723029003900121684600930194FCF7B5
:1051C000DBFB002800D0FEE7232306900790089021
:1051D00004A80493FCF718FD002800D0FEE718B0DF
:1051E00010BDC046F0B5C64600B58CB0FBF70AF955
:1051F000FFF7B6FF1422002107A800F0A8FF8021C6
:10520000C24C09036269E0250A43626163692D02A9
:105210000B4080210193019B6269C9030A436261CB
:105220006369BB480B4080210293029B626989023B
:105230000A4362616369B2270B4080210393039B99
:105240006269C9020A436261636900220B400493E8
:105250002900049BFBF734FCAE4B00221900AE483A
:105260009846FBF72DFC9020FF0100223900C00575
:10527000FBF726FC01260795002507A9A4480896F8
:1052800009950A95FBF730FB434607A9A248079307
:10529000089609950A95FBF727FB902007A9C005FA
:1052A0000797089609950A95FBF71EFBA023902007
:1052B0001B0207A9C005079308950995FBF714FB86
:1052C00063690022334363616369002133400093C3
:1052D0000920009BFBF706FA0920FBF72FFA0C22A6
:1052E000002107A800F033FF8C4C8D4B042723606E
:1052F00080235B02A361C223FF33E3619E3BFF3B3C
:1053000020006560A560E560266167612562E5545F
:10531000A662FBF7ABF8002800D0FEE780235B0114
:105320000893802307905B0507A920000993FBF7EA
:1053300049F9002800D0FEE707A920000796FBF7EF
:1053400041F9002800D0FEE707A920000797FBF7E6
:1053500039F9002800D0FEE7052307A920000793AC
:10536000FBF730F9002800D0FEE7062307A920004C
:105370000793FBF727F9002800D0FEE7072307A9CA
:1053800020000793FBF71EF9002800D0FEE7654CCC
:10539000654BA0602360654B20616061A061E061A6
:1053A000206220006360E660FBF798FB011E00D0DE
:1053B000FEE72000FBF7E0FF011E00D0FEE7200023
:1053C000FCF708F8002800D0FEE7E0225848594BC7
:1053D000D20003608223C26080225B004360082405
:1053E000002392008261FA3AFF3A836003614361CD
:1053F000C361036243628362C26203634463FCF776
:10540000AFFC002800D0FEE7E1260C254A4B4B4AB2
:1054100076029860D86018619861D8611862586205
:1054200018001A605E605D61FDF7ACFB002800D0DB
:10543000FEE7434B434A9860D86018619861D86191
:105440001862586218001A605E605D61FDF79AFB91
:10545000002800D0FEE73C4B3C4A9860D8601861B9
:105460009861D8611862586218005D611A605E60C8
:10547000FDF788FB051E00D0FEE70100102207A8FB
:1054800000F065FE2200290005A800F060FE304C07
:10549000304B2000236064236560A560E3602561D4
:1054A0006561A561FCF7FCFC002800D0FEE78023C5
:1054B00007A95B0120000793FCF7A8FD002800D096
:1054C000FEE70590069005A92000FCF7FBFE0028EA
:1054D00000D0FEE7204B214A18611A60C02252001A
:1054E0005A60033AFF3A9A6018000132DA60FDF719
:1054F000C3FC002800D0FEE7FA204000FAF7A4FF22
:105500001748FEF785F8FEF721F8FEE70010024085
:10551000000800483F13000000040048EC0C002085
:1055200000240140F80A0020005400400E09002029
:10553000100A002000380040440B002000380140D1
:10554000240C002000440040740A00200048004061
:10555000C80B0020002C0140100C0020002C004043
:105560008077000870B5184C050023681D2B0DDCF2
:10557000013323606368154A934216DC013363608C
:1055800080232A68DB059A421AD070BD002323606D
:10559000FFF776FD0E4B1B68052BEBDC0D48FDF786
:1055A00081FC6368094A9342E8DD00236360FDF7EC
:1055B00075FDFEF7D3F980232A68DB059A42E4D112
:1055C000FAF730FFE1E7C0463C020020E7030000A5
:1055D0000C020020100C0020FEE7C046F0B50600CB
:1055E000013A05A80078D7B2327884460025002415
:1055F0000020002A0CD117E01F2A04D90A55BC420A
:1056000001DA013424B2013000B2325C002A0BD03E
:105610009342F1D1AC4509D0013000B2325C013582
:10562000EDB20024002AF3D1AC4503D109190023BF
:105630000B70F0BD01204042F9E7C046F8B5454681
:10564000DE4657464E468046E0B50D000A2B00D197
:1056500092E0102B0DD00C00012630232370AC19E2
:105660000023280023703CBC90469946A246AB46D6
:10567000F8BD013A013B010F00D0EDE1002A00DC4A
:1056800030E20116194000D10AE22C00002309295A
:1056900000D8F0E137312170591C0BB26C188A42E6
:1056A000DEDD41460902090FE818002900D1E8E1D2
:1056B000092900D8E5E13731017001339BB219B2F5
:1056C000EC189A42CCDD43461803000F6B180028F3
:1056D00000D1D9E1092800D8D6E13730187001315E
:1056E0008BB219B2EC189A42BADD43461804000F87
:1056F0006B18002800D1CAE1092800D8C7E137306B
:10570000187001318BB219B2EC189A42A8DD4346E9
:105710001805000F6B18002800D1BBE1092800D83C
:10572000B8E13730187001318BB219B2EC189A42D7
:1057300096DD43461B061B0F6818002B00D1ACE119
:10574000092B00D8A9E13733037001318BB219B2AC
:10575000EC189A4200DC83E742460F2313406A1894
:10576000002B00D1B8E1092B00D8B5E13733137015
:1057700001318CB22C1973E70026002804DA434269
:1057800098462D2301360B70DE494046571EFAF726
:10579000BBFCC3B2002800D098E04046D949FAF7D4
:1057A00039FDAC1988468B46B74200DC8BE0D64900
:1057B0004046FAF7A9FCC3B2002800D09BE0D249CA
:1057C0004046FAF727FD89468B464846CF49FAF707
:1057D0009BFCC3B20200002B00D09FE0FF331A40B5
:1057E0009B464B46C948CA4942439B1A18009946F2
:1057F000FAF78AFCC3B20200002B00D0A3E05B469C
:105800001A405001801A8301181A4B46C0008018B4
:1058100080011B1A1800BF499946FAF775FCC3B2FC
:105820000200002B00D0A8E05B461A404B46B94866
:10583000B94942439B1A18009846FAF765FCC3B26F
:105840000200002B00D0ADE05846B34B1040584347
:105850004346FA211B1A180089009946FAF754FCAE
:10586000C3B2002B00D0B3E0FF3318409A464B463A
:105870004101091A89000818C0001B1A1800642188
:105880009946FAF741FCC3B20200002B00D0B7E002
:10589000534664201A404B4642439B1A18000A2183
:1058A0009846FAF731FCC2B20300002A00D0BCE0EF
:1058B00050464246184083001B185B00D31ADBB2E7
:1058C000002B00D0C2E00136B6B2C6E63033AB558D
:1058D0000136B3B29A468B4940461EB2FAF79AFC9B
:1058E00053468B46EC18574500DCB9E686495846C6
:1058F000FAF70AFCC3B2844A303350435A460136A1
:105900002370121AB3B21EB29346EC189F4200DC09
:10591000A6E67E491000FAF7F7FBC3B2FF22024069
:105920007A48303350435A4601362370121AB3B2C4
:105930001EB29146EC189F4200DC91E674491000BB
:10594000FAF7E2FBC3B2FF21014048013033401AAD
:1059500023708301181A4B46C0004018013680019D
:10596000B2B21B1A16B29946AC18974200DC77E621
:1059700018006849FAF7C8FBC3B2FF220240654825
:10598000303350434A4601362370121AB3B21EB266
:105990009046EC189F4200DC62E65F491000FAF77F
:1059A000B3FBC3B2FF2202405B4830335043424650
:1059B00001362370121AB3B21EB29146EC189F4200
:1059C00000DC4DE6FA2110008900FAF79DFBC3B216
:1059D000FF21303323704B4601404801401A8000BC
:1059E00040180136C000B2B21B1A16B29946AC1864
:1059F000974200DC34E618006421FAF785FBC3B255
:105A0000FF220240642050434A463033013623705F
:105A1000121AB3B21EB29046EC189F4200DC1FE689
:105A200010000A21FAF770FBC2B2FF23414618406A
:105A30008300303201361B1822705B00B2B216B2FE
:105A4000CB1AAC18974200DC0AE6DBB230330136E1
:105A5000237034B22C1903E609290FD93731297084
:105A60006C1C012A00DCFBE543461901090F0123E8
:105A7000002900D00BE6303121700DE6303129705D
:105A8000EEE73031017018E63030187027E630301C
:105A9000187036E63030187045E63033037054E63F
:105AA00041460915194020D141460814184016D125
:105AB0000813184022D1081218401CD109110B40BC
:105AC00016D10F2342462C0013400026002B00D194
:105AD000F9E62A00310046E63033137048E62B0021
