:020000040800F2
:1000000000400020A16000087D5F0008815F0008BB
:1000100000000000000000000000000000000000E0
:10002000000000000000000000000000855F0008E4
:100030000000000000000000895F00088D5F0008DC
:10004000F1600008F1600008F1600008F16000084C
:10005000F1600008F1600008F1600008F16000083C
:10006000F1600008955F0008F1600008F160000889
:10007000F1600008A55F0008F1600008B55F0008A6
:10008000F1600008F1600008F1600008F16000080C
:10009000F1600008F1600008F1600008C55F000829
:1000A000F1600008F1600008F1600008E95F0008F5
:1000B000F95F0008F1600008F1600008F1600008D5
:1000C00010B5064C2378002B07D1054B002B02D02E
:1000D000044800E000BF0123237010BDE0010020B0
:1000E00000000000346B0008044B10B5002B03D057
:1000F0000349044800E000BF10BDC04600000000F6
:10010000E4010020346B0008002243088B4274D3C2
:1001100003098B425FD3030A8B4244D3030B8B4208
:1001200028D3030C8B420DD3FF22090212BA030C11
:100130008B4202D31212090265D0030B8B4219D3F2
:1001400000E0090AC30B8B4201D3CB03C01A524112
:10015000830B8B4201D38B03C01A5241430B8B425A
:1001600001D34B03C01A5241030B8B4201D30B0343
:10017000C01A5241C30A8B4201D3CB02C01A52416A
:10018000830A8B4201D38B02C01A5241430A8B422D
:1001900001D34B02C01A5241030A8B4201D30B0216
:1001A000C01A5241CDD2C3098B4201D3CB01C01A30
:1001B000524183098B4201D38B01C01A524143093A
:1001C0008B4201D34B01C01A524103098B4201D328
:1001D0000B01C01A5241C3088B4201D3CB00C01A95
:1001E000524183088B4201D38B00C01A524143080D
:1001F0008B4201D34B00C01A5241411A00D2014632
:10020000524110467047FFE701B5002000F0F0F8BA
:1002100002BDC0460029F7D076E7704703460B437E
:100220007FD4002243088B4274D303098B425FD3EF
:10023000030A8B4244D3030B8B4228D3030C8B421B
:100240000DD3FF22090212BA030C8B4202D3121201
:10025000090265D0030B8B4219D300E0090AC30BD6
:100260008B4201D3CB03C01A5241830B8B4201D383
:100270008B03C01A5241430B8B4201D34B03C01A6C
:100280005241030B8B4201D30B03C01A5241C30AE4
:100290008B4201D3CB02C01A5241830A8B4201D355
:1002A0008B02C01A5241430A8B4201D34B02C01A3F
:1002B0005241030A8B4201D30B02C01A5241CDD2E4
:1002C000C3098B4201D3CB01C01A524183098B422F
:1002D00001D38B01C01A524143098B4201D34B0118
:1002E000C01A524103098B4201D30B01C01A52417B
:1002F000C3088B4201D3CB00C01A524183088B4202
:1003000001D38B00C01A524143088B4201D34B00EA
:10031000C01A5241411A00D201465241104670475C
:100320005DE0CA0F00D04942031000D34042534061
:1003300000229C4603098B422DD3030A8B4212D321
:10034000FC22890112BA030A8B420CD38901921153
:100350008B4208D3890192118B4204D389013AD090
:10036000921100E08909C3098B4201D3CB01C01A65
:10037000524183098B4201D38B01C01A5241430978
:100380008B4201D34B01C01A524103098B4201D366
:100390000B01C01A5241C3088B4201D3CB00C01AD3
:1003A000524183088B4201D38B00C01A5241D9D2EB
:1003B00043088B4201D34B00C01A5241411A00D26C
:1003C0000146634652415B10104601D34042002B68
:1003D00000D54942704763465B1000D3404201B5E7
:1003E000002000F005F802BD0029F8D016E770479C
:1003F0007047C0460023C25C0133002AFBD1581E5F
:10040000704700001021064A10B5136800200B4306
:10041000136005F077FD05F01DFC002010BDC046FF
:1004200000200240024A1368013313607047C0463F
:100430004C020020014B18687047C0464C02002057
:1004400030B583B00190FFF7F5FF019C0500631CF8
:100450005A1E9341E418FFF7EDFF401BA042FAD368
:1004600003B030BDF8B5041E00D175E0436C002B1D
:1004700068D0636CDB0605D510220120636C134342
:100480006364F8BD042023689A681040F4D1626C5C
:1004900046490A400631FF310A43626403229968E3
:1004A0000A40012A73D01821DA688A43A1680A43F6
:1004B000DA601A696168920092080A431A61DA6880
:1004C0003B49266A0A40DA60A26977039103E26930
:1004D000D2031143626B013A551EAA411503E2682B
:1004E000114322693943022A00D10420226B5200B1
:1004F0000A43616A2A430243012942D0C220A16A09
:10050000FF30814202D0E06A01430A43D968A56BFB
:100510001143D960802149058D421FD0691E0629EB
:100520001CD9DB6823490B40934220D01222636C14
:1005300001209343023A13436364A36C0F3A1343BD
:10054000A3649EE740228364835405F0ADFB636C93
:10055000DB0600D590E795E7012092E7072158696F
:10056000884358615869294001435961D9E70023FC
:100570000322A364636C00209343023A1343636431
:100580007FE7002E0AD1802149020A43B6E71968A5
:100590000A4294D1DA68120491D484E72025606C71
:1005A00028436064A06C0143A164A7E7FDFEFFFF40
:1005B0001902FEFFE7FF3F830023F0B583B00193EC
:1005C0004033C25C0400012A44D001222668806BBB
:1005D000E254B3685B0709D520220120636C134302
:1005E000636440230022E25403B0F0BD0B68334D36
:1005F0001F00AC464D689A40103F65452CD0B56A47
:100600002A43B2628022520590420FD00138062858
:100610000CD90722886871691140884206D0716937
:1006200091437161716902400A437261022F0FD8D0
:1006300023490A68102B29D0113B584243412148D5
:100640005B420340802040048446634413430B60B4
:100650000020C6E70220C7E7B16A9143B162022FCA
:10066000F6D8174A1168102B0ED0113B1A00531EF2
:100670009A41144B52421340134A94466344104A21
:100680000B4013600020ACE7104BF8E780231B04FD
:100690001A430F4B0A6018680E49FFF735FD8300B7
:1006A000181840000190019B002BD1D0019B013B09
:1006B0000193019B002BF9D1002092E7011000006B
:1006C00008270140000040FFFFFFBFFFFFFF7FFF43
:1006D0000C00002040420F00FF22032330B514001D
:1006E000C5B22B40DB009C4089010A40E4439A409C
:1006F00000280BDB0C4B80089C46C0238000604424
:100700009B00C1580C402243C25030BD0F23074903
:100710002B408C46083B9B089B006344D9690C40E6
:100720002243DA61F1E7C04600E100E000ED00E0BD
:100730001F2318401E3B8340014A13607047C04688
:1007400000E100E00A4A431E012093420ED8C02176
:10075000084A09485360036A09061B021B0A0B4337
:100760000362002300209360073313607047C04684
:10077000FFFFFF0010E000E000ED00E0054A136815
:10078000042803D004218B43136070471843106082
:10079000FBE7C04610E000E07047C04610B5FFF729
:1007A000FBFF10BD70B5041E2BD02125022343553D
:1007B0000068154A0368A1681A4063680B43E16842
:1007C0000B4321690B4361690B43A1690B43E16949
:1007D0000B43134303600D4B14219C466044FFF709
:1007E00093FC0B4B0122E363002380002064002074
:1007F000A362E36223636363A36362551F32A3545E
:1008000070BD0120FCE7C0460FC0FFFFF8FFFDBF31
:1008100000000240212370B5C25C022A03D01D3BB8
:100820008363012070BD0E240268056C1168A1432A
:100830001160012114688C4314600C00AC40C26B41
:100840005460C15400222023C254436B002B02D0B9
:1008500098470020E6E70020E4E7C046F8B5042406
:100860002600036CC56B9E402A6801680F683242FF
:100870000DD03C420BD00B689B0602D40B68A343FF
:100880000B60C36A6E60002B00D09847F8BD02244D
:1008900026009E40324214D03C4212D00B689B0688
:1008A00006D40A220B6893430B602123093AC254F1
:1008B000202300226E60C254836A002BE6D0984742
:1008C000E4E7082426009E403242DFD03C42DDD0DF
:1008D0000A680634A2430A600122110099402123CC
:1008E00069608263C2540022013BC254036B002B37
:1008F000CCD09847CAE7C046F0B54E46DE465746CC
:100900004546E0B58946096885B0002900D182E0F6
:10091000704B00229B46704B8A46984601255446F0
:1009200095402C40009472D04B46596810230F001C
:100930009F430197022F00D174E0036856009C4644
:100940000323B3406446DB431C40270003240C40D0
:10095000B440A4463C0067463C43019F0460013F0D
:10096000012F00D87BE0C5682B404D46AD68B540EF
:100970002B43C36080235B05194248D05B460124AA
:100980005D4603260F279B6916402343AB61AB6985
:10099000B6002340514CB740A44690240393039BD8
:1009A00093089B0063449D68E405BD43A04212D0B8
:1009B0004B4FB84200D180E04A4FB84200D178E0B6
:1009C000494FB84200D17CE0484FB84200D17CE0AA
:1009D0000527B7403D439D604346009C1B68E543A7
:1009E000CC034ED444462B40236063688C034FD421
:1009F00044462B406360A368CC0250D444462B404D
:100A0000A360E368890251D42B404146CB60534632
:100A10000132D34082D105B03CBC90469946A246F3
:100A2000AB46F0BD07260F241640B600B440D308ED
:100A30009B00C3181F6AA7434C462469B440260094
:100A40003E431E6203235600B340DB4307681F404A
:100A5000BC4603270F40B7406446274307608768BA
:100A60004C461F40BC46E7686446B7402743012414
:100A700087604768AF430D09254095403D43456079
:100A800071E7009C23434446236063688C03AFD521
:100A9000009C234344466360A368CC02AED5009C0F
:100AA00023434446A360E3688902ADD500990B4314
:100AB000ABE70227B7403D438DE70124B44025430F
:100AC00089E70324B440254385E70427B7403D4325
:100AD00081E7C046001002400004014000000140D0
:100AE0000004004800080048000C004800100048BE
:100AF000002A01D1816270478161FCE74369594056
:100B0000416170471023F0B5C64604000D00160081
:100B10000227984600B523686A1C2FD102211020B5
:100B20009A69114228D19A691042F9D020219A6914
:100B30001142FCD01022DA611032DA619A69920710
:100B400001D500229A62012299690A4202D199696B
:100B50000A439A615A681E490A405A600423636432
:100B600041232022E254002301202232A354023ADE
:100B7000A35404BC9046F0BD0020FAE79A691742DE
:100B8000FAD141469A69114213D1002D04D0FFF7E2
:100B900051FC801BA842BED92022636C0320134362
:100BA00063644123E25400232232A354023AA35443
:100BB000DFE7202707E0002DD2D0FFF73BFC801BAA
:100BC0008542CDD323689A691742F4D0B2E7C04674
:100BD00000E800FEF0B5C646040000B50D001600A2
:100BE000002945D010232027984604E0FFF722FC77
:100BF000801B854243D323689A6917424CD14146F2
:100C00009A691142F2D020276A1C25D120219A69C5
:100C10001142FCD01022DA611032DA619A6992072F
:100C200001D500229A62012299690A4202D199698A
:100C30000A439A615A6819490A405A600423636456
:100C400041232022E254002301202232A354023AFD
:100C5000A35404BC9046F0BD9A691742DAD1002D26
:100C6000EED0FFF7E7FB801B8542E9D32368CBE793
:100C700003689A6992060FD49A69D206C3D42022D7
:100C8000636C0320134363644123E2540023223244
:100C9000A354023AA354DCE70020DAE700E800FEA0
:100CA00010B5041E4CD04123C35CDBB2002B42D0F4
:100CB000412324220121E2542368A0681A688A4350
:100CC0001A6061681F4A0A401A619A681E490A4000
:100CD0009A60E268012A29D08421090201439960BF
:100CE000022A02D1802212015A605968174A002054
:100CF0000A435A60DA6814490A40DA606169226975
:100D00000A43A16909020A43DA60216AE2690A43D7
:100D100001211A601A680A431A60002341221F3118
:100D20006364A15401322363A35410BD80210902DE
:100D300001439960D9E74022835404F0F7FFB7E7F5
:100D40000120F2E7FFFFFFF0FF7FFFFF00800002BE
:100D5000F8B54746CE469846412380B5C35C0400AB
:100D60000F0091460220202B76D12033E25C012A2D
:100D700072D00122E254FFF75DFB802605003602A7
:100D800005E0FFF757FB401B192800D976E02268E1
:100D900093693340F5D1412121206054013111384C
:100DA0006054494661624146636461856363638D53
:100DB000BF05BF0DFF2B00D87CE0FF2344492385EE
:100DC00053681940434B3B430B43536080239B04C0
:100DD0003B4380269846638D2A0008992000002B0B
:100DE00029D0FFF78FFE002852D1636A5A1C626235
:100DF0001B7822689362638D013B9BB26385238DD0
:100E0000013B9BB22385002BE5D1638D002BE2D003
:100E1000089B013324D193691E42FCD0638DFF2BC4
:100E20003BD9FF232A492385536819402A4B3B436A
:100E30000B435360CFE7FFF7CDFE002828D12021D8
:100E40002368264DD9615A682A405A604123E154EB
:100E50000133E054023BE0540CBC90469946F8BD87
:100E600093691E42DAD1089B002B07D0FFF7E2FA04
:100E7000089B401B834201D32268CAE741232022FA
:100E8000E25400232232A354023AA3540320E3E79E
:100E9000636C0120042BDFD0F8E7638D0C485168A8
:100EA0009BB2014040462385DBB21B0403430B4346
:100EB000536090E7638D064950689BB2084008492B
:100EC0002385DBB239431B040B43034353607DE7A7
:100ED000009800FC0020FF010000FF0100E800FE78
:100EE00000200002F0B5C646412700B5C45D984613
:100EF0000225202C34D1802306681B02B4691C40D3
:100F00002ED14023C35C012B2AD043462035C55542
:100F10002035313F475544644385164B4262C362D6
:100F2000154B4363438DFF2B1ED88025428DAD04A6
:100F300092B2D4B2240490238905890D9B010285C5
:100F40000B4372680D4911400B432B4323437360DD
:100F5000002240230025C2543368F4321343336027
:100F6000280004BC9046F0BDFF2480252404FF2205
:100F70006D04E0E70000FFFF15180008009800FC72
:100F8000036810B599691A68436B002B00D0984725
:100F900010BDC0467047C0467047C0467047C04647
:100FA0007047C0467047C0467047C0467047C0464D
:100FB0007047C0467047C0467047C0460023422273
:100FC00070B583543F4A0400C2624385436C026893
:100FD000194341234164C15C282905D0C15C2929FA
:100FE00002D0C15C2A292ED141202821235C205C1B
:100FF0000B40283B5D1EAB41AF255B42AB43473BFB
:101000000140282901D0F7235B4211680B4013608F
:1010100028214123E1540023802123632A4BC90165
:10102000636313680B4021D18020116800020140E6
:101030002ED14123E25C602A3BD040232000E154C2
:10104000FFF7B8FF70BDC15CC15CFE201168814331
:101050001160E15C602901D02021E154002380214E
:10106000236363631368C9010B40DDD0136817491C
:10107000A06B0B401360164B002243634023E254E5
:10108000FFF7C8FB0028DDD0A06B436B9847D9E77A
:101090001168104801401160E06B0D4A4263402224
:1010A000A354FFF7B7FB0028CCD0E06B436B984705
:1010B000C8E7403AE254013BE1542000FFF77CFFCF
:1010C000C0E7C0460000FFFF59120008FFBFFFFF46
:1010D000ED150008FF7FFFFF2022F8B5040003682C
:1010E000DA61183ADA613932A05CFE20A25C1A6833
:1010F00082431A6080225868120202435A605A687A
:10110000534802405A609A69920701D500229A62B8
:1011100001229869024202D1986902439A611A68D1
:1011200052042DD41A6812042AD4628D002A03D0E6
:101130000420626C02436264042211400E1E07D038
:10114000596A636A581C60621970238D002B31D173
:10115000002542272563E555636C6563002B3AD172
:10116000E16A3C4A914215D14122A15C222967D013
:101170002021A15440222000A354FFF70FFFF8BD07
:101180004122A25C212A0FD0E26B1268526892B20F
:101190006285CAE7E26220214122A154013AA354A8
:1011A0002000FFF701FFEAE7A26B1268526892B2D3
:1011B0006285BAE700254227013B2385638D013B09
:1011C0009BB26385636C1A4362642563E555636C67
:1011D0006563002BC4D0616C2000FFF7EFFE412354
:1011E000E25C282ACBD11B4AE26220222563E2542A
:1011F000E55523686563002E12D05A6A636A591C4C
:1012000061621A70238D002B09D00422013B2385D3
:10121000638D013B9BB26385636C134363642368F6
:101220004122A15CFE21A25C1A6820008A431A6058
:101230001022DA6140230022E254FFF7B5FE9EE758
:101240000239A154013AA3542000FFF7A9FE96E702
:1012500000E800FE0000FFFFF0B54646D6464F46C8
:101260004023C0B51600C25C04000D00012A00D165
:10127000EBE00122C254303B0B422AD0334228D04B
:10128000428D0168002A00D09AE08023C26A9B0444
:101290009A4200D1A6E0C26A9A4200D1A2E0E26A74
:1012A000C64B9A4204D04123E35C292B00D10CE1C8
:1012B0001023CB6120232B4202D0334200D0C6E062
:1012C000402300220020E2541CBC90469946A246CE
:1012D000F0BD04232B4237D108232B4201D03342E7
:1012E00074D102232B42E5D03342E3D0638D002B2F
:1012F00000D0B1E08023E26A5B049A4202D0E36A44
:10130000002BD7D142230021E154013BE25C292A82
:1013100000D12CE1E25C2A2ACCD12220023AE2540C
:101320002063E35C20681340283B5A1E9341AF22A0
:101330005B4293430268453B134003604023200017
:10134000E154FFF72DFEB5E73342C5D0638D002B86
:101350000CD023685A6A636A591C61621A70238D23
:10136000013B2385638D013B9BB26385638D9BB2FB
:10137000002B9FD1E16A914A91429BD04222A35413
:10138000013AA15C292900D1DAE0A15C2A2900D028
:1013900090E722200239A1542063A25C20680A4011
:1013A000283A511E8A41AF2152428A430168453A88
:1013B0000A40026040222000A354FFF7F1FD79E7C4
:1013C0000422CB61436C1343436473E74122A15C65
:1013D000193A20680A40282A4CD0C36100224023D1
:1013E000E25467E74123E25C282A00D057E7734ABA
:1013F0002020E26200222263E0540133E2543E3BAB
:1014000062632B4211D0626A496A501C606211709B
:10141000228D002A08D0013A2285628D013A92B2CB
:101420006285626C1343636421684123E25CFE229F
:10143000E35C0B68200093430B6010230022CB6118
:101440003033E254FFF7B0FD34E702203CE72900D7
:101450002000FFF741FE33E7636A5A1C62621B7883
:1014600022689362638D013B9BB26385238D013BB0
:1014700023851FE7FE278169BC46C903CA0F924630
:101480008269120C3A408768C1688846E16802297F
:101490004AD1BF05BF0DF9094A4006210A407DD156
:1014A000A16C8C4601218846C4446146A164A16CAC
:1014B000022900D0FEE6A264C3613833E2545146EB
:1014C0003A002000FFF76EFDF4E6193BCB618B6913
:1014D0009B0701D500238B6201238A69134202D145
:1014E0008A6913438B6142230020E054013BE25C94
:1014F000292A65D0E25C2A2A00D0DBE62227023ABC
:10150000E2542763E35C1340283B5A1E9341AF2209
:101510005B4293430A68453B13400B604023E05411
:101520002000FFF73DFDC5E6B82703685146BB43E1
:10153000036040230020E0542000FFF733FDB9E6AC
:1015400021200139A1542063A25C20680A40283A76
:10155000511E8A41AF2152428A430168433A0A40F0
:10156000026040222000A354FFF718FDA2E62120CC
:10157000013AE2542063E35C20681340283B5A1E82
:101580009341AF225B4293430268433B13400360A5
:1015900040232000E154FFF701FD8BE6B8220368E9
:1015A00051469343036000224023E254624643467F
:1015B00020001A40FFF7F6FC7CE6C0460000FFFF63
:1015C0002127013AE2542763E35C1340283B5A1E6B
:1015D0009341AF225B4293430A68433B13400B6045
:1015E0004023E0542000FFF7D9FC63E68023406AE3
:1015F0001B02026810B551680B4353600023826BD5
:101600005363C26B53634133C25C602A02D0FFF75D
:10161000D1FC10BD403AC254FFF7CEFCF9E7C046FA
:101620002023026870B5D3615368040073480340F7
:101630005360002323636363714BE36210230B4207
:1016400004D00421D361636C0B43636493699B07EB
:1016500001D500239362012391690B4202D1916964
:101660000B43936141202821235C205C0B40283BE5
:101670005D1EAB41AF255B42AB43473B0140282990
:1016800001D0F7235B4211680B401360636C002BA1
:101690000CD14121605C602808D0625C212A00D115
:1016A0006CE0625C222A00D176E070BD002142200D
:1016B000636C21545248E0626185616C0B43636442
:1016C0004123E15C282905D0E15C292902D0E15CB5
:1016D0002A292ED141202821235C205C0B40283B65
:1016E0005D1EAB41AF255B42AB43473B0140282920
:1016F00001D0F7235B4211680B401360282141237E
:10170000E1540023802123633E4BC90163631368C6
:101710000B4021D180201168000201404AD14123B1
:10172000E25C602A58D040232000E154FFF742FCDD
:10173000BBE7FE20E15CE15C116881431160E15C84
:10174000602901D02021E1540023802123636363B9
:101750001368C9010B40DDD013682B49A06B0B4007
:1017600013602A4B002243634023E254FFF752F8F0
:1017700000289AD0A06B436B984796E7013A6254D1
:101780004221625C6354D2B2402A2DD04022200014
:10179000A354FFF7FFFB88E7023A62544221625CE0
:1017A0006354D2B2402A24D040222000A354FFF731
:1017B000F3FB7AE71168164801401160E06B134AA9
:1017C00042634022A354FFF725F8002800D16CE7BC
:1017D000E06B436B984768E7403AE254013BE154C1
:1017E0002000FFF7E9FB60E7A3542000FFF7DEFBD2
:1017F0005BE7A3542000FFF7DBFB56E700E800FEA1
:101800000000FFFF59120008FFBFFFFFED150008A1
:10181000FF7FFFFFF8B5CE464746402380B5160050
:10182000C25C04000D00012A00D1A1E00122C254D3
:10183000303B0B421ED033421CD004210268D361DE
:10184000436C0B43436493699B0701D50023936268
:10185000012391690B425FD020232B4202D03342F7
:1018600000D087E0402300220020E2540CBC9046C8
:101870009946F8BD04232B420BD102232B4218D0EA
:10188000334216D0636A5A1C62621B7822689362E4
:1018900007E03342F1D023685A6A636A591C6162D7
:1018A0001A70238D013B2385638D013B9BB26385B9
:1018B000D2E72B0617D440232B42CDD03342CBD0D6
:1018C000628D002A4FD1802221689204486802402C
:1018D000C2D1E76A5E48874268D180234A68DB014B
:1018E00013434B60B8E77306B6D5238D2168002BF0
:1018F00016D1638D002B13D04B689B059A0D638D19
:10190000FF2B3CD9FF23534823854B681840524B8B
:10191000034313434B609FE791690B4393619BE73C
:1019200080234A689B0413401DD14222A354013AEC
:10193000A05C212857D02020A0540E382063636378
:10194000A05C28220240283A501E8241AF20524219
:1019500082430868453A02400A6040222000A354AE
:10196000FFF71AFB78E740212000FFF727FB73E71A
:1019700002207BE729002000FFF752FE72E7638D0B
:101980003348E76A9BB22385874244D0E06A8146A8
:101990004868804647462F48074038004F46DBB22C
:1019A00038431B04034313434B6055E74220225442
:1019B0000138275C212F34D0202727540E3F27637E
:1019C0006263275C282038402838471EB841AF277B
:1019D0004042B8430F68453838400860E254200060
:1019E000FFF7DAFA38E70138A0540F382063636351
:1019F000A05C193A0240283A501E8241AF20524260
:101A000082430868433A02400A6040222000A354FF
:101A1000FFF7C0FA20E748680E4F07408020800497
:101A2000BDE7013F27540F3F27636263275C1938E6
:101A300038402838471EB841AF274042B8430F68A6
:101A4000433838400860E2542000FFF7A3FA03E768
:101A50000000FFFF009800FC0000FF01036870B564
:101A6000040080209A6940001E6802421CD0802534
:101A70008021ED00890015401140320655D5012620
:101A8000626C32436264D861002D06D00820626C1B
:101A9000024362648022D200DA6100294BD10B211B
:101AA000626C11420BD170BD80218900114052053A
:101AB0003DD53206EAD40B21626C1142F3D00021ED
:101AC0004220626C21544648E0626185616C0A43A1
:101AD00062644122A15C282935D0A15C292932D039
:101AE000A15C2A292FD0FE20A15CA15C196881434A
:101AF0001960A15C602901D02021A154002280211D
:101B0000226362631A68C9010A403CD180201968C7
:101B1000000201404AD14123E25C602A58D04023B0
:101B20002000E154FFF746FABDE7002DB7D10029A8
:101B3000B5D03206B3D50221626C0A4362648022BA
:101B40009200DA61ABE741202821225C205C0A4048
:101B5000283A551EAA41AF255242AA43473A0140AE
:101B6000282901D0F722524219680A401A60282118
:101B70004122A1540022802122631A4AC9016263D2
:101B80001A680A40C2D01A681749A06B0A401A6046
:101B9000164B002243634023E254FEF73BFE00282D
:101BA00000D180E7A06B436B98477CE71968104829
:101BB00001401960E06B0D4B43634023E254FEF794
:101BC00029FE002800D16EE7E06B436B98476AE777
:101BD000403AE254013BE1542000FFF7EDF962E79F
:101BE0000000FFFF59120008FFBFFFFFED150008BE
:101BF000FF7FFFFFF0B5CE464746412480B5035D29
:101C00000222DBB2202B1CD14026855D012D18D08D
:101C10000127223202550268B9461568BD43156096
:101C20001568A8464746094D2F4017601568294397
:101C30004D461160116829431160035500230022AD
:101C4000835510000CBC90469946F0BDFFEFFFFF96
:101C5000F0B5CE464746412480B5035D0222DBB293
:101C6000202B1BD14026855D012D17D00127223264
:101C700002550268B94615680902BD43156015682A
:101C8000A8464746084D2F404D463943116011681C
:101C900029431160035500230022835510000CBC1A
:101CA00090469946F0BDC046FFF0FFFFF0B5CE4626
:101CB000474680B5036883B00400DA072FD50C21AE
:101CC000C54842680A40042A00D104E14268114034
:101CD000082900D1F6E06368012B00D135E1002B23
:101CE00000D169E1052B00D128E2BB4BBB491A6842
:101CF0000A401A601A68BA490A401A60FEF79AFB4D
:101D000080250700B44EAD0205E0FEF793FBC01B33
:101D1000642800D94EE133682B42F6D023689A0735
:101D200029D50C22AC494868024200D1E7E0486856
:101D30000240082A00D1D9E0E368002B00D17BE102
:101D40000122A54F02253B6813433B60FEF772FB5F
:101D5000060005E0FEF76EFB801B022800D929E192
:101D60003B681D42F6D0F8213A6823698A43DB00BC
:101D700013433B6023681A072BD45A0743D58022AC
:101D8000954B5205D9690025114207D1D969013512
:101D90001143D961DB691A400192019B8026914F62
:101DA00076003B68334200D1D6E0A368012B00D116
:101DB000E3E0002B00D125E1052B00D195E10121C5
:101DC000854B1A6A8A431A621A6A03318A431A6275
:101DD000D7E0E369804D002B00D1A3E001226B6ABC
:101DE000022613436B62FEF725FB070005E0FEF7B2
:101DF00021FBC01B022800D9DCE06B6A1E42F6D032
:101E000023685A07BBD4DA0612D56269012A00D1C9
:101E100075E1053200D023E10420F8256E494A6BB4
:101E200082434A63486BA269A843D20002434A63D3
:101E30009B0622D50C2268494B6813400C2B00D11D
:101E40002DE14B681A40082A00D121E1236A624D36
:101E5000002B00D12EE180266B6B760233436B633F
:101E6000FEF7E8FA070005E0FEF7E4FAC01B0228D7
:101E700000D99FE06B6B3342F6D0636A002B1BD016
:101E80000C22554D69680A40082A2DD0022B00D13A
:101E900060E12B68544A802413402B60FEF7CAFA95
:101EA000A404060005E0FEF7C5FA801B022800D94D
:101EB00080E02B682342F6D1002003B00CBC904692
:101EC0009946F0BDC021426849020A40802149027A
:101ED0008A4200D0FFE6404A1268920300D41EE70F
:101EE0006268002A00D01AE70120E6E74A68C021AC
:101EF00049020A40802109028A4200D01CE7364A82
:101F00001268920702D5E268012AEDD1F82532481D
:101F100022690168D200A9430A4302601A0700D46B
:101F20002BE756E701226B6A022693436B62FEF7AA
:101F300081FA070004E0FEF77DFAC01B022839D8B9
:101F40006B6A1E42F7D123685BE78023224A5B025B
:101F500011680B431360D1E63B6833433B60FEF7E7
:101F600069FA804605E0FEF765FA4346C01A642820
:101F700020D83B683342F6D017E717490A6A134363
:101F80000B62FEF757FA194B8146134F022698460B
:101F900005E0FEF74FFA4B46C01A40450AD83B6AA7
:101FA0001E42F6D0012D00D198E02368DA0600D455
:101FB0003EE72AE7032080E7074D084A2B68802682
:101FC00013402B602B68064AB60213402B60FEF7C5
:101FD00031FA070011E0C04600100240FFFFFEFF8B
:101FE000FFFFFBFF00700040FFFFFFFE88130000B3
:101FF000FEF720FAC01B6428DCD82B683342F7D1E7
:1020000023688CE601226F4E0227336A93433362C2
:10201000336A033293433362FEF70CFA6A4B81460C
:10202000984605E0FEF706FA4B46C01A4045C1D86F
:10203000336A1F42F6D1B5E70122624D02262B68B2
:1020400093432B60FEF7F6F9070004E0FEF7F2F980
:10205000C01B0228AED82B681E42F7D123688AE63F
:102060000422584D02266B6B13436B636B6B033A70
:1020700093436B63FEF7DEF9070004E0FEF7DAF93D
:10208000C01B022896D86B6B1E42F7D12368CFE69F
:10209000C0224B6852021340934200D0D6E6494B0F
:1020A0005B6BDB0300D4E8E6236A012B00D1E4E696
:1020B000012002E76B6B454A802613406B63FEF7F5
:1020C000B9F97602070005E0FEF7B4F9C01B022853
:1020D00000D96FE76B6B3342F6D1CEE6394A3C4903
:1020E000D3690B40D361236860E70421354B1A6A3A
:1020F0000A431A621A6A03390A431A6241E7042141
:10210000304D02266B6B0B436B636B6B1A436A6338
:10211000FEF790F9070005E0FEF78CF9C01B0228D6
:1021200000D947E76B6B1E42F6D0F8216A6BA369B2
:102130008A43DB0013436B63236879E68022214BDB
:10214000D20219680A431A608022196852020A43AF
:102150001A60D3E52B681F4A802613402B60FEF7D8
:1021600069F9B604070005E0FEF764F9C01B022810
:1021700000D91FE72B683342F6D10F22EB6A934355
:10218000226B1343EB62A16AE36A6A680B4312494C
:1021900080240A4013436B6080232A685B04134346
:1021A0002B60FEF747F9074D0600A40405E0FEF793
:1021B00041F9801B022800D9FCE62B682342F6D0A7
:1021C0007AE6C0460010024088130000FFFFFEFFC1
:1021D000FFFFFFEFFFFFFFFEFF7FC2FFF0B5CE4620
:1021E0004746012380B50C00744989B00A68050090
:1021F0001A40A2420DD20A689A4322430A600A6832
:102200001340A34205D0012009B00CBC904699466A
:10221000F0BD2B689A0706D5F02069494A688243C9
:10222000A86802434A60DB072BD56B68644A012B20
:102230006ED0022B68D0032B00D194E01268920775
:10224000E1D503215E4E72688A4313437360FEF743
:10225000F1F86B680700012B75D0022B00D187E0E5
:10226000032B00D194E00C239846564B994604E08A
:10227000FEF7E0F8C01B484563D8424673681A422F
:10228000F6D101214D4A13680B40A34205D91368CA
:102290008B43136013681942B5D12B685B072BD4AD
:1022A0006946494B0A00180070C870C200681033B4
:1022B000106004AA100070CB70C01B68404D036012
:1022C0000C206B681840082826D00C38434258412F
:1022D0003E4B404218403E4B9C466044384B3D4A82
:1022E0005B681B061B0FD35CD8403B4B186000207B
:1022F00003F008FE002087E7314A384953680B4055
:10230000E9680B435360CBE71268920199D47AE7EE
:102310001268920395D476E70F209C0C04400C5D64
:10232000E96A0840115CC02280205202134040023A
:10233000834201D093423BD02548FDF7E5FE604340
:10234000CCE7032060E70B3398461E4B994604E028
:10235000FEF770F8C01B4845F3D842467368134037
:10236000042BF5D18DE7526BD20300D569E74AE71C
:102370000A339846134B994604E0FEF75BF8C01BFE
:102380004845DED8424673681340082BF5D178E7FC
:10239000093398460B4B994604E0FEF74BF8C01BF7
:1023A0004845CED84246736813400C2BF5D168E7F8
:1023B0000B48FDF7A9FE604390E7C04600200240AD
:1023C00000100240881300004C6B0008005A6202A3
:1023D00000127A00106F00080C000020FFF8FFFFC9
:1023E000006CDC0270B588B069461C4B0A0018000E
:1023F00070C870C200681033106004AA100070CB5F
:1024000070C01B68164D03600C206B6818400828CC
:102410000AD00C3843425841124B40421840124BEC
:102420009C46604408B070BD0F209C0C04400C5DBD
:10243000E96A0840115CC022802052021340400229
:10244000834201D0934204D00748FDF75DFE60430C
:10245000E8E70648FDF758FE6043E3E74C6B0008E9
:1024600000100240005A620200127A00006CDC0286
:10247000014B18687047C0460C000020044B054A09
:102480005B685B055B0FD35C034A1068D8407047FC
:1024900000100240206F00080C00002007230322D8
:1024A00003600A4B10B55C6822404260F0225C6811
:1024B00022408260E0225B68D2001340C360044B7C
:1024C0001A68012313400B6010BDC0460010024083
:1024D00000200240F0B5CE46474680B5036883B081
:1024E0000400DA0336D58022494B5205D96900270A
:1024F000114207D1D96901371143D961DB691A400B
:102500000192019B8026434D76002B68334254D0C4
:10251000C0213F4D89002A6A60680A4011D00140FD
:1025200091420ED08022296A2E6A520232432A62D8
:102530002A6A394B394E0B4032402A622B62CB0754
:1025400054D4334A3449136A0B4003431362012FB6
:1025500044D02368DA0706D503202D490A6B82434D
:10256000A06802430A639A0706D529492C480A6BDA
:102570000240E06802430A639A0606D51020244907
:102580000A6B8243206902430A639A0306D58020BE
:102590001F490A6B8243A06902430A6300205B055E
:1025A00006D540211A4A136B8B4361690B431363B1
:1025B00003B00CBC90469946F0BD2B6833432B60AA
:1025C000FDF738FF804605E0FDF734FF4346C01AAB
:1025D000642809D82B683342F6D099E7D3691149AA
:1025E0000B40D3612368B5E70320E1E7FDF722FF45
:1025F0000D4B80460226994605E0FDF71BFF43463A
:10260000C01A4845F0D82B6A1E42F6D0606898E799
:102610000010024000700040FFFCFFFFFFFFFEFFC4
:10262000FFFFFCFFFFFFFFEF88130000F8B5041E5B
:1026300052D0002383625D33C35CDBB2002B46D0F3
:102640005D2302224021E2542268E56813688B432F
:102650001360E023216BDB009D422ED9F0231B0188
:102660009D423BD1A76A00293DD00021A66863683E
:10267000A06933432669334366693343E6693343CC
:10268000266A33438026B600064033433B4313603B
:10269000636A000C2B43656B2B43042528400343DE
:1026A0000B435360D369174900200B40D3610023CB
:1026B000012223665D33E2540FE09D4217D00023D0
:1026C000A362002917D0802100274901CEE75C22B0
:1026D000835403F059FBB3E70120F8BD0023002722
:1026E000A3620029C1D1022300212363BEE7A76AA8
:1026F000002903D1390001230F0023638021490100
:10270000B4E7C046FFF7FFFF70B5041E4AD03D2373
:10271000C35CDBB2002B24D03D2302222C4EE254BA
:102720002268A5691368E0686168B2423CD08026DF
:10273000F605B2421AD0274EB24217D0264EB24208
:1027400041D0264EB24233D0254EB24230D0254E33
:10275000B2422DD08026B3432B431360D0629162E6
:102760001AE03C22835403F037FBD5E77026B343CD
:10277000A66833431C4E3340266933438026B34357
:102780002B431360164BD06291629A4202D0154BD4
:102790009A4201D163691363012353613D220020F2
:1027A000A35470BD0120FCE77026B343A6683343F1
:1027B0000D4E3340266933438026B3432B431360C9
:1027C000D0629162E6E7084E334026693343C1E7A1
:1027D000002C014000040040002000400040014067
:1027E0000044014000480140FFFCFFFF0368012056
:1027F000D9680143D9601A6802431A600020704703
:102800003C2370B5C25C012A67D001240222C45463
:102810000133C25403685A4D9A682A409A600A6884
:10282000402A00D195E01DD9702A00D181E02ED92F
:1028300080246401A24200D176E08024A401A24257
:102840001DD19A684F4C4D6814408A68C9682A4364
:1028500009020A4322439A6080229968D2010A43FE
:102860009A600CE0102A41D02ED9202A37D0302A85
:1028700005D170219A688A4339390A439A603D2309
:102880000122C2540022013BC254002070BD502AD4
:1028900033D0602AF3D110251C6A4A68AC43C9685A
:1028A0001C629D69384E090335402943A0251C6AE6
:1028B00099617021AC43120122431A629A688A43DB
:1028C00009390A439A60DAE7002AD8D170219A6858
:1028D0008A4369390A439A60D1E70220D6E770211A
:1028E0009A688A4349390A439A60C8E770219A680E
:1028F0008A4359390A439A60C1E74D68CA68196A20
:102900001E6A1201A6431E62F0269C69B44322434C
:102910000A24A14329439A61196270219A688A4363
:1029200019390A439A60AAE707219A688A439A608C
:10293000A5E79A68134C4D6814408A68C9682A4311
:1029400009020A43772122439A609A680A439A60EF
:1029500095E74D68CA68196A1E6A1201A6431E628D
:10296000F0269C69B44322430A24A14329439A6177
:10297000196270219A688A4329390A439A607EE76E
:102980008800FFFFFF00FFFFFF0FFFFF7047C046FB
:102990007047C0467047C0467047C0460222036871
:1029A00010B5196904000A4202D0D9680A4265D1FB
:1029B000042219690A4202D0D9680A424BD108227E
:1029C00019690A4202D0D9680A4233D11022196922
:1029D0000A4202D0D9680A421CD1012219690A426E
:1029E00002D0D9680A425CD1802219690A4202D019
:1029F000D9680A425CD1402219690A4202D0D968DA
:102A00000A425DD1202219690A4202D0D9680A42DD
:102A100041D110BD213A1A6119322277DA69C023F7
:102A20009B0020001A425ED0FFF7B2FF00232377FD
:102A30002368D2E7113A1A61DB690D322277200050
:102A40009B074DD1FFF7A2FF2000FFF7A3FF002354
:102A500023772368BAE7093A1A61073222779A691D
:102A6000C0239B0020001A4237D1FFF78FFF2000C0
:102A7000FFF790FF002323772368A0E7053A1A6148
:102A80009B69043202779B0721D0FFF781FF002367
:102A9000237723688CE7413A1A61200000F04CF854
:102AA000B7E7033A1A61200002F0BEFD23689BE7F6
:102AB000023AFF3A1A61200000F040F823689AE7D2
:102AC000813A1A612000FFF767FF23689AE7FFF752
:102AD0005DFF2000FFF75EFFD9E7FFF759FFC9E769
:102AE000FFF756FFB3E7FFF751FF2000FFF752FF54
:102AF0009CE7C04670B53C24035D012B19D03D25F1
:102B000002237026435503685A68B2435A605A68D4
:102B10000E684968324380265A609A68B2439A60C8
:102B20009A680A439A600123435500230355002005
:102B300070BD0220FCE7C0467047C0467047C046E3
:102B40000300692030B51C5C6738202C1ED1002999
:102B50001DD00138002A19D080249D686401A54247
:102B600017D068201C5C012C19D0D96450215A520E
:102B700002315A52212400221731DA665C541A5469
:102B800000201A68173113680B43136030BD012011
:102B9000FCE71C69002CE4D10142E2D0F6E70220F8
:102BA000F4E7C04603006A2070B51C5C6838202C2E
:102BB0002DD100292CD00138002A28D080259C68EE
:102BC0006D01AC4226D068255E5D012E4DD0585572
:102BD000596558215A5202315A52002C2CD11A6987
:102BE000002A3ED15C22FF21995200226A21222034
:102BF000DA66585402395A541B6867399A680020BB
:102C00000A439A609022196852000A431A6070BD04
:102C10000120FCE71C69002C19D10142F7D1682082
:102C2000185C012821D0596558215A5202315A5254
:102C30005C220F499952D8E7802252059442D4D1A0
:102C40001A69002A0DD05C223F219952CDE76820F5
:102C5000185C012809D0596558215A5202315A523C
:102C6000C0E75C227F219952BFE70220CFE7C04630
:102C7000FF0100007047C0467047C04600235A223B
:102C800010B5406A8352083A8352FFF7F5FF10BD32
:102C90008021036870B5DD69040089008B481E68D7
:102CA000FDF72CFF2B0718D1202223682A4267D179
:102CB000996880225203154202D0490200D5B1E042
:102CC00080222A4202D0324200D08CE040222A42A6
:102CD00002D0324200D07CE070BD012223689968A6
:102CE0000A4062D00121294205D0F00503D51962BE
:102CF000E06E0143E166022129425FD0002A06D03E
:102D000004201962E16E0143E16628425AD1290785
:102D100005D5B10600D57FE0002A00D07CE0E26E48
:102D2000002AD9D020222A4202D0324200D095E097
:102D3000E26E120704D440259A68154000D1A9E03C
:102D40001A6863490A401A609A682331FF318A433E
:102D50009A606A221F31A1549A68203111426BD0C7
:102D60009A68606E8A439A60002865D0594B436325
:102D7000FDF750FD0028AFD0606E436B9847ABE77E
:102D8000324200D194E74A32A25C222A58D1988C70
:102D90008023A1683A32A25A80B25B01994254D092
:102DA0001040C0B202F01AFA96E7902040000642A6
:102DB00000D17EE7012129429DD096E76907A6D57B
:102DC000002AA4D0042102201962E16E0143E166C9
:102DD0009DE719682000914319606923203AE25465
:102DE000FFF748FF78E76921615C212900D073E78C
:102DF0003131615A002952D08021A068E26C49012A
:102E0000884259D0511CE16412781A855222A35A83
:102E1000013B9BB2A3525FE708211962E26E0A43AD
:102E2000E2667CE71A6220236922A3540132A3548C
:102E3000200000F00DFA4FE72000FFF71DFF4BE7E1
:102E400008219A690A439A6146E72369002BA7D1B2
:102E5000636D1040188002336365A2E74A32A25CBA
:102E6000222A24D1988C8023A1683A32A25A80B2B7
:102E70005B01994205D01040C0B202F0AFF923685F
:102E800056E72369002BF6D1636D1040188002339A
:102E90006365F1E72000FFF7EFFEE5661CE71968C0
:102EA0009143196040211A680A431A6014E7082107
:102EB0009A690A439A613BE721690029A2D11188E6
:102EC0000232C905C90D1985E2649FE70004004874
:102ED000DFFEFFFF7D2C0008436A30B5DA0706D518
:102EE0000168284C4A682240846A22434A609A0753
:102EF00006D50168244C4A682240C46A22434A60CD
:102F00005A0706D50168214C4A682240046B2243C7
:102F10004A601A0706D501681D4C4A682240446B76
:102F200022434A60DA0606D501681A4C8A682240B4
:102F3000846B22438A609A0606D50168164C8A681B
:102F40002240C46B22438A605A060AD50168134D99
:102F50004A68046C2A4022434A6080225203944209
:102F600009D01B0606D502680D4953680B40816CD9
:102F70000B43536030BD4A680A4C2240446C2243E4
:102F80004A60EEE7FFFFFDFFFFFFFEFFFFFFFBFFD5
:102F9000FF7FFFFFFFEFFFFFFFDFFFFFFFFFEFFF01
:102FA000FFFFF7FFFFFF9FFFF0B5C646040000B527
:102FB000002837D06923C35CDBB2002B36D06923ED
:102FC00024222568E2542B68233A93432B6020691E
:102FD000A3682A6803436069E16903438D480B4392
:102FE000024013432B606B688B4A206A1340E268EF
:102FF00013436B60A369AA680343884802401343E4
:10300000AB60874B9D424FD0864B9D4263D0864B31
:103010009D4212D0854B9D420FD080231B029942C6
:1030200000D1E5E0012004BC9046F0BD6822835445
:1030300002F0F2FEC3E7002BEFD180231B0299427E
:1030400000D1C4E0FFF71AFA636825685B08181816
:103050006168FDF759F80004000CE860636A002B12
:1030600000D082E06B68724A13402A226B60AB6822
:103070009343AB602B68293A13432B600023E3662C
:10308000FDF7D8F92368664A0600934248D0654A9E
:10309000934245D020236922A3540132A354002235
:1030A0004833E2540020BEE7624B1A6B03231340FF
:1030B000614AD35C8022120291426FD0022B59D018
:1030C00000D8A2E0042B24D0082BABD163685808A9
:1030D00080231B0251E0C0208022564B80021B6BD4
:1030E00052020340934210D0A5D98022920293420B
:1030F00000D181E0834200D08FE780231B029942F8
:1031000038D1636858084D4B53E080231B02994225
:1031100078D0FFF767F9636825685B08181897E7A8
:103120001A6812072CD41A685207B3D5444A80276C
:103130009046FF03DD693D40ACD1FDF77BF9236884
:10314000801B4045F6D91A683E4903200A401A60A0
:103150009A68A331FF318A439A6020236922A354DD
:103160000132A3544833E5545DE72000FFF7B4FE75
:10317000256877E763685808334B9C46604467E7E7
:103180002F4A80279046BF03DD693D40CBD1FDF734
:1031900051F92368801B4045F6D9D4E7022BB0D003
:1031A00013D9042B2ED0082B22D163685808802312
:1031B0005B029C4661686044FCF7A6FF234B03401A
:1031C0000007400F1843E86048E7002B10D1FFF7D5
:1031D00055F9636840005B08C0186168FCF794FF0C
:1031E0001A4B256803400007400F1843E86035E795
:1031F00000230120EB6016E780231B02994200D0D8
:1032000064E7D2E7FFF7EEF8E3E7002B00D009E729
:1032100018E7C046F369FFEFFFCFFFFFFFF4FFFFA2
:10322000003801400044004000480040004C00408D
:10323000FFB7FFFF001002406C6B00080024F40091
:10324000FFFFFF015FFEFFFF00127A00F0FF0000AA
:103250007047C046014B18687047C046A80200205E
:10326000F0B5C646402317000122644C00B58846DD
:10327000E2540600FDF7DEF8802122680902936916
:103280000B40FCD1412121206054013111386054A0
:10329000414661620221BFB26364678561856363F1
:1032A0005748638D51689BB2084056492385DBB26D
:1032B000B60501431B04B60D0B4333435360638DC6
:1032C000002B15D00225FDF7B5F821688B691D424A
:1032D000FCD0636A5A1C62621B788B62638D013B6F
:1032E0009BB26385238D013B2385638D002BEAD13F
:1032F000FDF7A0F80121226893691942FCD041230F
:103300002221E15401331239E15400234146636420
:1033100067856363638D6162FF2B51D9FF23384951
:10332000238553681940384B0B4333435360344B68
:10333000042580279846638D002B2CD0FDF77AF862
:10334000226893691D42FCD0636A526A591C61620B
:103350001A70238D628D013B013A9BB292B2238594
:103360006285002BE7D1638D002BE4D0FDF762F876
:10337000226893691F42FCD0638DFF2B2ED9FF2357
:103380002385434651681940204B0B433343536018
:10339000638D002BD2D12021226893691942FCD081
:1033A000D16153681A480340536041234222E154DB
:1033B0000023A354023A0020A35404BC9046F0BD5D
:1033C000638D0F4851689BB2084012492385DBB2D8
:1033D00001431B040B4333435360A8E74146638D0D
:1033E00050689BB20840802123858904DBB20143E9
:1033F0001B040B43334353609DE7C046EC0A002097
:10340000009800FC002000020024FF010000FF01E2
:1034100000E800FE00240002F0B54F46D6464646BE
:10342000C0B5934F3B78072B00D9CEE0914A9B0063
:10343000D3589F460223904C23701D3363708F4BEB
:10344000994640234A46D35C02229046012B06D07F
:10345000013221007020FFF703FF23789846884E41
:1034600009228849300002F075FE874D10230A2298
:103470002900404602F040F9844B29009A46524602
:10348000A3783000136002F098FE3000FCF7B2FF22
:103490007F4B022219003018984602F05BFE102381
:1034A0000A222900607802F027F9524612686378F0
:1034B000944652461B02634429003000136002F018
:1034C0007CFE3000FCF796FF02224146301802F0E5
:1034D00041FE10230A222900A07802F00DF952467D
:1034E0001268A378944652461B04634429003000B6
:1034F000136002F062FE3000FCF77CFF02223018FD
:10350000414602F027FE02234A46237021336370AE
:103510001D33D35C02229146012B06D001322100DB
:103520007020FFF79DFE237899460B225949300001
:1035300002F010FE10230A222900484602F0DCF8AF
:103540002900300002F039FE3000FCF753FF022260
:103550004146301802F0FEFD10230A22607829004F
:1035600002F0CAF82900300002F027FE3000FCF714
:1035700041FF02224146301802F0ECFD10230A22DE
:10358000A078290002F0B8F82900300002F015FEFA
:103590003000FCF72FFF02224146301802F0DAFD1E
:1035A0003D4800F095FF300000F092FF3B4C2000BA
:1035B00000F08EFF3A4800F08BFF300000F088FFEB
:1035C000200000F085FF04233B701CBC9046994608
:1035D000A246F0BD334800F07BFF03233B70F4E7C5
:1035E00002233B70F1E7264C09222F49200002F00C
:1035F000B1FD2E4800F06CFF234D1F4B0A2229001D
:1036000098461878102302F077F8294800F060FFF8
:10361000280000F05DFF214E300000F059FF290026
:10362000200002F0CAFD2000FCF7E4FE0222184947
:10363000001902F08FFD43460A2229005878102312
:1036400002F05AF81B4800F043FF280000F040FF4A
:10365000300000F03DFF2900200002F0AEFD200008
:1036600000F036FF300000F033FF03233B70ACE77F
:1036700000000020706B0008B4020020EC0A00205B
:10368000FC020020586F0008C0020020F802002051
:1036900044730008646F0008706F000834750008F8
:1036A000786F0008BC6F0008286F0008346F0008AE
:1036B000406F00084C6F00080223684C02272370FB
:1036C0001A336370664B994640234A46D35C012BFC
:1036D00005D0032221007020FFF7C2FD2778614E3C
:1036E0000A226149300002F035FD604D0A221023A4
:1036F0002900380002F000F85D4FA378290030005F
:103700003B6002F05AFD3000FCF774FE594B022278
:1037100019008019984602F01DFD10230A22290085
:10372000607801F0E9FF3A68637894461B026344CD
:10373000290030003B6002F040FD3000FCF75AFEEB
:1037400002224146801902F005FD10230A222900B9
:10375000A07801F0D1FF3A68237894461B046344B3
:10376000290030003B6002F028FD3000FCF742FEEB
:10377000414F03228019390002F0ECFC02234A4633
:103780002370193363702533D35C02229146012BD9
:1037900006D0013221007020FFF762FD23789946A0
:1037A000364E0A223649300002F0D4FC10230A2299
:1037B0002900484601F0A0FF2900300002F0FDFC7E
:1037C0003000FCF717FE41468019022202F0C2FCCD
:1037D00010230A222900607801F08EFF29003000B2
:1037E00002F0EBFC3000FCF705FE41468019022296
:1037F00002F0B0FC6378A07822781B021B18120438
:103800009B18204A2900136010230A2201F074FF3C
:103810002900300002F0D1FC3000FCF7EBFD032260
:103820008019390002F096FCCFE602230B490C4ABE
:103830000B7019334B702533D35C012B03D003225B
:103840007020FFF70DFD104800F042FEBDE60F4866
:1038500000F03EFE03233B70B7E6C046B4020020F2
:10386000EC0A0020FC020020846F0008C002002047
:10387000F80200204473000834750008D4020020C8
:10388000906F0008E80200209C6F0008AC6F0008F1
:1038900010B5034C03492068FCF7C0FC206010BD44
:1038A000F802002030750000962210B5054CD200B9
:1038B00023680020934203DD06211800FCF7AEFCCC
:1038C000206010BDE802002070B5234D2B689C6974
:1038D00063062AD4230624D4E3061ED4A30602D505
:1038E00001221E4B1A608026F60034420CD180263D
:1038F000B600344207D01A4800F0EAFD41232022E6
:10390000EA542B68DE6170BD164800F0E1FD4123EA
:103910002022EA542B68DE61E9E7134800F0D8FD65
:10392000DCE7124800F0D4FDD6E7114800F0D0FDE6
:103930000223104E104A7370002313600F4A702147
:10394000137053709370280003330D4AFDF7CAFAC1
:1039500003237370BEE7C046EC0A0020FC01002080
:10396000F46F0008EC6F0008E06F0008D46F0008E7
:10397000CC6F00080000002024030020EC0200208F
:10398000B4020020F8B5234E0A2223493000FFF785
:10399000D7F8224CA023962220005B005200E25070
:1039A000283AFF3A1E491E3002F0D4FB20000025C1
:1039B0001C4907220E3002F0CDFB22001A4BA573E2
:1039C00083CB83C21B88194F1380194B38001422F4
:1039D00018491D609D80FFF7E5F890233A685B0069
:1039E000116830000B43144E136014493222FFF764
:1039F000D9F8300001220821FDF77AF8104B300089
:103A000001220821DD61A567FDF772F80D4B1D60ED
:103A1000F8BDC046380B00200C7000086408002078
:103A2000187000082E70000838700008E80B00209D
:103A300000020020C002002000040048040500200D
:103A40002803002038060020F0B5DE4645465746DC
:103A50004E46E0B597B0FFF71BFFDE4CDE4D0A2265
:103A600021000A2301AF286001F046FE3800FCF770
:103A7000C1FC2C233B5401302100381802F0ABFB71
:103A8000FFF712FFD54BD64C98461860A36F012B59
:103A900000D1D5E001220821D248FDF729F8FFF72F
:103AA000F7FEFFF701FFD04E33781F2B00D985E0DA
:103AB000CE4A9B00D3589F46AA2301225B00E250C6
:103AC000CB4B0B321800CB499946FFF739F8E36F1F
:103AD000C94F0522002B00D076E3C849380002F018
:103AE00039FB2100781D243102F075FBFFF7D0FE71
:103AF0000A230A2209A9286801F0FEFD3800FCF714
:103B000079FC82460422BE49381802F023FB534652
:103B1000D81C09A9381802F05EFBFFF7C5FE404625
:103B20000A230A2209A9006801F0E6FD3800FCF723
:103B300061FC8246B3493818042202F00BFB53465D
:103B4000D81C381809A902F046FB8423E258012A40
:103B500000D1BFE3AC4B9A468823E258012A01D139
:103B600000F078FC8C23E258012A01D100F04AFCD5
:103B70008C235B00E258012A01D100F022FC8A2349
:103B80005B00E258012A01D100F0F4FB8E235B00B8
:103B9000E258012A00D1C6E33800FCF72BFC81462D
:103BA00003229A49381802F0D5FA4B469A1C92B271
:103BB00039005046FEF7C4FF00233370944A13685F
:103BC00001331360132B03DD924B5B68012B5FD035
:103BD0009E21A020B02249006358400020580133A4
:103BE000520037786350A25883421CDA002F03D169
:103BF000B02301325B00E2503B2A27DC864A87492A
:103C00001368013313608B4206DD3378002B03D138
:103C1000804BDB6A002B22D017B03CBC9046994603
:103C2000A246AB46F0BD002FE6D17A4B986800283B
:103C3000DED16050D96900293CD111233370DBE714
:103C4000002208216748FCF753FF28E7B023002231
:103C50005B00E250FFF796FE01233370CEE713605E
:103C60006F4B704C1A68704922601B7920002371D9
:103C700043462A681B6802F077FA2000FCF7BAFB7B
:103C8000210082B25A48FEF75BFF0E233370C3E770
:103C900000236649136056480522FEF751FF9E2215
:103CA0000D2352003370A3580133A350B0235B009F
:103CB000E258A1E7012900D16FE29B69012B97D15E
:103CC0001233337098E7534B4F4F994601234A46BE
:103CD0005749936038000822FEF732FF554B180011
:103CE0009A46FCF787FB514682B23800FEF728FF60
:103CF000022251493800FEF723FF00234A46337061
:103D000013625BE70C224D493F48FEF719FF002381
:103D10008022A350337051E7002301223370803397
:103D2000E25009AB9A46362321326B441A80524640
:103D3000434B83CB83C235201968684411601B79DB
:103D40002100137102F030FA5346C31A9946022239
:103D50003C4902F0FFF94B462100981C1E315044AB
:103D600002F022FA53460322C31A3349994602F05D
:103D7000F1F9A36F002B00D198E2152333701DE7F2
:103D80000E2231492048FEF7DBFE0023214AA367BB
:103D9000D3618022A350337010E70E222B491A48BA
:103DA000FEF7CEFE0023337008E70E22284916489E
:103DB000FEF7C6FE0122174B9A610023A367123358
:103DC0003370FBE60C2223490F48FEF7B9FE0923A6
:103DD0003370F3E6C00200203C060020000A0020F9
:103DE000640800200004004804000020906B0008D4
:103DF000380B00203C720008700500204C7200084F
:103E00005472000858720008E80B0020C4710008C2
:103E10003806002028030020FC0900200F0E0000B7
:103E2000D072000864040020F4700008C872000812
:103E30003072000868030020347500082072000802
:103E4000087200081C720008F8710008E871000888
:103E5000D8710008C8710008E549380002F0A4F9DB
:103E6000C31B99460322E34902F074F94B469A1C9E
:103E700092B23900E048FEF763FE0023DF4A337058
:103E800053629BE60722DE49DB48FEF759FE95E6C2
:103E90000A22DC49D848FEF753FEAA22002352002A
:103EA000A35033708AE60822D749D348FEF748FE6C
:103EB000002333703533FF33E358012B00D07DE608
:103EC0000A3333707AE60B22D049D148FEF738FE28
:103ED0000422D049C848FEF733FE6FE60522CE49DA
:103EE000C548FEF72DFE69E60A22CC49C848FEF710
:103EF00027FECB4F0022BB88032B00D950E1802145
:103F0000C8480902FCF7F4FDBB880133BB8055E6C5
:103F1000BA4BC5499B4601235A469360BC4B0A22C3
:103F200099461800FEF70CFE0C22C0494846FEF7E1
:103F300007FEBF4B18009A46FCF75CFABD4F0128FC
:103F40000CD910225146380002F04DF9002800D15A
:103F500044E10F22B8494846FEF7F2FDB74B9A46B6
:103F60003B00524603CA03C3118848461980927821
:103F7000B3499A700722FEF7E3FD3800FCF73AFADE
:103F8000390082B24846FEF7DBFD0222AD494846C1
:103F9000FEF7D6FD5B461B68002B25D05B465B68B1
:103FA000002B21D080235B00E358012B1CD0A64BB3
:103FB000092299461800A54902F0CCF848460A2281
:103FC0005146093002F0C6F848460422A049133091
:103FD00002F0C0F8494616228748FEF7B1FD3900C5
:103FE0008348F83102F0F7F89A2301225B00E2508F
:103FF00000233370E2E50F2296497F48FEF7A0FDCB
:10400000F8230021944AD150E13B3370D6E50B22CE
:1040100092497948FEF794FD0D233370CEE5904F19
:1040200007229049380002F0DEF8002800D145E16F
:1040300003228D49380002F0D6F8002800D143E170
:104040009A22002301215200A3500432A150337060
:10405000B4E51E2285496848FEF772FD1F233370C0
:10406000ACE5092282496448FEF76AFD10233370EB
:10407000A4E509227F496048FEF762FDA8230522D6
:104080005B00E250483BFF3B337097E509227A49D9
:104090005948FEF755FD072333708FE5092277490C
:1040A0005B48FEF74DFD0B2275495348FEF748FD6E
:1040B0000122524B5A601A60062333707EE50922B2
:1040C00070494D48FEF73CFD78E5514F0C226E4992
:1040D0003800FEF735FD524B99469B88032B66D876
:1040E000012204216948FCF703FD4B464A469B88A0
:1040F00067490133938038000C22FEF721FD5DE50E
:10410000082264494248FEF71BFD80210122090272
:104110004448FCF7EDFC0022414B9A8003233370A6
:104120004CE543465C4F1B682A685C49380002F046
:104130001BF83800FCF75EF9390082B23448FEF70C
:10414000FFFC2E4B1A68002A00D151E75B68002B58
:1041500000D14DE780235B00E358012B00D147E7F6
:10416000394B092299461800384901F0F3FF4846B7
:104170000A223249093001F0EDFF48460422344951
:10418000133001F0E7FF494616221B48FEF7D8FC22
:104190003900174802F01FF82AE7142333702BE583
:1041A00004213A48FCF7A4FC0223337006E5002200
:1041B00004213648FCF79CFC04230B2238493800C4
:1041C0003370FEF7BDFCF9E43649380001F0C2FF58
:1041D0002100781D943101F0FEFFB6E40C22324933
:1041E0004846FEF7ADFC5146380001F0F4FFB5E655
:1041F00098050020C4710008E80B00202803002067
:10420000A47200089872000874710008B472000863
:10421000380B0020C0720008AC720008487000081B
:104220000002002000080048807100088C7100081E
:10423000160900206C030020AC71000818710008FA
:10424000BC71000834750008040500200C710008DA
:104250004871000864710008680300202471000898
:1042600039090020307100084C710008D470000832
:10427000C8700008BC700008B07000089870000892
:10428000A47000088C7000086070000800040048EA
:10429000707000085470000864040020F470000876
:1042A000807000085C7200089C7100084A46023267
:1042B00092B251467B48FEF743FC7FE413227A49D1
:1042C0007848FEF73DFCBBE6132278497548FEF7B7
:1042D00037FCB5E60022E2502C2393463B700532B2
:1042E0007349781C01F036FF2100B81D943101F0AC
:1042F0005BFFC21B92B239004846FEF721FC072241
:104300006C494846FEF71CFC3800FCF773F8654B17
:1043100082B2390018009A46FEF712FC5A46664BE4
:104320001A70FFF719FC0022E250F03B3B709346F5
:1043300062490532781C01F00DFF2100B81D4C3197
:1043400001F032FFC21B92B239004846FEF7F8FB7B
:10435000072258494846FEF7F3FB3800FCF74AF8B5
:10436000390082B25046FEF7EBFB5A46524B1A70A8
:10437000FFF712FC0022E250E83B3B7093465049A5
:104380000432781C01F0E6FE611DFF31781D01F05A
:104390000BFFC21B92B239004846FEF7D1FB072241
:1043A00044494846FEF7CCFB3800FCF723F83900B7
:1043B00082B25046FEF7C4FB5A463F4B1A70FFF7D5
:1043C000E5FB0022E250EC3B3B7093463D4907324F
:1043D000781C01F0BFFE072239004846FEF7B0FB0B
:1043E000072234494846FEF7ABFB3800FCF702F8D9
:1043F000390082B25046FEF7A3FB5A462E4B1A7084
:10440000FFF7BDFB0022E250603B3B7093462E4914
:104410000932781C01F09EFE21003800C6310A30B6
:1044200001F0C2FEC21B92B239004846FEF788FB7B
:10443000072220494846FEF783FB3800FBF7DAFFE6
:10444000390082B25046FEF77BFB5A461A4B1A706F
:10445000FFF78EFB0022E2505C3B3B7093461B490A
:104460000832781C01F076FE21003800B2310830A5
:1044700001F09AFEC21B92B239004846FEF760FB7B
:1044800007220C494846FEF75BFB3800FBF7B2FFFA
:10449000390082B25046FEF753FB5A46064B1A705B
:1044A000FFF760FBE80B002038710008507100082E
:1044B0005C720008647200086003002090720008BB
:1044C0008872000880720008747200086C7200081C
:1044D00010B50400FBF78EFF210082B20148FEF701
:1044E0002FFB10BD380B002070B51D4C88B0112279
:1044F0001C49200001F02EFE1B4D1C492A00684675
:1045000001F032FE6946200001F057FE2A001849EA
:104510001E32684601F028FE2000FBF76BFF69465B
:10452000001901F041FE05221249061B01F012FE9E
:104530002900701D9439001901F036FE3A23290034
:10454000037001257639013001F02EFE2A1B8218F6
:104550002100094801F0FEFD084B5D6208B070BD06
:104560009805002014730008F8080020287300083C
:1045700034730008407300086404002028030020FE
:10458000F0B5C64600B5564F8EB0102255493800DA
:10459000FEF7D6FA01A8FEF75DFE534C0C225349F4
:1045A000200001F0D7FD01AA514904A801F0DCFD6B
:1045B00004A9200001F00FFE4E4D4F492A0004A827
:1045C00001F0D2FD2000FBF715FF04A9201801F02F
:1045D000EBFDEB6A012B00D17DE02000FBF70AFF29
:1045E0009423464D5B00EB582018012B69D00E2216
:1045F000434901F0AFFD2000FBF7FCFE90235B0078
:10460000EB582018012B61D014223E4901F0A2FD85
:104610003D4D3E492A0004A801F0A6FD04A9200052
:1046200001F0CBFD2A003A495A3A04A801F09CFD5A
:1046300004A9200001F0C1FD2A0036493C3A04A833
:1046400001F092FD04A9200001F0B7FD2023324AB9
:10465000324904A8137001F087FD2000FBF7CAFE61
:1046600004A9201801F0A0FD05222D49061B01F028
:1046700071FD2900701DEE39201801F095FD3A23D7
:1046800029000370D039013001F08EFD0126254B41
:1046900005009846321B8218210018002C1B01F0DF
:1046A00059FDA2B241463800FEF74AFA02221E49DD
:1046B0003800FEF745FA1D4B5E620EB004BC904612
:1046C000F0BD0D221A4901F045FD94E71022194969
:1046D00001F040FD9CE71522174901F03BFD7CE706
:1046E000380B00209473000898050020A873000878
:1046F000B473000868090020BC7300086408002037
:10470000F47300081474000852090020287400088B
:1047100028730008347300086C0700203874000800
:10472000407300086404002034750008280300204A
:10473000E473000804740008CC73000830B5012548
:10474000164C83B022230F2221000095144800F05C
:10475000A3FF2000FBF74EFE124B03280CD80022CB
:10476000DA619023104AD358012B01D003B030BD39
:104770000E220E4B1A70F9E70022DD619A610C4D92
:104780000A4B14321A70210082B22800FEF7D8F9C1
:10479000022208492800FEF7D3F9E7E74004002089
:1047A0007C0700202803002064080020040000206B
:1047B000380B002034750008F0B5DE464E465746EB
:1047C0004546E0B5E64CF5B00922E6492000FEF783
:1047D000B7F9E54D00262800FBF70CFE290082B250
:1047E0002000FEF7ADF9E14F022239002000FEF76C
:1047F000A7F9290047A801F0EEFC0023A0220093AE
:104800001AA93B3347A800F047FF942399461E336B
:104810009C46D74DAC446346A9440293039580E07F
:104820000522D4491AA801F0DEFC002800D1D1E00D
:104830000422D1491AA801F0D6FC002800D1E6E0F4
:104840000422CE491AA801F0CEFC002800D115E1BF
:104850000422CB491AA801F0C6FC002814D18A23EF
:104860005B00EB58002B00D116E2C64B18009846AF
:10487000FBF7C0FD414682B22000FEF761F902223B
:1048800039002000FEF75CF9BF4B0522BF49180034
:10489000984601F0A8FC002800D1D0E10522BC49CF
:1048A0001AA801F0A0FC8046002800D1AEE1032246
:1048B000B8491AA801F097FC002800D192E104221F
:1048C000B5491AA801F08FFC002800D132E1072277
:1048D000B2491AA801F087FC8046002800D10FE1F8
:1048E0000522AF491AA801F07EFC002800D1FAE0A9
:1048F0000322AC491AA801F076FC002800D1DAE0C6
:104900000722A9491AA801F06EFC002800D1E86727
:104910000136F3B20093A0223B231AA947A800F066
:10492000BBFE1AA8FBF766FD012800D89AE182B207
:104930001AA92000FEF704F9022239002000FEF730
:10494000FFF8042299491AA801F04DFC8046031E85
:1049500000D065E701339A460093282239330DA928
:104960001AA800F099FE43461E22009349462C23C4
:104970000DA800F091FE534602991E2200930DA847
:104980002B33884600F088FE4846FBF733FD494646
:1049900082B22000FEF7D4F8032285492000FEF7FA
:1049A000CFF84046FBF726FD414682B22000FEF7D5
:1049B000C7F8022239002000FEF7C2F84B465246E3
:1049C000943BDA676B4905221AA801F00CFC002819
:1049D00000D02DE701230422009305A9393347A80D
:1049E00000F05AFE0322734905A801F0FCFB0028E1
:1049F00000D01DE7052270492000FEF7A1F804222F
:104A00005D491AA801F0EFFB002800D018E70F223B
:104A10006A492000FEF794F80123282200930DA98B
:104A200039331AA800F038FE052265490DA801F0B7
:104A3000DAFB002802D194235B00E850052261498B
:104A40000DA801F0D0FB002803D1942301225B00C4
:104A5000EA500DA8FBF7CEFC0DA982B22000FEF7AC
:104A60006FF8022239002000FEF76AF80422434959
:104A70001AA801F0B8FB002800D0E9E6012328229B
:104A8000009305A998461AA8393300F005FE1922AB
:104A900005A94D4801F0A7FB8246002800D0F0E0B0
:104AA0000B224A492000FEF74BF898235146039AFF
:104AB0005B00D150CCE6464B142298460123414678
:104AC00000931AA8393300F0E7FD0A21404601F0AF
:104AD00083F843460201101AA022453BFF3B8000A9
:104AE000520098500CE71B223A492000FEF728F8A4
:104AF000FFF7FAFC1C2238492000FEF721F8F7E600
:104B00000DAB9A460123042200939B46514639334C
:104B10001AA800F0C1FD53461B78312B00D1E6E006
:104B200016222E492000FEF70BF8962342465B0022
:104B3000EA50D5E60DAB9846012304220093414686
:104B400039331AA800F0A8FD43461B78312B00D159
:104B5000D7E0112222492000FDF7F2FFB7E6C04658
:104B6000380B0020AC7400087C0700203475000866
:104B700064080020C4740008D4740008FC740008A1
:104B800020750008680900208C0300203875000893
:104B90003C75000868750008907500089875000855
:104BA000CC7500081076000814760008B874000868
:104BB000C074000868740008CC740008DC74000835
:104BC000EC740008F4740008B008002004750008B4
:104BD000A8090020D4750008F0750008B475000815
:104BE000547500080DAB98460123042200934146FA
:104BF00039331AA800F050FD43461B78312B6ED094
:104C0000132243492000FDF79BFF58E60DAB9A465F
:104C10000123042200939B46514639331AA800F021
:104C20003BFD53461B78312B4FD0902342465B000F
:104C3000EA50384911222000FDF782FF37E6364B53
:104C400004229A460123514600934046393300F02E
:104C500023FD0A21504600F0BFFF6423584353460A
:104C6000D8601BE6922200235200AB503432AB5086
:104C70002A4A137075B03CBC90469946A246AB4692
:104C8000F0BD0D2226492000FDF75AFF982341462A
:104C9000039A5B00D150DBE50E2222492000FDF78C
:104CA0004FFF6B1DFF3398460123052200934146B9
:104CB00039331AA800F0F0FC0A21404600F08CFFBE
:104CC00064235843AC33E850CFE50D221649200049
:104CD000FDF736FF90235A465B00EA50E7E50E22C7
:104CE00012492000FDF72CFFFFF74AFCE7E51222EE
:104CF0000F492000FDF724FF96235A465B00EA5037
:104D0000EEE50D2208492000FDF71AFFDFE5C04659
:104D10007C75000854750008680900200400002014
:104D20001075000828750008447500086C750008A7
:104D3000A0750008F0B5CE46474680B5C54D87B092
:104D40000422C549280001F005FAC44EE81C3100D0
:104D500001F02AFAC24F03223900441B01F0FAF98C
:104D6000C04B02341800A2B229009846FDF7E8FEB5
:104D7000BD4B99461B69012B1FD0A825BB4C6D006C
:104D80006359012B2CD0012B06DD013B635107B089
:104D90000CBC90469946F0BD0722B549300001F0A1
:104DA00022FA002838D0AC225200A358012B00D19F
:104DB000D1E034DD013BA350E9E700224946A825B4
:104DC0000B620A61AB48310001F005FA1222AA49D0
:104DD0004046FDF7B5FEA54C6D006359012BD2D1BD
:104DE00023339946A1443100484601F0F4F90522E5
:104DF000A2494046FDF7A4FE4846FBF7FBFA4946A8
:104E000082B24046FDF79CFE022239004046FDF783
:104E100097FE00236351BAE701236351B7E70A22E3
:104E20009749300001F0DFF9002800D18FE004221B
:104E30009449300001F0D7F9002800D191E0062212
:104E40009149300001F0CFF9002800D186E0062218
:104E50008E49300001F0C7F9002800D195E0032207
:104E60008B49300001F0BFF9002800D197E00822FB
:104E70008849300001F0B7F9002800D1ACE00622E3
:104E80008549300001F0AFF9002800D19CE00F22E5
:104E90008249300001F0A7F9002800D177E70D2200
:104EA0007F49300001F09FF9002800D1AFE00722D0
:104EB0007C49300001F097F9002800D1ABE00722CF
:104EC0007949300001F08FF9051E00D1B8E00822C1
:104ED0007649300001F087F9051E00D1A7E00922CC
:104EE0007349300001F07FF9002800D18FE00822DB
:104EF0007049300001F077F9002800D187E00522E1
:104F00006D49300001F06FF9002800D0EAE04B460F
:104F10005B6A012B00D13AE70023012400930A22A7
:104F20002C3302A9300000F0B7FB20230322634991
:104F3000009402A800F0B0FB032314220093604900
:104F40001F33300000F0A8FB4B461C611FE7052211
:104F50005C4B1A701BE7FFF72FFC18E74B46986075
:104F600015E70123584C009321001F330322300022
:104F700000F092FB200001F0BCF871224000121AF0
:104F80005249200001F0F0F801E7210001234C31E3
:104F900000931E221F33300000F07EFBF7E6002353
:104FA0004B4A93604B4A13604B46196A5B6A012B6C
:104FB00015D0444B1A78092A22D001291DD01E2A67
:104FC0002FD11A3A1A70E2E680231B22E0507F3B71
:104FD000A3673C4B1A70DAE6FFF7B0FBD7E64B4607
:104FE0005B68012BE5D14B46DB69002BE1D10E223A
:104FF000344B1A70012900D0C9E616221A70C6E691
:105000004846083A4261914200D0C0E6F5E71322D3
:105010002C4B1A70BBE680212F484900FBF76EFD30
:10502000B5E61C2A00D0B2E601321A70AFE6294B71
:10503000A06718602948FFF74BFA224B1D70A6E6BF
:10504000244BA06718602648FFF742FA1D4B1D70DD
:105050009DE6C046040500201C7600087C07002061
:1050600034750008380B0020280300206408002055
:10507000347600088C03002020760008D8720008DF
:105080003C760008487600085076000858760008FC
:10509000607600086476000878760008707600086C
:1050A000807600089076000898760008B0760008B0
:1050B000D4760008E0760008EC760008680300204B
:1050C0006C030020040000206C070020E072000840
:1050D000000200203806002000040048BC760008CA
:1050E000A076000810221149300001F07CF8002859
:1050F00018D005220E49300001F075F8002800D0C4
:1051000045E601220B4B1A700B4A90804A465060CC
:10511000D0619C225200A158012900D037E6A0504E
:10512000187034E6FEF72EFC31E6C046F47600082F
:10513000087700080400002000020020214B10B571
:10514000DA68196991421DD01F4C5969A45C1F4847
:105150000132445496246400A24200DD0022DA6049
:105160004A1CE62A0FDC5A61425C3E2A12D00A2A07
:1051700006D10022425401215A61421E127849424E
:105180000D2A13D010BD0121002249425A61425C10
:105190003E2AECD10E4B9B6F013B5A4253410B22EE
:1051A0005B4213400B4A0F331370EBE7002242546B
:1051B0005A61FFF7BFFD802107488901FBF79EFC7C
:1051C000E0E7C04600020020400600207C070020E7
:1051D000640800200400002000080048B0220021DC
:1051E000094B520099503E2802D1043A013199509E
:1051F000064A07491369C8549621013349008B4276
:1052000000DD0023136170476408002000020020C5
:105210004006002038220D200023144910B54A70A2
:105220000132CA70253A0A7160324A71203A8A7195
:105230001B32CA71633A88B00A720B3A4A7203ACE5
:105240000B3268440B708B708B72237000F082FFFE
:105250000A23220000937C2102330548FBF778FDE6
:105260000448FFF735F908B010BDC046080A002011
:10527000EC0A002010770008132310B598B00B93A8
:10528000123B0C930E9310930F330F9311938023C3
:105290005B02159380231B030224169300230BA8A3
:1052A00014941793FCF702FD002800D0FEE70723B3
:1052B000029003900121684600930194FCF78EFF51
:1052C000002800D0FEE7232306900790089004A84A
:1052D0000493FDF7FFF8041E00D0FEE7FDF7C8F8C1
:1052E000FA218900FAF710FFFBF72CFA0420FBF7EC
:1052F00045FA0120220021004042FBF7EDF918B0E9
:1053000010BDC046F0B5C64600B58CB0FBF77AF8C4
:10531000FFF7B2FF8021B14C09036269E0250A431F
:10532000626163692D020B4080210193019B6269D8
:10533000C9030A4362616369A9480B408021029353
:10534000029B626989020A4362616369B2270B406A
:1053500080210393039B6269C9020A436261636906
:1053600000220B4004932900049BFBF7C1FB9D4BDB
:10537000002219009C489846FBF7BAFB9020FF01D9
:1053800000223900C005FBF7B3FB01260795002575
:1053900007A99348089609950A95FBF7ADFA434685
:1053A00007A991480793089609950A95FBF7A4FA6F
:1053B000902007A9C0050797089609950A95FBF75D
:1053C0009BFAA02390201B0207A9C005079308950C
:1053D0000995FBF791FA63690022334363616369BE
:1053E0000021334000930920009BFBF775F9092049
:1053F000FBF79EF97D4C7E4B04272360C2232000DF
:10540000FF336560A560E56026616761A561E561C0
:1054100026626562A362E56225636663FBF722F894
:10542000002800D0FEE780235B01089380230790CB
:105430005B0507A920000993FBF7BEF8002800D000
:10544000FEE707A920000796FBF7B6F8002800D072
:10545000FEE707A920000797FBF7AEF8002800D069
:10546000FEE7052307A920000793FBF7A5F800280E
:1054700000D0FEE7062307A920000793FBF79CF85E
:10548000002800D0FEE7072307A920000793FBF7B9
:1054900093F8002800D0FEE7564C574BA0602360DD
:1054A000564B20616061A061E06120622000636072
:1054B000E660FBF7F5FB011E00D0FEE72000FCF7DD
:1054C00099FB011E00D0FEE72000FCF7C1FB00287D
:1054D00000D0FEE74A484B4BE02203608223D20013
:1054E000C26080225B004360002392008261FA3A2E
:1054F000836003614361C361036243628362FF3A75
:1055000003630833C2624363FDF790F8002800D0BC
:10551000FEE7E1250C243C4B3C4A6D029860D860C4
:1055200018619861D8611862586218001A605D604D
:105530005C61FDF739FD002800D0FEE7344B354AA9
:105540009860D86018619861D86118625862180034
:105550001A605D605C61FDF727FD002800D0FEE762
:105560002D4B2E4A9860D86018619861D8611862F6
:10557000586218001A605D605C61FDF715FD002837
:1055800000D0FEE7264C274B606023606423A060B8
:1055900020616061A0612000E360FDF7B5F800289C
:1055A00000D0FEE7802307A95B0120000793FDF7E9
:1055B00027F9002800D0FEE70590069005A92000F5
:1055C000FDF798FA002800D0FEE7FA204000FAF72D
:1055D00037FFFFF71FFEFEF7D5F9FEE70010024088
:1055E000000800483F130000000400489C0C002005
:1055F00000240140EC0A0020005400400E09002065
:10560000180A002000380040380B00200038014004
:10561000E80B0020004400407C0A002000480040C5
:10562000A80B0020002C014070B5174C0500236822
:105630001D2B0DDC01332360144A636893420FDC99
:105640000133636080232A68DB059A4218D070BD5D
:1056500000232360FFF772FD63680C4A9342EFDD7D
:1056600000236360FDF7D8FEFEF7EEF980210848BD
:10567000C901FBF743FA80232A68DB059A42E6D189
:10568000FAF7D0FEE3E7C04630020020E70300004F
:1056900000080048FEE7C046F0B50600013A05A83C
:1056A0000078D7B232788446002500240020002AF2
:1056B0000CD117E01F2A04D90A55BC4201DA013483
:1056C00024B2013000B2325C002A0BD09342F1D1F7
:1056D000AC4509D0013000B2325C0135EDB2002496
:1056E000002AF3D1AC4503D1091900230B70F0BD9A
:1056F00001204042F9E7C046F8B54546DE46574628
:105700004E468046E0B50D000A2B00D192E0102BEA
:105710000DD00C00012630232370AC190023280083
:1057200023703CBC90469946A246AB46F8BD013A70
:10573000013B010F00D0EDE1002A00DC30E2011650
:10574000194000D10AE22C000023092900D8F0E119
:1057500037312170591C0BB26C188A42DEDD41468C
:105760000902090FE818002900D1E8E1092900D849
:10577000E5E13731017001339BB219B2EC189A425E
:10578000CCDD43461803000F6B18002800D1D9E187
:10579000092800D8D6E13730187001318BB219B220
:1057A000EC189A42BADD43461804000F6B18002823
:1057B00000D1CAE1092800D8C7E13730187001319B
:1057C0008BB219B2EC189A42A8DD43461805000FB7
:1057D0006B18002800D1BBE1092800D8B8E13730A8
:1057E000187001318BB219B2EC189A4296DD43461B
:1057F0001B061B0F6818002B00D1ACE1092B00D849
:10580000A9E13733037001318BB219B2EC189A4217
:1058100000DC83E742460F2313406A18002B00D1B7
:10582000B8E1092B00D8B5E13733137001318CB2E0
:105830002C1973E70026002804DA434298462D23EA
:1058400001360B70DE494046571EFAF75DFCC3B2C5
:10585000002800D098E04046D949FAF7DBFCAC19A3
:1058600088468B46B74200DC8BE0D6494046FAF7C3
:105870004BFCC3B2002800D09BE0D2494046FAF767
:10588000C9FC89468B464846CF49FAF73DFCC3B26E
:105890000200002B00D09FE0FF331A409B464B468E
:1058A000C948CA4942439B1A18009946FAF72CFC8A
:1058B000C3B20200002B00D0A3E05B461A405001A7
:1058C000801A8301181A4B46C000801880011B1AE9
:1058D0001800BF499946FAF717FCC3B20200002B23
:1058E00000D0A8E05B461A404B46B948B94942434C
:1058F0009B1A18009846FAF707FCC3B20200002B67
:1059000000D0ADE05846B34B104058434346FA210F
:105910001B1A180089009946FAF7F6FBC3B2002B50
:1059200000D0B3E0FF3318409A464B464101091AB4
:1059300089000818C0001B1A180064219946FAF75C
:10594000E3FBC3B20200002B00D0B7E05346642053
:105950001A404B4642439B1A18000A219846FAF710
:10596000D3FBC2B20300002A00D0BCE0504642463E
:10597000184083001B185B00D31ADBB2002B00D049
:10598000C2E00136B6B2C6E63033AB550136B3B22B
:105990009A468B4940461EB2FAF73CFC53468B466A
:1059A000EC18574500DCB9E686495846FAF7ACFBD7
:1059B000C3B2844A303350435A4601362370121A18
:1059C000B3B21EB29346EC189F4200DCA6E67E49B5
:1059D0001000FAF799FBC3B2FF2202407A48303335
:1059E00050435A4601362370121AB3B21EB2914682
:1059F000EC189F4200DC91E674491000FAF784FB32
:105A0000C3B2FF21014048013033401A23708301A3
:105A1000181A4B46C000401801368001B2B21B1A5A
:105A200016B29946AC18974200DC77E61800684930
:105A3000FAF76AFBC3B2FF22024065483033504395
:105A40004A4601362370121AB3B21EB29046EC18C1
:105A50009F4200DC62E65F491000FAF755FBC3B2D3
:105A6000FF2202405B4830335043424601362370E8
:105A7000121AB3B21EB29146EC189F4200DC4DE6FA
:105A8000FA2110008900FAF73FFBC3B2FF2130333F
:105A900023704B4601404801401A800040180136EF
:105AA000C000B2B21B1A16B29946AC18974200DC7D
:105AB00034E618006421FAF727FBC3B2FF22024044
:105AC000642050434A46303301362370121AB3B271
:105AD0001EB29046EC189F4200DC1FE610000A211F
