:020000040800F2
:1000000000400020195F0008F55D0008F95D000858
:1000100000000000000000000000000000000000E0
:10002000000000000000000000000000FD5D00086E
:100030000000000000000000015E0008055E0008EE
:10004000695F0008695F0008695F0008695F000870
:10005000695F0008695F0008695F0008695F000860
:10006000695F00080D5E0008695F0008695F0008AD
:10007000695F00081D5E0008695F00082D5E0008CA
:10008000695F0008695F0008695F0008695F000830
:10009000695F0008695F0008695F00083D5E00084D
:1000A000695F0008695F0008695F0008615E000819
:1000B000715E0008695F0008695F0008695F0008F9
:1000C00010B5064C2378002B07D1054B002B02D02E
:1000D000044800E000BF0123237010BDE0010020B0
:1000E00000000000AC690008044B10B5002B03D0E1
:1000F0000349044800E000BF10BDC04600000000F6
:10010000E4010020AC690008002243088B4274D34C
:1001100003098B425FD3030A8B4244D3030B8B4208
:1001200028D3030C8B420DD3FF22090212BA030C11
:100130008B4202D31212090265D0030B8B4219D3F2
:1001400000E0090AC30B8B4201D3CB03C01A524112
:10015000830B8B4201D38B03C01A5241430B8B425A
:1001600001D34B03C01A5241030B8B4201D30B0343
:10017000C01A5241C30A8B4201D3CB02C01A52416A
:10018000830A8B4201D38B02C01A5241430A8B422D
:1001900001D34B02C01A5241030A8B4201D30B0216
:1001A000C01A5241CDD2C3098B4201D3CB01C01A30
:1001B000524183098B4201D38B01C01A524143093A
:1001C0008B4201D34B01C01A524103098B4201D328
:1001D0000B01C01A5241C3088B4201D3CB00C01A95
:1001E000524183088B4201D38B00C01A524143080D
:1001F0008B4201D34B00C01A5241411A00D2014632
:10020000524110467047FFE701B5002000F0F0F8BA
:1002100002BDC0460029F7D076E7704703460B437E
:100220007FD4002243088B4274D303098B425FD3EF
:10023000030A8B4244D3030B8B4228D3030C8B421B
:100240000DD3FF22090212BA030C8B4202D3121201
:10025000090265D0030B8B4219D300E0090AC30BD6
:100260008B4201D3CB03C01A5241830B8B4201D383
:100270008B03C01A5241430B8B4201D34B03C01A6C
:100280005241030B8B4201D30B03C01A5241C30AE4
:100290008B4201D3CB02C01A5241830A8B4201D355
:1002A0008B02C01A5241430A8B4201D34B02C01A3F
:1002B0005241030A8B4201D30B02C01A5241CDD2E4
:1002C000C3098B4201D3CB01C01A524183098B422F
:1002D00001D38B01C01A524143098B4201D34B0118
:1002E000C01A524103098B4201D30B01C01A52417B
:1002F000C3088B4201D3CB00C01A524183088B4202
:1003000001D38B00C01A524143088B4201D34B00EA
:10031000C01A5241411A00D201465241104670475C
:100320005DE0CA0F00D04942031000D34042534061
:1003300000229C4603098B422DD3030A8B4212D321
:10034000FC22890112BA030A8B420CD38901921153
:100350008B4208D3890192118B4204D389013AD090
:10036000921100E08909C3098B4201D3CB01C01A65
:10037000524183098B4201D38B01C01A5241430978
:100380008B4201D34B01C01A524103098B4201D366
:100390000B01C01A5241C3088B4201D3CB00C01AD3
:1003A000524183088B4201D38B00C01A5241D9D2EB
:1003B00043088B4201D34B00C01A5241411A00D26C
:1003C0000146634652415B10104601D34042002B68
:1003D00000D54942704763465B1000D3404201B5E7
:1003E000002000F005F802BD0029F8D016E770479C
:1003F0007047C0460023C25C0133002AFBD1581E5F
:10040000704700001021064A10B5136800200B4306
:10041000136005F0B3FC05F059FB002010BDC04689
:1004200000200240024A1368013313607047C0463F
:100430004C020020014B18687047C0464C02002057
:1004400030B583B00190FFF7F5FF019C0500631CF8
:100450005A1E9341E418FFF7EDFF401BA042FAD368
:1004600003B030BDF8B5041E00D175E0436C002B1D
:1004700068D0636CDB0605D510220120636C134342
:100480006364F8BD042023689A681040F4D1626C5C
:1004900046490A400631FF310A43626403229968E3
:1004A0000A40012A73D01821DA688A43A1680A43F6
:1004B000DA601A696168920092080A431A61DA6880
:1004C0003B49266A0A40DA60A26977039103E26930
:1004D000D2031143626B013A551EAA411503E2682B
:1004E000114322693943022A00D10420226B5200B1
:1004F0000A43616A2A430243012942D0C220A16A09
:10050000FF30814202D0E06A01430A43D968A56BFB
:100510001143D960802149058D421FD0691E0629EB
:100520001CD9DB6823490B40934220D01222636C14
:1005300001209343023A13436364A36C0F3A1343BD
:10054000A3649EE740228364835405F0E9FA636C58
:10055000DB0600D590E795E7012092E7072158696F
:10056000884358615869294001435961D9E70023FC
:100570000322A364636C00209343023A1343636431
:100580007FE7002E0AD1802149020A43B6E71968A5
:100590000A4294D1DA68120491D484E72025606C71
:1005A00028436064A06C0143A164A7E7FDFEFFFF40
:1005B0001902FEFFE7FF3F830023F0B583B00193EC
:1005C0004033C25C0400012A44D001222668806BBB
:1005D000E254B3685B0709D520220120636C134302
:1005E000636440230022E25403B0F0BD0B68334D36
:1005F0001F00AC464D689A40103F65452CD0B56A47
:100600002A43B2628022520590420FD00138062858
:100610000CD90722886871691140884206D0716937
:1006200091437161716902400A437261022F0FD8D0
:1006300023490A68102B29D0113B584243412148D5
:100640005B420340802040048446634413430B60B4
:100650000020C6E70220C7E7B16A9143B162022FCA
:10066000F6D8174A1168102B0ED0113B1A00531EF2
:100670009A41144B52421340134A94466344104A21
:100680000B4013600020ACE7104BF8E780231B04FD
:100690001A430F4B0A6018680E49FFF735FD8300B7
:1006A000181840000190019B002BD1D0019B013B09
:1006B0000193019B002BF9D1002092E7011000006B
:1006C00008270140000040FFFFFFBFFFFFFF7FFF43
:1006D0000C00002040420F00FF22032330B514001D
:1006E000C5B22B40DB009C4089010A40E4439A409C
:1006F00000280BDB0C4B80089C46C0238000604424
:100700009B00C1580C402243C25030BD0F23074903
:100710002B408C46083B9B089B006344D9690C40E6
:100720002243DA61F1E7C04600E100E000ED00E0BD
:100730001F2318401E3B8340014A13607047C04688
:1007400000E100E00A4A431E012093420ED8C02176
:10075000084A09485360036A09061B021B0A0B4337
:100760000362002300209360073313607047C04684
:10077000FFFFFF0010E000E000ED00E0054A136815
:10078000042803D004218B43136070471843106082
:10079000FBE7C04610E000E07047C04610B5FFF729
:1007A000FBFF10BD70B5041E2BD02125022343553D
:1007B0000068154A0368A1681A4063680B43E16842
:1007C0000B4321690B4361690B43A1690B43E16949
:1007D0000B43134303600D4B14219C466044FFF709
:1007E00093FC0B4B0122E363002380002064002074
:1007F000A362E36223636363A36362551F32A3545E
:1008000070BD0120FCE7C0460FC0FFFFF8FFFDBF31
:1008100000000240212370B5C25C022A03D01D3BB8
:100820008363012070BD0E240268056C1168A1432A
:100830001160012114688C4314600C00AC40C26B41
:100840005460C15400222023C254436B002B02D0B9
:1008500098470020E6E70020E4E7C046F8B5042406
:100860002600036CC56B9E402A6801680F683242FF
:100870000DD03C420BD00B689B0602D40B68A343FF
:100880000B60C36A6E60002B00D09847F8BD02244D
:1008900026009E40324214D03C4212D00B689B0688
:1008A00006D40A220B6893430B602123093AC254F1
:1008B000202300226E60C254836A002BE6D0984742
:1008C000E4E7082426009E403242DFD03C42DDD0DF
:1008D0000A680634A2430A600122110099402123CC
:1008E00069608263C2540022013BC254036B002B37
:1008F000CCD09847CAE7C046F0B54E46DE465746CC
:100900004546E0B58946096885B0002900D182E0F6
:10091000704B00229B46704B8A46984601255446F0
:1009200095402C40009472D04B46596810230F001C
:100930009F430197022F00D174E0036856009C4644
:100940000323B3406446DB431C40270003240C40D0
:10095000B440A4463C0067463C43019F0460013F0D
:10096000012F00D87BE0C5682B404D46AD68B540EF
:100970002B43C36080235B05194248D05B460124AA
:100980005D4603260F279B6916402343AB61AB6985
:10099000B6002340514CB740A44690240393039BD8
:1009A00093089B0063449D68E405BD43A04212D0B8
:1009B0004B4FB84200D180E04A4FB84200D178E0B6
:1009C000494FB84200D17CE0484FB84200D17CE0AA
:1009D0000527B7403D439D604346009C1B68E543A7
:1009E000CC034ED444462B40236063688C034FD421
:1009F00044462B406360A368CC0250D444462B404D
:100A0000A360E368890251D42B404146CB60534632
:100A10000132D34082D105B03CBC90469946A246F3
:100A2000AB46F0BD07260F241640B600B440D308ED
:100A30009B00C3181F6AA7434C462469B440260094
:100A40003E431E6203235600B340DB4307681F404A
:100A5000BC4603270F40B7406446274307608768BA
:100A60004C461F40BC46E7686446B7402743012414
:100A700087604768AF430D09254095403D43456079
:100A800071E7009C23434446236063688C03AFD521
:100A9000009C234344466360A368CC02AED5009C0F
:100AA00023434446A360E3688902ADD500990B4314
:100AB000ABE70227B7403D438DE70124B44025430F
:100AC00089E70324B440254385E70427B7403D4325
:100AD00081E7C046001002400004014000000140D0
:100AE0000004004800080048000C004800100048BE
:100AF000002A01D1816270478161FCE74369594056
:100B00004161704710B5041E4CD04123C35CDBB279
:100B1000002B42D0412324220121E2542368A06803
:100B20001A688A431A6061681F4A0A401A619A6803
:100B30001E490A409A60E268012A29D084210902EC
:100B400001439960022A02D1802212015A60596839
:100B5000174A00200A435A60DA6814490A40DA60EA
:100B6000616922690A43A16909020A43DA60216ABC
:100B7000E2690A4301211A601A680A431A600023D5
:100B800041221F316364A15401322363A35410BD79
:100B90008021090201439960D9E74022835405F07E
:100BA00001F8B7E70120F2E7FFFFFFF0FF7FFFFF4B
:100BB00000800002F0B5C646412700B5C45D9846E6
:100BC0000225202C34D1802306681B02B4691C4006
:100BD0002ED14023C35C012B2AD043462035C55576
:100BE0002035313F475544644385164B4262C3620A
:100BF000154B4363438DFF2B1ED88025428DAD04DA
:100C000092B2D4B2240490238905890D9B010285F8
:100C10000B4372680D4911400B432B432343736010
:100C2000002240230025C2543368F432134333605A
:100C3000280004BC9046F0BDFF2480252404FF2238
:100C40006D04E0E70000FFFFE5140008009800FCD9
:100C5000036810B599691A68436B002B00D0984758
:100C600010BDC0467047C0467047C0467047C0467A
:100C70007047C0467047C0467047C0467047C04680
:100C80007047C0467047C0467047C04600234222A6
:100C900070B583543F4A0400C2624385436C0268C6
:100CA000194341234164C15C282905D0C15C29292D
:100CB00002D0C15C2A292ED141202821235C205C4E
:100CC0000B40283B5D1EAB41AF255B42AB43473B2E
:100CD0000140282901D0F7235B4211680B401360C3
:100CE00028214123E1540023802123632A4BC90199
:100CF000636313680B4021D180201168000201401A
:100D00002ED14123E25C602A3BD040232000E154F5
:100D1000FFF7B8FF70BDC15CC15CFE201168814364
:100D20001160E15C602901D02021E1540023802181
:100D3000236363631368C9010B40DDD0136817494F
:100D4000A06B0B401360164B002243634023E25418
:100D5000FFF760FD0028DDD0A06B436B9847D9E713
:100D60001168104801401160E06B0D4A4263402257
:100D7000A354FFF74FFD0028CCD0E06B436B98479E
:100D8000C8E7403AE254013BE1542000FFF77CFF02
:100D9000C0E7C0460000FFFF290F0008FFBFFFFFAC
:100DA000BD120008FF7FFFFF2022F8B50400036892
:100DB000DA61183ADA613932A05CFE20A25C1A6866
:100DC00082431A6080225868120202435A605A68AD
:100DD000534802405A609A69920701D500229A62EC
:100DE00001229869024202D1986902439A611A6805
:100DF00052042DD41A6812042AD4628D002A03D01A
:100E00000420626C02436264042211400E1E07D06B
:100E1000596A636A581C60621970238D002B31D1A6
:100E2000002542272563E555636C6563002B3AD1A5
:100E3000E16A3C4A914215D14122A15C222967D046
:100E40002021A15440222000A354FFF70FFFF8BD3A
:100E50004122A25C212A0FD0E26B1268526892B242
:100E60006285CAE7E26220214122A154013AA354DB
:100E70002000FFF701FFEAE7A26B1268526892B206
:100E80006285BAE700254227013B2385638D013B3C
:100E90009BB26385636C1A4362642563E555636C9A
:100EA0006563002BC4D0616C2000FFF7EFFE412387
:100EB000E25C282ACBD11B4AE26220222563E2545D
:100EC000E55523686563002E12D05A6A636A591C7F
:100ED00061621A70238D002B09D00422013B238507
:100EE000638D013B9BB26385636C1343636423682A
:100EF0004122A15CFE21A25C1A6820008A431A608C
:100F00001022DA6140230022E254FFF7B5FE9EE78B
:100F10000239A154013AA3542000FFF7A9FE96E735
:100F200000E800FE0000FFFFF0B54646D6464F46FB
:100F30004023C0B51600C25C04000D00012A00D198
:100F4000EBE00122C254303B0B422AD0334228D07E
:100F5000428D0168002A00D09AE08023C26A9B0477
:100F60009A4200D1A6E0C26A9A4200D1A2E0E26AA7
:100F7000C64B9A4204D04123E35C292B00D10CE1FB
:100F80001023CB6120232B4202D0334200D0C6E095
:100F9000402300220020E2541CBC90469946A24601
:100FA000F0BD04232B4237D108232B4201D033421A
:100FB00074D102232B42E5D03342E3D0638D002B62
:100FC00000D0B1E08023E26A5B049A4202D0E36A77
:100FD000002BD7D142230021E154013BE25C292AB6
:100FE00000D12CE1E25C2A2ACCD12220023AE25440
:100FF0002063E35C20681340283B5A1E9341AF22D4
:101000005B4293430268453B13400360402320004A
:10101000E154FFF72DFEB5E73342C5D0638D002BB9
:101020000CD023685A6A636A591C61621A70238D56
:10103000013B2385638D013B9BB26385638D9BB22E
:10104000002B9FD1E16A914A91429BD04222A35446
:10105000013AA15C292900D1DAE0A15C2A2900D05B
:1010600090E722200239A1542063A25C20680A4044
:10107000283A511E8A41AF2152428A430168453ABB
:101080000A40026040222000A354FFF7F1FD79E7F7
:101090000422CB61436C1343436473E74122A15C98
:1010A000193A20680A40282A4CD0C3610022402304
:1010B000E25467E74123E25C282A00D057E7734AED
:1010C0002020E26200222263E0540133E2543E3BDE
:1010D00062632B4211D0626A496A501C60621170CF
:1010E000228D002A08D0013A2285628D013A92B2FF
:1010F0006285626C1343636421684123E25CFE22D3
:10110000E35C0B68200093430B6010230022CB614B
:101110003033E254FFF7B0FD34E702203CE729000A
:101120002000FFF741FE33E7636A5A1C62621B78B6
:1011300022689362638D013B9BB26385238D013BE3
:1011400023851FE7FE278169BC46C903CA0F924663
:101150008269120C3A408768C1688846E1680229B2
:101160004AD1BF05BF0DF9094A4006210A407DD189
:10117000A16C8C4601218846C4446146A164A16CDF
:10118000022900D0FEE6A264C3613833E25451461E
:101190003A002000FFF76EFDF4E6193BCB618B6946
:1011A0009B0701D500238B6201238A69134202D178
:1011B0008A6913438B6142230020E054013BE25CC7
:1011C000292A65D0E25C2A2A00D0DBE62227023AEF
:1011D000E2542763E35C1340283B5A1E9341AF223D
:1011E0005B4293430A68453B13400B604023E05445
:1011F0002000FFF73DFDC5E6B82703685146BB4315
:10120000036040230020E0542000FFF733FDB9E6DF
:1012100021200139A1542063A25C20680A40283AA9
:10122000511E8A41AF2152428A430168433A0A4023
:10123000026040222000A354FFF718FDA2E62120FF
:10124000013AE2542063E35C20681340283B5A1EB5
:101250009341AF225B4293430268433B13400360D8
:1012600040232000E154FFF701FD8BE6B82203681C
:1012700051469343036000224023E25462464346B2
:1012800020001A40FFF7F6FC7CE6C0460000FFFF96
:101290002127013AE2542763E35C1340283B5A1E9E
:1012A0009341AF225B4293430A68433B13400B6078
:1012B0004023E0542000FFF7D9FC63E68023406A16
:1012C0001B02026810B551680B4353600023826B08
:1012D0005363C26B53634133C25C602A02D0FFF791
:1012E000D1FC10BD403AC254FFF7CEFCF9E7C0462E
:1012F0002023026870B5D36153680400734803402B
:101300005360002323636363714BE36210230B423A
:1013100004D00421D361636C0B43636493699B071E
:1013200001D500239362012391690B4202D1916997
:101330000B43936141202821235C205C0B40283B18
:101340005D1EAB41AF255B42AB43473B01402829C3
:1013500001D0F7235B4211680B401360636C002BD4
:101360000CD14121605C602808D0625C212A00D148
:101370006CE0625C222A00D176E070BD0021422040
:10138000636C21545248E0626185616C0B43636475
:101390004123E15C282905D0E15C292902D0E15CE8
:1013A0002A292ED141202821235C205C0B40283B98
:1013B0005D1EAB41AF255B42AB43473B0140282953
:1013C00001D0F7235B4211680B40136028214123B1
:1013D000E1540023802123633E4BC90163631368FA
:1013E0000B4021D180201168000201404AD14123E5
:1013F000E25C602A58D040232000E154FFF742FC11
:10140000BBE7FE20E15CE15C116881431160E15CB7
:10141000602901D02021E1540023802123636363EC
:101420001368C9010B40DDD013682B49A06B0B403A
:1014300013602A4B002243634023E254FFF7EAF98A
:1014400000289AD0A06B436B984796E7013A625404
:101450004221625C6354D2B2402A2DD04022200047
:10146000A354FFF7FFFB88E7023A62544221625C13
:101470006354D2B2402A24D040222000A354FFF764
:10148000F3FB7AE71168164801401160E06B134ADC
:1014900042634022A354FFF7BDF9002800D16CE756
:1014A000E06B436B984768E7403AE254013BE154F4
:1014B0002000FFF7E9FB60E7A3542000FFF7DEFB05
:1014C0005BE7A3542000FFF7DBFB56E700E800FED4
:1014D0000000FFFF290F0008FFBFFFFFBD1200083B
:1014E000FF7FFFFFF8B5CE464746402380B5160084
:1014F000C25C04000D00012A00D1A1E00122C25407
:10150000303B0B421ED033421CD004210268D36111
:10151000436C0B43436493699B0701D5002393629B
:10152000012391690B425FD020232B4202D033422A
:1015300000D087E0402300220020E2540CBC9046FB
:101540009946F8BD04232B420BD102232B4218D01D
:10155000334216D0636A5A1C62621B782268936217
:1015600007E03342F1D023685A6A636A591C61620A
:101570001A70238D013B2385638D013B9BB26385EC
:10158000D2E72B0617D440232B42CDD03342CBD009
:10159000628D002A4FD1802221689204486802405F
:1015A000C2D1E76A5E48874268D180234A68DB017E
:1015B00013434B60B8E77306B6D5238D2168002B23
:1015C00016D1638D002B13D04B689B059A0D638D4C
:1015D000FF2B3CD9FF23534823854B681840524BBF
:1015E000034313434B609FE791690B4393619BE770
:1015F00080234A689B0413401DD14222A354013A20
:10160000A05C212857D02020A0540E3820636363AB
:10161000A05C28220240283A501E8241AF2052424C
:1016200082430868453A02400A6040222000A354E1
:10163000FFF71AFB78E740212000FFF727FB73E74D
:1016400002207BE729002000FFF752FE72E7638D3E
:101650003348E76A9BB22385874244D0E06A8146DB
:101660004868804647462F48074038004F46DBB25F
:1016700038431B04034313434B6055E74220225475
:101680000138275C212F34D0202727540E3F2763B1
:101690006263275C282038402838471EB841AF27AE
:1016A0004042B8430F68453838400860E254200093
:1016B000FFF7DAFA38E70138A0540F382063636384
:1016C000A05C193A0240283A501E8241AF20524293
:1016D00082430868433A02400A6040222000A35433
:1016E000FFF7C0FA20E748680E4F074080208004CB
:1016F000BDE7013F27540F3F27636263275C19381A
:1017000038402838471EB841AF274042B8430F68D9
:10171000433838400860E2542000FFF7A3FA03E79B
:101720000000FFFF009800FC0000FF01036870B597
:10173000040080209A6940001E6802421CD0802567
:101740008021ED00890015401140320655D5012653
:10175000626C32436264D861002D06D00820626C4E
:10176000024362648022D200DA6100294BD10B214E
:10177000626C11420BD170BD80218900114052056D
:101780003DD53206EAD40B21626C1142F3D0002120
:101790004220626C21544648E0626185616C0A43D4
:1017A00062644122A15C282935D0A15C292932D06C
:1017B000A15C2A292FD0FE20A15CA15C196881437D
:1017C0001960A15C602901D02021A1540022802150
:1017D000226362631A68C9010A403CD180201968FB
:1017E000000201404AD14123E25C602A58D04023E4
:1017F0002000E154FFF746FABDE7002DB7D10029DC
:10180000B5D03206B3D50221626C0A4362648022ED
:101810009200DA61ABE741202821225C205C0A407B
:10182000283A551EAA41AF255242AA43473A0140E1
:10183000282901D0F722524219680A401A6028214B
:101840004122A1540022802122631A4AC901626305
:101850001A680A40C2D01A681749A06B0A401A6079
:10186000164B002243634023E254FEF7D3FF0028C7
:1018700000D180E7A06B436B98477CE7196810485C
:1018800001401960E06B0D4B43634023E254FEF7C7
:10189000C1FF002800D16EE7E06B436B98476AE711
:1018A000403AE254013BE1542000FFF7EDF962E7D2
:1018B0000000FFFF290F0008FFBFFFFFBD12000857
:1018C000FF7FFFFFF0B5CE464746412480B5035D5C
:1018D0000222DBB2202B1CD14026855D012D18D0C1
:1018E0000127223202550268B9461568BD431560CA
:1018F0001568A8464746094D2F40176015682943CB
:101900004D461160116829431160035500230022E0
:10191000835510000CBC90469946F0BDFFEFFFFFC9
:10192000F0B5CE464746412480B5035D0222DBB2C6
:10193000202B1BD14026855D012D17D00127223297
:1019400002550268B94615680902BD43156015685D
:10195000A8464746084D2F404D463943116011684F
:1019600029431160035500230022835510000CBC4D
:1019700090469946F0BDC046FFF0FFFFF0B5CE4659
:10198000474680B5036883B00400DA072FD50C21E1
:10199000C54842680A40042A00D104E14268114067
:1019A000082900D1F6E06368012B00D135E1002B56
:1019B00000D169E1052B00D128E2BB4BBB491A6875
:1019C0000A401A601A68BA490A401A60FEF732FDE6
:1019D00080250700B44EAD0205E0FEF72BFDC01BCD
:1019E000642800D94EE133682B42F6D023689A0769
:1019F00029D50C22AC494868024200D1E7E048688A
:101A00000240082A00D1D9E0E368002B00D17BE135
:101A10000122A54F02253B6813433B60FEF70AFDF8
:101A2000060005E0FEF706FD801B022800D929E12B
:101A30003B681D42F6D0F8213A6823698A43DB00EF
:101A400013433B6023681A072BD45A0743D58022DF
:101A5000954B5205D9690025114207D1D969013545
:101A60001143D961DB691A400192019B8026914F95
:101A700076003B68334200D1D6E0A368012B00D149
:101A8000E3E0002B00D125E1052B00D195E10121F8
:101A9000854B1A6A8A431A621A6A03318A431A62A8
:101AA000D7E0E369804D002B00D1A3E001226B6AEF
:101AB000022613436B62FEF7BDFC070005E0FEF74C
:101AC000B9FCC01B022800D9DCE06B6A1E42F6D0CC
:101AD00023685A07BBD4DA0612D56269012A00D1FD
:101AE00075E1053200D023E10420F8256E494A6BE8
:101AF00082434A63486BA269A843D20002434A6307
:101B00009B0622D50C2268494B6813400C2B00D150
:101B10002DE14B681A40082A00D121E1236A624D69
:101B2000002B00D12EE180266B6B760233436B6372
:101B3000FEF780FC070005E0FEF77CFCC01B0228D6
:101B400000D99FE06B6B3342F6D0636A002B1BD049
:101B50000C22554D69680A40082A2DD0022B00D16D
:101B600060E12B68544A802413402B60FEF762FC2E
:101B7000A404060005E0FEF75DFC801B022800D9E6
:101B800080E02B682342F6D1002003B00CBC9046C5
:101B90009946F0BDC021426849020A4080214902AD
:101BA0008A4200D0FFE6404A1268920300D41EE742
:101BB0006268002A00D01AE70120E6E74A68C021DF
:101BC00049020A40802109028A4200D01CE7364AB5
:101BD0001268920702D5E268012AEDD1F825324851
:101BE00022690168D200A9430A4302601A0700D49F
:101BF0002BE756E701226B6A022693436B62FEF7DE
:101C000019FC070004E0FEF715FCC01B022839D8B8
:101C10006B6A1E42F7D123685BE78023224A5B028E
:101C200011680B431360D1E63B6833433B60FEF71A
:101C300001FC804605E0FEF7FDFB4346C01A642820
:101C400020D83B683342F6D017E717490A6A134396
:101C50000B62FEF7EFFB194B8146134F02269846A5
:101C600005E0FEF7E7FB4B46C01A40450AD83B6A41
:101C70001E42F6D0012D00D198E02368DA0600D488
:101C80003EE72AE7032080E7074D084A2B688026B5
:101C900013402B602B68064AB60213402B60FEF7F8
:101CA000C9FB070011E0C04600100240FFFFFEFF25
:101CB000FFFFFBFF00700040FFFFFFFE88130000E6
:101CC000FEF7B8FBC01B6428DCD82B683342F7D181
:101CD00023688CE601226F4E0227336A93433362F6
:101CE000336A033293433362FEF7A4FB6A4B8146A7
:101CF000984605E0FEF79EFB4B46C01A4045C1D80A
:101D0000336A1F42F6D1B5E70122624D02262B68E5
:101D100093432B60FEF78EFB070004E0FEF78AFB7F
:101D2000C01B0228AED82B681E42F7D123688AE672
:101D30000422584D02266B6B13436B636B6B033AA3
:101D400093436B63FEF776FB070004E0FEF772FB3C
:101D5000C01B022896D86B6B1E42F7D12368CFE6D2
:101D6000C0224B6852021340934200D0D6E6494B42
:101D70005B6BDB0300D4E8E6236A012B00D1E4E6C9
:101D8000012002E76B6B454A802613406B63FEF728
:101D900051FB7602070005E0FEF74CFBC01B022852
:101DA00000D96FE76B6B3342F6D1CEE6394A3C4936
:101DB000D3690B40D361236860E70421354B1A6A6D
:101DC0000A431A621A6A03390A431A6241E7042174
:101DD000304D02266B6B0B436B636B6B1A436A636C
:101DE000FEF728FB070005E0FEF724FBC01B0228D6
:101DF00000D947E76B6B1E42F6D0F8216A6BA369E6
:101E00008A43DB0013436B63236879E68022214B0E
:101E1000D20219680A431A608022196852020A43E2
:101E20001A60D3E52B681F4A802613402B60FEF70B
:101E300001FBB604070005E0FEF7FCFAC01B022810
:101E400000D91FE72B683342F6D10F22EB6A934388
:101E5000226B1343EB62A16AE36A6A680B4312497F
:101E600080240A4013436B6080232A685B04134379
:101E70002B60FEF7DFFA074D0600A40405E0FEF72D
:101E8000D9FA801B022800D9FCE62B682342F6D041
:101E90007AE6C0460010024088130000FFFFFEFFF4
:101EA000FFFFFFEFFFFFFFFEFF7FC2FFF0B5CE4653
:101EB0004746012380B50C00744989B00A680500C3
:101EC0001A40A2420DD20A689A4322430A600A6865
:101ED0001340A34205D0012009B00CBC904699469E
:101EE000F0BD2B689A0706D5F02069494A688243FD
:101EF000A86802434A60DB072BD56B68644A012B54
:101F00006ED0022B68D0032B00D194E012689207A8
:101F1000E1D503215E4E72688A4313437360FEF776
:101F200089FA6B680700012B75D0022B00D187E07E
:101F3000032B00D194E00C239846564B994604E0BD
:101F4000FEF778FAC01B484563D8424673681A42C8
:101F5000F6D101214D4A13680B40A34205D91368FD
:101F60008B43136013681942B5D12B685B072BD4E0
:101F70006946494B0A00180070C870C200681033E7
:101F8000106004AA100070CB70C01B68404D036045
:101F90000C206B681840082826D00C384342584162
:101FA0003E4B404218403E4B9C466044384B3D4AB5
:101FB0005B681B061B0FD35CD8403B4B18600020AE
:101FC00003F0DCFE002087E7314A384953680B40B4
:101FD000E9680B435360CBE71268920199D47AE722
:101FE0001268920395D476E70F209C0C04400C5D98
:101FF000E96A0840115CC02280205202134040026E
:10200000834201D093423BD02548FEF77DF86043E0
:10201000CCE7032060E70B3398461E4B994604E05B
:10202000FEF708FAC01B4845F3D8424673681340D0
:10203000042BF5D18DE7526BD20300D569E74AE74F
:102040000A339846134B994604E0FEF7F3F9C01B98
:102050004845DED8424673681340082BF5D178E72F
:10206000093398460B4B994604E0FEF7E3F9C01B91
:102070004845CED84246736813400C2BF5D168E72B
:102080000B48FEF741F8604390E7C046002002404D
:102090000010024088130000C4690008005A620260
:1020A00000127A008C6D00080C000020FFF8FFFF82
:1020B000006CDC0270B588B069461C4B0A00180041
:1020C00070C870C200681033106004AA100070CB92
:1020D00070C01B68164D03600C206B681840082800
:1020E0000AD00C3843425841124B40421840124B20
:1020F0009C46604408B070BD0F209C0C04400C5DF1
:10210000E96A0840115CC02280205202134040025C
:10211000834201D0934204D00748FDF7F5FF6043A6
:10212000E8E70648FDF7F0FF6043E3E7C46900080D
:1021300000100240005A620200127A00006CDC02B9
:10214000014B18687047C0460C000020044B054A3C
:102150005B685B055B0FD35C034A1068D84070472F
:10216000001002409C6D00080C0000200723032291
:1021700003600A4B10B55C6822404260F0225C6844
:1021800022408260E0225B68D2001340C360044BAF
:102190001A68012313400B6010BDC04600100240B6
:1021A00000200240F0B5CE46474680B5036883B0B4
:1021B0000400DA0336D58022494B5205D96900273D
:1021C000114207D1D96901371143D961DB691A403E
:1021D0000192019B8026434D76002B68334254D0F8
:1021E000C0213F4D89002A6A60680A4011D0014031
:1021F00091420ED08022296A2E6A520232432A620C
:102200002A6A394B394E0B4032402A622B62CB0787
:1022100054D4334A3449136A0B4003431362012FE9
:1022200044D02368DA0706D503202D490A6B824380
:10223000A06802430A639A0706D529492C480A6B0D
:102240000240E06802430A639A0606D5102024493A
:102250000A6B8243206902430A639A0306D58020F1
:102260001F490A6B8243A06902430A6300205B0591
:1022700006D540211A4A136B8B4361690B431363E4
:1022800003B00CBC90469946F0BD2B6833432B60DD
:10229000FEF7D0F8804605E0FEF7CCF84346C01ABA
:1022A000642809D82B683342F6D099E7D3691149DD
:1022B0000B40D3612368B5E70320E1E7FEF7BAF8E6
:1022C0000D4B80460226994605E0FEF7B3F84346DB
:1022D000C01A4845F0D82B6A1E42F6D0606898E7CD
:1022E0000010024000700040FFFCFFFFFFFFFEFFF8
:1022F000FFFFFCFFFFFFFFEF88130000F8B5041E8F
:1023000052D0002383625D33C35CDBB2002B46D026
:102310005D2302224021E2542268E56813688B4362
:102320001360E023216BDB009D422ED9F0231B01BB
:102330009D423BD1A76A00293DD00021A668636871
:10234000A06933432669334366693343E6693343FF
:10235000266A33438026B600064033433B4313606E
:10236000636A000C2B43656B2B4304252840034311
:102370000B435360D369174900200B40D3610023FE
:10238000012223665D33E2540FE09D4217D0002303
:10239000A362002917D0802100274901CEE75C22E3
:1023A000835403F02DFCB3E70120F8BD0023002780
:1023B000A3620029C1D1022300212363BEE7A76ADB
:1023C000002903D1390001230F0023638021490133
:1023D000B4E7C046FFF7FFFF70B5041E4AD03D23A7
:1023E000C35CDBB2002B24D03D2302222C4EE254EE
:1023F0002268A5691368E0686168B2423CD0802613
:10240000F605B2421AD0274EB24217D0264EB2423B
:1024100041D0264EB24233D0254EB24230D0254E66
:10242000B2422DD08026B3432B431360D062916219
:102430001AE03C22835403F00BFCD5E77026B3432B
:10244000A66833431C4E3340266933438026B3438A
:102450002B431360164BD06291629A4202D0154B07
:102460009A4201D163691363012353613D22002025
:10247000A35470BD0120FCE77026B343A668334324
:102480000D4E3340266933438026B3432B431360FC
:10249000D0629162E6E7084E334026693343C1E7D4
:1024A000002C01400004004000200040004001409A
:1024B0000044014000480140FFFCFFFF0368012089
:1024C000D9680143D9601A6802431A600020704736
:1024D0003C2370B5C25C012A67D001240222C45497
:1024E0000133C25403685A4D9A682A409A600A68B8
:1024F000402A00D195E01DD9702A00D181E02ED963
:1025000080246401A24200D176E08024A401A2428A
:102510001DD19A684F4C4D6814408A68C9682A4397
:1025200009020A4322439A6080229968D2010A4331
:102530009A600CE0102A41D02ED9202A37D0302AB8
:1025400005D170219A688A4339390A439A603D233C
:102550000122C2540022013BC254002070BD502A07
:1025600033D0602AF3D110251C6A4A68AC43C9688D
:102570001C629D69384E090335402943A0251C6A19
:1025800099617021AC43120122431A629A688A430E
:1025900009390A439A60DAE7002AD8D170219A688B
:1025A0008A4369390A439A60D1E70220D6E770214D
:1025B0009A688A4349390A439A60C8E770219A6841
:1025C0008A4359390A439A60C1E74D68CA68196A53
:1025D0001E6A1201A6431E62F0269C69B443224380
:1025E0000A24A14329439A61196270219A688A4397
:1025F00019390A439A60AAE707219A688A439A60C0
:10260000A5E79A68134C4D6814408A68C9682A4344
:1026100009020A43772122439A609A680A439A6022
:1026200095E74D68CA68196A1E6A1201A6431E62C0
:10263000F0269C69B44322430A24A14329439A61AA
:10264000196270219A688A4329390A439A607EE7A1
:102650008800FFFFFF00FFFFFF0FFFFF7047C0462E
:102660007047C0467047C0467047C04602220368A4
:1026700010B5196904000A4202D0D9680A4265D12E
:10268000042219690A4202D0D9680A424BD10822B1
:1026900019690A4202D0D9680A4233D11022196955
:1026A0000A4202D0D9680A421CD1012219690A42A1
:1026B00002D0D9680A425CD1802219690A4202D04C
:1026C000D9680A425CD1402219690A4202D0D9680D
:1026D0000A425DD1202219690A4202D0D9680A4211
:1026E00041D110BD213A1A6119322277DA69C0232B
:1026F0009B0020001A425ED0FFF7B2FF0023237731
:102700002368D2E7113A1A61DB690D322277200083
:102710009B074DD1FFF7A2FF2000FFF7A3FF002387
:1027200023772368BAE7093A1A61073222779A6950
:10273000C0239B0020001A4237D1FFF78FFF2000F3
:10274000FFF790FF002323772368A0E7053A1A617B
:102750009B69043202779B0721D0FFF781FF00239A
:10276000237723688CE7413A1A61200000F04CF887
:10277000B7E7033A1A61200002F092FE23689BE754
:10278000023AFF3A1A61200000F040F823689AE705
:10279000813A1A612000FFF767FF23689AE7FFF785
:1027A0005DFF2000FFF75EFFD9E7FFF759FFC9E79C
:1027B000FFF756FFB3E7FFF751FF2000FFF752FF87
:1027C0009CE7C04670B53C24035D012B19D03D2524
:1027D00002237026435503685A68B2435A605A6808
:1027E0000E684968324380265A609A68B2439A60FC
:1027F0009A680A439A600123435500230355002039
:1028000070BD0220FCE7C0467047C0467047C04616
:102810000300692030B51C5C6738202C1ED10029CC
:102820001DD00138002A19D080249D686401A5427A
:1028300017D068201C5C012C19D0D96450215A5241
:1028400002315A52212400221731DA665C541A549C
:1028500000201A68173113680B43136030BD012044
:10286000FCE71C69002CE4D10142E2D0F6E702202B
:10287000F4E7C04603006A2070B51C5C6838202C61
:102880002DD100292CD00138002A28D080259C6821
:102890006D01AC4226D068255E5D012E4DD05855A5
:1028A000596558215A5202315A52002C2CD11A69BA
:1028B000002A3ED15C22FF21995200226A21222067
:1028C000DA66585402395A541B6867399A680020EE
:1028D0000A439A609022196852000A431A6070BD38
:1028E0000120FCE71C69002C19D10142F7D16820B6
:1028F000185C012821D0596558215A5202315A5288
:102900005C220F499952D8E7802252059442D4D1D3
:102910001A69002A0DD05C223F219952CDE7682028
:10292000185C012809D0596558215A5202315A526F
:10293000C0E75C227F219952BFE70220CFE7C04663
:10294000FF0100007047C0467047C04600235A226E
:1029500010B5406A8352083A8352FFF7F5FF10BD65
:10296000036870B5DC6905001E68220700D176E0B7
:10297000012299680A4054D00121214205D0F00576
:1029800003D51962E86E0143E9660221214200D1B4
:1029900072E0002A0CD004201962E96E0143E96656
:1029A000204205D0042102201962E96E0143E96644
:1029B000210705D5B10600D57CE0002A00D079E0DA
:1029C000EA6E002A2CD02022224202D0324200D0CD
:1029D0009FE0EA6E120704D440249A68144000D1A4
:1029E000B3E01A6869490A401A609A682331FF31D6
:1029F0008A439A606A221F31A9549A682031114291
:102A000068D09A68686E8A439A60002862D0604BEA
:102A10004363FDF7FFFE002802D0686E436B9847C2
:102A200070BD902040000642A6D18022520314427D
:102A300001D0490244D48022224201D0324221D125
:102A400040222242ECD03242EAD019682800914359
:102A500019606923203AEA54FFF774FFE0E7802108
:102A60004C488900FEF74AF820222B68224201D008
:102A7000324233D19968D8E7610799D5002A00D04E
:102A800090E795E76921695C2129C9D13131695AFB
:102A9000002964D08021A868EA6C490188426BD083
:102AA000511CE96412781A855222AB5A013B9BB241
:102AB000AB52B5E708211962EA6E0A43EA667FE77E
:102AC0001A6220236922AB540132AB54280000F073
:102AD0001FFAA5E72800FFF737FFA1E74A32AA5CF3
:102AE000222A37D1988C8023A9683A32AA5A80B218
:102AF0005B01994204D01040C0B202F0D5FA8FE7D2
:102B00002B69002BF7D16B6D1040188002336B6579
:102B1000F2E74A32AA5C222A29D1988C8023A9683C
:102B20003A32AA5A80B25B01994205D01040C0B235
:102B300002F0BAFA2B684CE72B69002BF6D16B6DCB
:102B40001040188002336B65F1E72800FFF7FCFEA8
:102B5000EC6665E708219A690A439A6160E719689B
:102B60009143196040211A680A431A6058E7082106
:102B70009A690A439A612CE72969002990D1118842
:102B80000232C905C90D1985EA648DE7DFFEFFFF32
:102B90004D29000800040048436A30B5DA0706D51D
:102BA0000168284C4A682240846A22434A609A0796
:102BB00006D50168244C4A682240C46A22434A6010
:102BC0005A0706D50168214C4A682240046B22430B
:102BD0004A601A0706D501681D4C4A682240446BBA
:102BE00022434A60DA0606D501681A4C8A682240F8
:102BF000846B22438A609A0606D50168164C8A685F
:102C00002240C46B22438A605A060AD50168134DDC
:102C10004A68046C2A4022434A608022520394424C
:102C200009D01B0606D502680D4953680B40816C1C
:102C30000B43536030BD4A680A4C2240446C224327
:102C40004A60EEE7FFFFFDFFFFFFFEFFFFFFFBFF18
:102C5000FF7FFFFFFFEFFFFFFFDFFFFFFFFFEFFF44
:102C6000FFFFF7FFFFFF9FFFF0B5C646040000B56A
:102C7000002837D06923C35CDBB2002B36D0692330
:102C800024222568E2542B68233A93432B60206961
:102C9000A3682A6803436069E16903438D480B43D5
:102CA000024013432B606B688B4A206A1340E26832
:102CB00013436B60A369AA68034388480240134327
:102CC000AB60874B9D424FD0864B9D4263D0864B75
:102CD0009D4212D0854B9D420FD080231B0299420A
:102CE00000D1E5E0012004BC9046F0BD6822835489
:102CF00002F0CEFFC3E7002BEFD180231B029942E5
:102D000000D1C4E0FFF722FA636825685B08181851
:102D10006168FDF7F9F90004000CE860636A002BB4
:102D200000D082E06B68724A13402A226B60AB6865
:102D30009343AB602B68293A13432B600023E3666F
:102D4000FDF778FB2368664A0600934248D0654A3F
:102D5000934245D020236922A3540132A354002278
:102D60004833E2540020BEE7624B1A6B0323134042
:102D7000614AD35C8022120291426FD0022B59D05B
:102D800000D8A2E0042B24D0082BABD163685808EC
:102D900080231B0251E0C0208022564B80021B6B17
:102DA00052020340934210D0A5D98022920293424E
:102DB00000D181E0834200D08FE780231B0299423B
:102DC00038D1636858084D4B53E080231B02994269
:102DD00078D0FFF76FF9636825685B08181897E7E4
:102DE0001A6812072CD41A685207B3D5444A8027B0
:102DF0009046FF03DD693D40ACD1FDF71BFB236826
:102E0000801B4045F6D91A683E4903200A401A60E3
:102E10009A68A331FF318A439A6020236922A35420
:102E20000132A3544833E5545DE72000FFF7B4FEB8
:102E3000256877E763685808334B9C46604467E72A
:102E40002F4A80279046BF03DD693D40CBD1FDF777
:102E5000F1FA2368801B4045F6D9D4E7022BB0D0A5
:102E600013D9042B2ED0082B22D163685808802355
:102E70005B029C4661686044FDF746F9234B0340C2
:102E80000007400F1843E86048E7002B10D1FFF718
:102E90005DF9636840005B08C0186168FDF734F9AC
:102EA0001A4B256803400007400F1843E86035E7D8
:102EB00000230120EB6016E780231B02994200D01B
:102EC00064E7D2E7FFF7F6F8E3E7002B00D009E765
:102ED00018E7C046F369FFEFFFCFFFFFFFF4FFFFE6
:102EE000003801400044004000480040004C0040D1
:102EF000FFB7FFFF00100240E46900080024F4005F
:102F0000FFFFFF015FFEFFFF00127A00F0FF0000ED
:102F10007047C046014B18687047C046A8020020A1
:102F2000F0B5C646402317000122644C00B5884620
:102F3000E2540600FDF77EFA8021226809029369B7
:102F40000B40FCD1412121206054013111386054E3
:102F5000414661620221BFB2636467856185636334
:102F60005748638D51689BB2084056492385DBB2B0
:102F7000B60501431B04B60D0B4333435360638D09
:102F8000002B15D00225FDF755FA21688B691D42EB
:102F9000FCD0636A5A1C62621B788B62638D013BB2
:102FA0009BB26385238D013B2385638D002BEAD182
:102FB000FDF740FA0121226893691942FCD04123B0
:102FC0002221E15401331239E15400234146636464
:102FD00067856363638D6162FF2B51D9FF23384995
:102FE000238553681940384B0B4333435360344BAC
:102FF000042580279846638D002B2CD0FDF71AFA04
:10300000226893691D42FCD0636A526A591C61624E
:103010001A70238D628D013B013A9BB292B22385D7
:103020006285002BE7D1638D002BE4D0FDF702FA17
:10303000226893691F42FCD0638DFF2B2ED9FF239A
:103040002385434651681940204B0B43334353605B
:10305000638D002BD2D12021226893691942FCD0C4
:10306000D16153681A480340536041234222E1541E
:103070000023A354023A0020A35404BC9046F0BDA0
:10308000638D0F4851689BB2084012492385DBB21B
:1030900001431B040B4333435360A8E74146638D50
:1030A00050689BB20840802123858904DBB201432C
:1030B0001B040B43334353609DE7C046D80A0020EE
:1030C000009800FC002000020024FF010000FF0126
:1030D00000E800FE00240002F0B54F46D646464602
:1030E000C0B5934F3B78072B00D9CEE0914A9B00A7
:1030F000D3589F460223904C23701D3363708F4B2F
:10310000994640234A46D35C02229046012B06D0C2
:10311000013221007020FFF703FF23789846884E84
:1031200009228849300002F051FF874D10230A22FE
:103130002900404602F01CFA844B29009A46524668
:10314000A3783000136002F074FF3000FDF752F9ED
:103150007F4B022219003018984602F037FF1023E7
:103160000A222900607802F003FA52461268637856
:10317000944652461B02634429003000136002F05B
:1031800058FF3000FDF736F902224146301802F0B0
:103190001DFF10230A222900A07802F0E9F9524607
:1031A0001268A378944652461B04634429003000F9
:1031B000136002F03EFF3000FDF71CF902223018C8
:1031C000414602F003FF02234A4623702133637015
:1031D0001D33D35C02229146012B06D0013221001F
:1031E0007020FFF79DFE237899460B225949300045
:1031F00002F0ECFE10230A222900484602F0B8F93A
:103200002900300002F015FF3000FDF7F3F802222C
:103210004146301802F0DAFE10230A2260782900B5
:1032200002F0A6F92900300002F003FF3000FDF79C
:10323000E1F802224146301802F0C8FE10230A22AB
:10324000A078290002F094F92900300002F0F1FE84
:103250003000FDF7CFF802224146301802F0B6FEEA
:103260003D4801F07DF8300001F07AF83B4C200039
:1032700001F076F83A4801F073F8300001F070F888
:10328000200001F06DF804233B701CBC9046994669
:10329000A246F0BD334801F063F803233B70F4E726
:1032A00002233B70F1E7264C09222F49200002F04F
:1032B0008DFE2E4801F054F8234D1F4B0A222900A1
:1032C00098461878102302F053F9294801F048F87D
:1032D000280001F045F8214E300001F041F82900A6
:1032E000200002F0A6FE2000FDF784F80222184913
:1032F000001902F06BFE43460A2229005878102379
:1033000002F036F91B4801F02BF8280001F028F8EC
:10331000300001F025F82900200002F08AFE20008C
:1033200001F01EF8300001F01BF803233B70ACE7FE
:1033300000000020E8690008B4020020D80A00203C
:10334000FC020020D46D0008C0020020F80200201A
:10335000CC710008E06D0008EC6D0008BC7300083B
:10336000F46D0008386E0008A46D0008B06D000808
:10337000BC6D0008C86D00080223684C022723704A
:103380001A336370664B994640234A46D35C012B3F
:1033900005D0032221007020FFF7C2FD2778614E7F
:1033A0000A226149300002F011FE604D0A2210230A
:1033B0002900380002F0DCF85D4FA37829003000C6
:1033C0003B6002F036FE3000FDF714F8594B022244
:1033D00019008019984602F0F9FD10230A222900ED
:1033E000607802F0C5F83A68637894461B0263443B
:1033F000290030003B6002F01CFE3000FCF7FAFFB1
:1034000002224146801902F0E1FD10230A22290020
:10341000A07802F0ADF83A68237894461B04634420
:10342000290030003B6002F004FE3000FCF7E2FFB0
:10343000414F03228019390002F0C8FD02234A4699
:103440002370193363702533D35C02229146012B1C
:1034500006D0013221007020FFF762FD23789946E3
:10346000364E0A223649300002F0B0FD10230A22FF
:103470002900484602F07CF82900300002F0D9FD0E
:103480003000FCF7B7FF41468019022202F09EFD92
:1034900010230A222900607802F06AF8290030001F
:1034A00002F0C7FD3000FCF7A5FF4146801902225B
:1034B00002F08CFD6378A07822781B021B1812049E
:1034C0009B18204A2900136010230A2202F050F8AA
:1034D0002900300002F0ADFD3000FCF78BFF032225
:1034E0008019390002F072FDCFE602230B490C4A25
:1034F0000B7019334B702533D35C012B03D003229F
:103500007020FFF70DFD104800F02AFFBDE60F48C0
:1035100000F026FF03233B70B7E6C046B40200204C
:10352000D80A0020FC020020006E0008C002002023
:10353000F8020020CC710008BC730008D4020020FF
:103540000C6E0008E8020020186E0008286E0008C3
:1035500010B5034C03492068FCF760FE206010BDE5
:10356000F802002030750000962210B5054CD200FC
:1035700023680020934203DD06211800FCF74EFE6D
:10358000206010BDE802002070B5234D2B689C69B7
:1035900063062AD4230624D4E3061ED4A30602D548
:1035A00001221E4B1A608026F60034420CD1802680
:1035B000B600344207D01A4800F0D2FE4123202240
:1035C000EA542B68DE6170BD164800F0C9FE412345
:1035D0002022EA542B68DE61E9E7134800F0C0FEC0
:1035E000DCE7124800F0BCFED6E7114800F0B8FE58
:1035F0000223104E104A7370002313600F4A70218B
:10360000137053709370280003330D4AFDF7D2FAFC
:1036100003237370BEE7C046D80A0020FC010020D7
:10362000706E0008686E00085C6E0008506E00083E
:10363000486E00080000002024030020EC02002057
:10364000B4020020F8B5234E0A2223493000FFF7C8
:10365000DFF8224CA023962220005B005200E250AB
:10366000283AFF3A1E491E3002F0B0FC20001D49E6
:1036700007220E3002F0AAFC22001B4B1B4F23CB6B
:1036800023C200251988380011809B78184993704F
:10369000184B14221D609D80FFF7ECF890233A68C8
:1036A0005B00116830000B43134E13601349322244
:1036B000FFF7E0F8300001220821FDF719FA104B5E
:1036C000300001220821DD61A567FDF711FA0D4BDD
:1036D0001D60F8BD240B0020886E000864080020DF
:1036E000946E0008AA6E0008B46E0008D40B002087
:1036F000C002002000020020000400480405002051
:103700002803002038060020F0B5DE46574645461F
:103710004E46E0B597B0FFF71BFFDB4CDB4B2100BB
:103720000A2218600A2301F023FF01AB9846180013
:10373000FCF760FE2C234246135401302100404424
:1037400002F085FCFFF710FFD14CD24FA36F386019
:10375000012B00D1D8E001220821CF48FDF7C8F99C
:10376000FFF7F6FEFFF700FFCC4D2B78202B00D99A
:1037700094E0CB4A9B00D3589F46AA2301225B00CA
:10378000E250C84B0B321800C7499946FFF740F882
:10379000E36F002B01D000F05DFCC44B052298467E
:1037A000C349180002F012FC43462100581D243181
:1037B00002F04DFCFFF7CCFEB4480A230A2209A907
:1037C000006801F0D5FE4046FCF714FE82464046F4
:1037D00004225044B74902F0F9FB5046033009A9CE
:1037E000404402F034FCFFF7BFFE0A230A2209A975
:1037F000386801F0BDFE4046FCF7FCFD82464046BD
:10380000AD495044042202F0E1FB504603304044ED
:1038100009A902F01CFC8423E258012A01D100F01E
:10382000B2FCA64B9A46A64B9B468823E258012A37
:1038300001D100F07BFC8C23E258012A01D100F079
:1038400048FC8C235B00E258012A01D100F026FDE0
:103850008A235B00E258012A01D100F0F2FC8E239A
:103860005B00E258012A01D100F0BEFC4046FCF7A3
:10387000C1FD8146404603229249484402F0A6FB1E
:103880004A46023292B241465046FEF7C1FF32220A
:1038900059465046FEF7EEFF00232B708A4A136804
:1038A00001331360132B03DD884B5B68012B43D07E
:1038B0009E22A0215200A358490061580133A35011
:1038C0008B4206DB2B78002B03D1804B99680029B3
:1038D00027D0B0235B00E2583B2A1BDC7C4B7D4A9F
:1038E0001968914209DD2A78002A06D1A26F002AC0
:1038F00003D176490968012928D017B03CBC90460D
:103900009946A246AB46F0BD002208216248FDF769
:10391000EFF825E70022E250FFF794FE01232B7019
:10392000EBE718680128D4D1A150DA69002A00D049
:1039300073E312232B70CCE70023674913605948C7
:103940000522FEF765FF0E232B70B1E71A60634B6B
:10395000634C1A68634922601B794C4A23713B68A7
:103960001268200002F03CFB2000FCF743FD210020
:1039700082B24C48FEF74CFF0F232B70BDE70A22A2
:1039800059494848FEF744FF584B002298469B8807
:10399000032B00D957E3802155480902FDF7A8F809
:1039A000434642469B880133938077E7434B0B2283
:1039B000984650494046FEF72BFF32224049404688
:1039C000FEF758FF00232B7068E7364B0C221800D7
:1039D00049499846FEF71CFF444B99469B88032BA8
:1039E00000D923E3012204212B48FDF781F84B463F
:1039F0004A469B8841490133938040460C22FEF79A
:103A000007FF4BE708223E492648FEF701FF8021C9
:103A1000012209023648FDF76BF80022334B9A80E9
:103A200003232B703AE7254B0A22984618003549A4
:103A3000FEF7EEFE322222494046FEF71BFF052329
:103A40002B702BE71D4B0F22984618002E49FEF7CE
:103A5000DFFE32221A494046FEF70CFFF823002110
:103A60002A4AD150E03B2B7018E7144B0B229846A2
:103A700018002749FEF7CCFE322211494046FEF7D6
:103A8000F9FE0E232B7009E7C00200203C0600203F
:103A900064080020000A0020000400480400002000
:103AA000086A0008240B0020C4700008700500207C
:103AB000D4700008DC700008E0700008D40B00200F
:103AC000C80900204C700008380600202803002098
:103AD000FC0900200F0E000050710008587100080A
:103AE000640400207C6F0008C46E000800020020FF
:103AF00000080048146F0008DC6E0008EC6E000837
:103B0000D06E0008086F0008EC6F00086803002002
:103B1000AC6F0008DE4B0722DE491800984602F021
:103B20009EFA002800D1BEE20322DB49404602F0A3
:103B300096FA002800D1C3E29A2200230121520004
:103B4000A3500432A1502B70A8E6D44B1E229846F5
:103B50001800D349FEF75CFE3222D2494046FEF7F8
:103B600089FE20232B7099E6CC4B09229846180039
:103B7000CD49FEF74DFE3222CA494046FEF77AFE95
:103B800011232B708AE6C54B092298461800C749B5
:103B9000FEF73EFE3222C3494046FEF76BFEA823E5
:103BA00005225B00E250473BFF3B2B7076E6BB4BA8
:103BB000092298461800BE49FEF72AFE3222B9496A
:103BC0004046FEF757FE08232B7067E60922B949E5
:103BD000B948FEF71DFEB14B0B2298461800B749B5
:103BE000FEF716FE3222AF494046FEF743FE0122A1
:103BF000B34B5A601A6007232B704FE6B14BB24AA1
:103C0000984612683B68B149404602F0E9F94046DF
:103C1000FCF7F0FB414682B2A748FEF7F9FDA84B3E
:103C20001A68002A2AD05B68002B27D080235B000B
:103C3000E358012B22D0A64B092299461800A5492A
:103C400002F0C4F948460A22A349093002F0BEF93D
:103C500048460422A149133002F0B8F98F4B1622CE
:103C60009A4649461800FEF7D3FD8E493222504647
:103C7000FEF700FE41469A4802F0E9F900232B7056
:103C80000CE60B2297498C48FEF7C2FD834B0422B9
:103C9000984695494046FEF7BBFD32228149404691
:103CA000FEF7E8FDFAE57D4B052298468F49F1E7DE
:103CB0007A4B072298468E49ECE7784B0A229846C1
:103CC00018008C49FEF7A4FD322276494046FEF7E3
:103CD000D1FDAA2200235200A3502B70DEE56F4BCA
:103CE0000822984618008449FEF792FD32226D4959
:103CF0004046FEF7BFFD00232B703533FF33E358FA
:103D0000012B00D0CAE50B332B70C7E509AB9846F1
:103D100040467A4B06CB06C0794902F081F943460A
:103D2000C31A99460322774902F050F94B469A1C70
:103D30005A4B92B2994618004146FEF769FD32226D
:103D400058494846FEF796FD00235D4A2B701362E2
:103D5000A4E5524B0C22984618006B49FEF758FD1B
:103D6000322250494046FEF785FD00238022A350B1
:103D70002B7093E5002301222B708033E25009ABB6
:103D80009846362321326B441A8042465F4B43CB20
:103D900043C235201968684411601B7921001371F2
:103DA00002F03EF94346C31A99460222584902F0EE
:103DB0000DF94B462100981C1E31404402F030F9A9
:103DC00043460322C31A4F49994602F0FFF8A36FF6
:103DD000002B00D14DE116232B705FE52F4B0E22F7
:103DE000984618004B49FEF713FD32222D494046F4
:103DF000FEF740FD0023324AA367D3618022A3501F
:103E00002B704BE5254B0E2298464349D2E5234BB8
:103E10000E22984618004149FEF7FAFC3222214949
:103E20004046FEF727FD0122254B9A610023A36738
:103E300013332B7032E5194B0C2298461800384981
:103E4000FEF7E6FC322217494046FEF713FD0A232F
:103E50002B7023E52249404602F0E2F84346C31A9C
:103E6000994603222F4902F0B1F84B469A1C0B4B9E
:103E700092B2994618004146FEF7CAFC322209491F
:103E80004846FEF7F7FC00230D4A2B70536205E508
:103E900039090020B86F0008D46F0008D40B002047
:103EA0005C6F0008C8090020506F0008446F0008CC
:103EB000386F0008206F0008240B00202C6F0008CA
:103EC00028030020640400203C0600207C6F0008CA
:103ED00004050020946F0008A06F0008D06F000850
:103EE000980500203C7100084871000834710008F2
:103EF0002C71000820710008FC6F0008B8700008E1
:103F000068030020BC730008A870000890700008C7
:103F1000A4700008807000087070000860700008CD
:103F2000507000084C700008EF4BF0499B4601238D
:103F30005A469360EE4B0A2299461800FEF768FC39
:103F40000C22EC494846FEF763FCEB4B18009A46FE
:103F5000FCF750FAE94B984601280CD9102251463B
:103F6000180002F07CF8002800D192E00F22E4490A
:103F70004846FEF74DFCE34B9A464346524603CA79
:103F800003C31188484619809278DF499A70072246
:103F9000FEF73EFC4046FCF72DFA414682B2484609
:103FA000FEF736FC0222D9494846FEF731FC5B4653
:103FB0001B68002B2CD05B465B68002B28D080232D
:103FC0005B00E358012B23D0D14B092299461800FE
:103FD000D04901F0FBFF484651460A22093001F062
:103FE000F5FF48460422CC49133001F0EFFFCB4BDC
:103FF00016229A4649461800FEF70AFCC8493222A2
:104000005046FEF737FC4146C648F83102F01FF82B
:104010009A2301225B00E25030E6012A55D09B69C9
:10402000012B00D055E413332B7052E400220421FD
:10403000BD48FCF75DFD04230B22BC4940462B70B4
:10404000FEF7E6FB2AE40421B748FCF751FD022302
:104050002B7023E4B64B05229846B649180001F0B0
:10406000B5FF210043469431581D01F0F0FFFFF7E2
:10407000D2FBAA4B4A4699460232414692B21800F8
:10408000FEF7C6FB3222A6494846FEF7F3FBFFF7D0
:1040900005FC0C22A8494846FEF7BAFB51464046AB
:1040A00001F0D5FF67E79D4B13229846A349404690
:1040B000FEF7AEFB32229A494046FEF7DBFB3BE5BA
:1040C000964B132298469E49F1E715232B70FFF774
:1040D00000FC00264246E650603B1370501C994994
:1040E000092201F073FF21004046C6310A3001F079
:1040F00097FF4346C21A92B241464846FEF788FBF4
:10410000072291494846FEF783FB4046FCF772F9C7
:10411000414682B25046FEF77BFB3222594650465A
:10412000FEF7A8FB894B1E70FFF78BFB002642466B
:10413000E6505C3B1370501C8549082201F046FF95
:1041400021004046B231083001F06AFF4346C21AEE
:1041500092B241464846FEF75BFB07227A49484641
:10416000FEF756FB4046FCF745F9414682B2504601
:10417000FEF74EFB322259465046FEF77BFB734B4F
:104180001E70FFF758FB00264246E6502C23501CB9
:1041900013706849052201F019FF43462100981D5C
:1041A000943101F03DFF4346C21A92B2414648465F
:1041B000FEF72EFB072264494846FEF729FB4046DE
:1041C000FCF718F9554B82B29A4641461800FEF7A3
:1041D0001FFB534B3222190050469B46FEF74AFB09
:1041E0005A4B1E70FFF721FB00264246E650F03B7B
:1041F0001370501C5749052201F0E8FE4346210088
:10420000981D4C3101F00CFF4346C21A92B2414650
:104210004846FEF7FDFA07224B494846FEF7F8FAF2
:104220004046FCF7E7F8414682B25046FEF7F0FA06
:10423000322259465046FEF71DFB444B1E70FFF7D5
:1042400015FB00264246E650E83B1370501C4249DD
:10425000042201F0BBFE4346611DFF31581D01F0F1
:10426000DFFE4346C21A92B241464846FEF7D0FAF4
:10427000072235494846FEF7CBFA4046FCF7BAF824
:10428000414682B25046FEF7C3FA322259465046A2
:10429000FEF7F0FA2D4B1E70FFF7E1FA00264246BA
:1042A000E650EC3B1370501C2C49072201F08EFEA7
:1042B000072241464846FEF7ABFA07222249484604
:1042C000FEF7A6FA4046FCF795F8414682B2504602
:1042D000FEF79EFA322259465046FEF7CBFA1B4BA8
:1042E0001E70FFF7B5FAC0462803002008700008CA
:1042F000240B002014700008160900206C03002015
:1043000034700008A06F000844700008BC730008F7
:1043100004050020946F0008D06F0008D40B002023
:10432000C80900209805002000040048FC6E000821
:1043300070050020E470000824700008C06F0008B9
:10434000D86F0008FC700008EC70000860030020C3
:10435000F470000818710008107100080871000856
:1043600010B50400FCF746F8210082B20148FEF7C0
:104370004FFA10BD240B002070B51D4C88B01122DF
:104380001C49200001F022FE1B4D1C492A006846F2
:1043900001F026FE6946200001F04BFE2A00184974
:1043A0001E32684601F01CFE2000FCF723F8694627
:1043B000001901F035FE05221249061B01F006FE28
:1043C0002900701D9439001901F02AFE3A232900B2
:1043D000037001257639013001F022FE2A1B821874
:1043E0002100094801F0F2FD084B5D6208B070BD84
:1043F000980500209C710008F8080020B0710008A2
:10440000BC710008C8710008640400202803002063
:10441000F0B5C64600B5564F8EB01022554938004B
:10442000FEF7F6F901A8FEF775FD534C0C2253492F
:10443000200001F0CBFD01AA514904A801F0D0FDF4
:1044400004A9200001F003FE4E4D4F492A0004A8A4
:1044500001F0C6FD2000FBF7CDFF04A9201801F0F4
:10446000DFFDEB6A012B00D17DE02000FBF7C2FFEE
:104470009423464D5B00EB582018012B69D00E2287
:10448000434901F0A3FD2000FBF7B4FF90235B003C
:10449000EB582018012B61D014223E4901F096FD03
:1044A0003D4D3E492A0004A801F09AFD04A92000D0
:1044B00001F0BFFD2A003A495A3A04A801F090FDE4
:1044C00004A9200001F0B5FD2A0036493C3A04A8B1
:1044D00001F086FD04A9200001F0ABFD2023324A43
:1044E000324904A8137001F07BFD2000FBF782FF26
:1044F00004A9201801F094FD05222D49061B01F0A6
:1045000065FD2900701DEE39201801F089FD3A2360
:1045100029000370D039013001F082FD0126254BBE
:1045200005009846321B8218210018002C1B01F050
:104530004DFDA2B241463800FEF76AF902221E493B
:104540003800FEF765F91D4B5E620EB004BC904664
:10455000F0BD0D221A4901F039FD94E710221949E6
:1045600001F034FD9CE71522174901F02FFD7CE78F
:10457000240B00201C7200089805002030720008EF
:104580003C7200086809002044720008640800209A
:104590007C7200089C72000852090020B07200086A
:1045A000B0710008BC7100086C070020C0720008E0
:1045B000C871000864040020BC73000828030020B0
:1045C0006C7200088C7200085472000830B5012526
:1045D000164C83B022230F2221000095144800F0CE
:1045E00097FF2000FBF706FF124B03280CD8002290
:1045F000DA619023104AD358012B01D003B030BDAB
:104600000F220E4B1A70F9E70022DD619A610C4D02
:104610000A4B15321A70210082B22800FEF7F8F812
:10462000022208492800FEF7F3F8E7E740040020DB
:104630007C070020280300206408002004000020DC
:10464000240B0020BC7300080023164A9360164A0E
:104650001360164B5A6A186A012A0AD0144A117854
:104660000A2914D001280FD01F2915D10423137053
:1046700070475A68012AF1D1DA69002AEED10F2376
:104680000B4A13700128F3D117231370F0E709398F
:1046900059610128ECD1F7E71D29E9D11E231370D8
:1046A000E6E7C0460002002038060020280300206C
:1046B00004000020F0B5DE464E4657464546E0B5BC
:1046C000E64CF5B00922E6492000FEF7A1F8E54DD9
:1046D00000262800FBF78EFE290082B22000FEF79C
:1046E00097F8E14F022239002000FEF791F82900E7
:1046F00047A801F0ACFC0023A02200931AA93B3389
:1047000047A800F005FF942399461E339C46D74DD9
:10471000AC446346A9440293039580E00522D44942
:104720001AA801F09CFC002800D1D1E00422D14954
:104730001AA801F094FC002800D1E6E00422CE493A
:104740001AA801F08CFC002800D115E10422CB4905
:104750001AA801F084FC002814D18A235B00EB58CE
:10476000002B00D116E2C64B18009846FBF742FE1C
:10477000414682B22000FEF74BF8022239002000A9
:10478000FEF746F8BF4B0522BF491800984601F0D6
:1047900066FC002800D1D0E10522BC491AA801F02E
:1047A0005EFC8046002800D1AEE10322B8491AA879
:1047B00001F055FC002800D192E10422B5491AA865
:1047C00001F04DFC002800D132E10722B2491AA8BD
:1047D00001F045FC8046002800D10FE10522AF49D9
:1047E0001AA801F03CFC002800D1FAE00322AC49F1
:1047F0001AA801F034FC002800D1DAE00722A94908
:104800001AA801F02CFC002800D1E8670136F3B2A9
:104810000093A0223B231AA947A800F079FE1AA80A
:10482000FBF7E8FD012800D89AE182B21AA920001E
:10483000FDF7EEFF022239002000FDF7E9FF042218
:1048400099491AA801F00BFC8046031E00D065E7C9
:1048500001339A460093282239330DA91AA800F093
:1048600057FE43461E22009349462C230DA800F014
:104870004FFE534602991E2200930DA82B33884603
:1048800000F046FE4846FBF7B5FD494682B22000DF
:10489000FDF7BEFF032285492000FDF7B9FF404622
:1048A000FBF7A8FD414682B22000FDF7B1FF0222CE
:1048B00039002000FDF7ACFF4B465246943BDA67C7
:1048C0006B4905221AA801F0CAFB002800D02DE789
:1048D00001230422009305A9393347A800F018FEEC
:1048E0000322734905A801F0BAFB002800D01DE798
:1048F000052270492000FDF78BFF04225D491AA8AC
:1049000001F0ADFB002800D018E70F226A49200013
:10491000FDF77EFF0123282200930DA939331AA841
:1049200000F0F6FD052265490DA801F098FB00286E
:1049300002D194235B00E850052261490DA801F0E3
:104940008EFB002803D1942301225B00EA500DA8BE
:10495000FBF750FD0DA982B22000FDF759FF02229E
:1049600039002000FDF754FF042243491AA801F042
:1049700076FB002800D0E9E601232822009305A950
:1049800098461AA8393300F0C3FD192205A94D48ED
:1049900001F065FB8246002800D0F0E00B224A4976
:1049A0002000FDF735FF98235146039A5B00D15054
:1049B000CCE6464B142298460123414600931AA8A0
:1049C000393300F0A5FD0A21404601F041F8434685
:1049D0000201101AA022453BFF3B80005200985074
:1049E0000CE71B223A492000FDF712FFFFF7C4FC39
:1049F0001C2238492000FDF70BFFF7E60DAB9A4665
:104A00000123042200939B46514639331AA800F033
:104A10007FFD53461B78312B00D1E6E016222E494C
:104A20002000FDF7F5FE962342465B00EA50D5E6EE
:104A30000DAB9846012304220093414639331AA84E
:104A400000F066FD43461B78312B00D1D7E01122E0
:104A500022492000FDF7DCFEB7E6C046240B00200B
:104A6000347300087C070020BC7300086408002031
:104A70004C7300085C73000884730008A873000876
:104A8000680900208C030020C0730008C47300086C
:104A9000F0730008187400082074000854740008AB
:104AA000987400089C74000840730008487300085C
:104AB000F0720008547300086473000874730008EF
:104AC0007C730008B00800208C730008A80900203F
:104AD0005C740008787400083C740008DC730008FB
:104AE0000DAB9846012304220093414639331AA89E
:104AF00000F00EFD43461B78312B6ED01322434944
:104B00002000FDF785FE58E60DAB9A4601230422EE
:104B100000939B46514639331AA800F0F9FC5346DE
:104B20001B78312B4FD0902342465B00EA50384926
:104B300011222000FDF76CFE37E6364B04229A4620
:104B40000123514600934046393300F0E1FC0A212D
:104B5000504600F07DFF642358435346D8601BE65F
:104B6000922200235200AB503432AB502A4A1370C9
:104B700075B03CBC90469946A246AB46F0BD0D22AE
:104B800026492000FDF744FE98234146039A5B0026
:104B9000D150DBE50E2222492000FDF739FE6B1DC6
:104BA000FF339846012305220093414639331AA862
:104BB00000F0AEFC0A21404600F04AFF642358434F
:104BC000AC33E850CFE50D2216492000FDF720FE5A
:104BD00090235A465B00EA50E7E50E221249200076
:104BE000FDF716FEFFF714FCE7E512220F4920003F
:104BF000FDF70EFE96235A465B00EA50EEE50D22C5
:104C000008492000FDF704FEDFE5C04604740008F3
:104C1000DC73000868090020040000209873000875
:104C2000B0730008CC730008F473000828740008FF
:104C3000F0B5CE46474680B5C94D87B00422C94974
:104C4000280001F0C3F9C84EE81C310001F0E8F972
:104C5000C64F03223900441B01F0B8F9C44B02349B
:104C60001800A2B229009846FDF7D2FDC14B994623
:104C70001B69012B1FD0A825BF4C6D006359012B68
:104C80002CD0012B06DD013B635107B00CBC9046D4
:104C90009946F0BD0722B949300001F0E0F900283B
:104CA00038D0AC225200A358012B00D1DDE034DD16
:104CB000013BA350E9E700224946A8250B620A619F
:104CC000AF48310001F0C3F91222AE494046FDF76A
:104CD0009FFDA94C6D006359012BD2D12333994616
:104CE000A1443100484601F0B2F90522A6494046E8
:104CF000FDF78EFD4846FBF77DFB494682B24046F4
:104D0000FDF786FD022239004046FDF781FD0023B4
:104D10006351BAE701236351B7E70A229B49300088
:104D200001F09DF9002800D19BE00822984930004D
:104D300001F095F9002800D193E00922954930004F
:104D400001F08DF9002800D192E004229249300050
:104D500001F085F9002800D194E006228F49300047
:104D600001F07DF9002800D188E006228C4930004E
:104D700001F075F9002800D198E00322894930003C
:104D800001F06DF9002800D199E008228649300031
:104D900001F065F9002800D194E006228349300033
:104DA00001F05DF9002800D18FE00F22804930002A
:104DB00001F055F9002800D18FE00D227D49300027
:104DC00001F04DF9002800D18CE007227A4930002B
:104DD00001F045F9002800D188E00722774930002A
:104DE00001F03DF9051E00D186E00822744930002B
:104DF00001F035F9051E00D1A5E009227149300006
:104E000001F02DF900286DD008226F49300001F023
:104E100026F9002866D005226C49300001F01FF900
:104E2000002872D14B465B6A012B00D12DE701248B
:104E300000902C230A2202A9300000F069FB2023F5
:104E400003226349009402A800F062FB03231422AA
:104E5000009360491F33300000F05AFB4B461C6141
:104E600013E706225C4B1A700FE7FFF723FC0CE7F1
:104E700011225A494046FDF7CBFC06E700234A467B
:104E8000936002E70123564C009321001F33032255
:104E9000300000F03DFB200001F067F87122400077
:104EA000121A5049200001F09BF8EEE601231E2261
:104EB00000934D491F33300000F02AFBE5E6FFF771
:104EC000C3FBE2E6FFF782FBDFE680231C22E05013
:104ED0007F3BA367404B1A70D7E616223E4BA06774
:104EE0001A70D2E614223C4B1A70CEE680213F485D
:104EF0004900FBF703FEC8E63D4BA06718603D483C
:104F0000FFF72EFA344B1D70BFE610223A493000ED
:104F100001F0A5F800281FD005223849300001F023
:104F20009EF8002800D0B0E6354B98804B4658607C
:104F3000D8619C235B00E258012A00D0A5E6E0502E
:104F4000254B1870A1E62A4BA06718602D48FFF783
:104F500007FA214B1D7098E6FEF774FB95E6C046F4
:104F600004050020A47400087C070020BC7300081E
:104F7000240B00202803002064080020BC740008D3
:104F80008C030020A874000860710008C474000835
:104F9000D0740008DC740008FC7400080475000874
:104FA0000C75000814750008187500082C750008A9
:104FB0002475000834750008447500084C75000815
:104FC000647500088875000894750008A0750008CD
:104FD000680300206C03002004000020E87400082F
:104FE0006C07002068710008B00800200004004829
:104FF0003806002054750008A8750008BC75000824
:105000000002002070750008214B10B5DA6819699C
:1050100091421DD01F4C5969A45C1F480132445471
:1050200096246400A24200DD0022DA604A1CE62ACF
:105030000FDC5A61425C3E2A12D00A2A06D10022B5
:10504000425401215A61421E127849420D2A13D05E
:1050500010BD0121002249425A61425C3E2AECD136
:105060000E4B9B6F013B5A4253410B225B42134054
:105070000B4A10331370EBE7002242545A61FFF7DA
:10508000D7FD802107488901FBF738FDE0E7C046DE
:1050900000020020400600207C0700206408002059
:1050A0000400002000080048B0220021094B5200F3
:1050B00099503E2802D1043A01319950064A0749D5
:1050C0001369C8549621013349008B4200DD002347
:1050D0001361704764080020000200204006002091
:1050E000132310B598B00B93123B0C930E931093AF
:1050F0000F330F93119380235B02159380231B03BF
:105100000224169300230BA814941793FCF736FC83
:10511000002800D0FEE70723029003900121684693
:1051200000930194FCF7C2FE002800D0FEE7232381
:1051300006900790089004A80493FDF733F8041E26
:1051400000D0FEE7FCF7FCFFFA218900FAF7DCFF4C
:10515000FBF7F8FA0420FBF711FB012022002100E5
:105160004042FBF7B9FA18B010BDC046F0B5C646CC
:1051700000B58CB0FBF746F9FFF7B2FF8021B34CC6
:1051800009036269E0250A43626163692D020B40ED
:1051900080210193019B6269C9030A4362616369CB
:1051A000AB480B4080210293029B626989020A434B
:1051B00062616369B2270B4080210393039B62699C
:1051C000C9020A436261636900220B40049329000B
:1051D000049BFBF78DFC9F4B002219009E489846CC
:1051E000FBF786FC9020FF0100223900C005FBF789
:1051F0007FFC01260795002507A995480896099583
:105200000A95FBF779FB434607A99348079308964D
:1052100009950A95FBF770FB902007A9C005079731
:10522000089609950A95FBF767FBA02390201B02BF
:1052300007A9C005079308950995FBF75DFB63690E
:1052400000223343636163690021334000930920E6
:10525000009BFBF741FA0920FBF76AFA7F4C804B71
:1052600004272360C2232000FF336560A560E5604A
:1052700026616761A561E56126626562A362E562F8
:1052800025636663FBF7EEF8002800D0FEE7802375
:105290005B010893802307905B0507A92000099311
:1052A000FBF78AF9002800D0FEE707A9200007963F
:1052B000FBF782F9002800D0FEE707A92000079736
:1052C000FBF77AF9002800D0FEE7052307A92000A4
:1052D0000793FBF771F9002800D0FEE7062307A922
:1052E00020000793FBF768F9002800D0FEE70723AA
:1052F00007A920000793FBF75FF9002800D0FEE71D
:10530000584C594BA0602360584B20616061A061EC
:10531000E061206220006360E660FBF7F3FB011EA2
:1053200000D0FEE72000FCF7CDFA011E00D0FEE71A
:105330002000FCF7F5FA002800D0FEE74C484D4B62
:10534000E02203608223D200C26080225B004360BF
:10535000002392008261FA3A836003614361C36172
:10536000036243628362FF3A03630833C2624363AA
:10537000FCF7C4FF002800D0FEE7E1250C243E4BDB
:105380003E4A6D029860D86018619861D8611862D1
:10539000586218001A605D605C61FDF765FC0028CA
:1053A00000D0FEE7364B374A9860D86018619861A4
:1053B000D8611862586218001A605D605C61FDF780
:1053C00053FC002800D0FEE72F4B304A9860D8608D
:1053D00018619861D8611862586218001A605D609F
:1053E0005C61FDF741FC002800D0FEE7284C294B0A
:1053F000606023606423A06020616061A061200080
:10540000E360FCF7E9FF002800D0FEE7802307A94E
:105410005B0120000793FDF75BF8002800D0FEE752
:105420000590069005A92000FDF7CCF9002800D0D2
:10543000FEE7FA204000FBF703F81748FEF790FF5D
:10544000FEF700F91548FEF78BFFFEE7001002405B
:10545000000800483F13000000040048880C0020AA
:1054600000240140D80A0020005400400E0900200A
:10547000040A002000380040240B002000380140BE
:10548000D40B002000440040680A0020004800407F
:10549000940B0020002C0140C4750008CC75000856
:1054A00070B5174C050023681D2B0DDC01332360FC
:1054B000144A636893420FDC0133636080232A68D7
:1054C000DB059A4218D070BD00232360FFF79CFDD6
:1054D00063680C4A9342EFDD00236360FDF7FCFD37
:1054E000FEF712F980210848C901FBF707FB80236A
:1054F0002A68DB059A42E6D1FAF794FFE3E7C04653
:1055000030020020E703000000080048FEE7C04624
:10551000F0B50600013A05A80078D7B23278844683
:10552000002500240020002A0CD117E01F2A04D9EE
:105530000A55BC4201DA013424B2013000B2325CB7
:10554000002A0BD09342F1D1AC4509D0013000B212
:10555000325C0135EDB20024002AF3D1AC4503D111
:10556000091900230B70F0BD01204042F9E7C04645
:10557000F8B54546DE4657464E468046E0B50D0036
:105580000A2B00D192E0102B0DD00C000126302305
:105590002370AC190023280023703CBC9046994628
:1055A000A246AB46F8BD013A013B010F00D0EDE148
:1055B000002A00DC30E20116194000D10AE22C007A
:1055C0000023092900D8F0E137312170591C0BB2B2
:1055D0006C188A42DEDD41460902090FE8180029ED
:1055E00000D1E8E1092900D8E5E137310170013344
:1055F0009BB219B2EC189A42CCDD43461803000F57
:105600006B18002800D1D9E1092800D8D6E137303D
:10561000187001318BB219B2EC189A42BADD4346C8
:105620001804000F6B18002800D1CAE1092800D81F
:10563000C7E13730187001318BB219B2EC189A42B9
:10564000A8DD43461805000F6B18002800D1BBE108
:10565000092800D8B8E13730187001318BB219B27F
:10566000EC189A4296DD43461B061B0F6818002B68
:1056700000D1ACE1092B00D8A9E137330370013127
:105680008BB219B2EC189A4200DC83E742460F2332
:1056900013406A18002B00D1B8E1092B00D8B5E1FE
:1056A0003733137001318CB22C1973E700260028B0
:1056B00004DA434298462D2301360B70DE494046FA
:1056C000571EFAF721FDC3B2002800D098E04046EB
:1056D000D949FAF79FFDAC1988468B46B74200DCE2
:1056E0008BE0D6494046FAF70FFDC3B2002800D040
:1056F0009BE0D2494046FAF78DFD89468B464846E5
:10570000CF49FAF701FDC3B20200002B00D09FE0A1
:10571000FF331A409B464B46C948CA4942439B1A2D
:1057200018009946FAF7F0FCC3B20200002B00D033
:10573000A3E05B461A405001801A8301181A4B46B9
:10574000C000801880011B1A1800BF499946FAF75B
:10575000DBFCC3B20200002B00D0A8E05B461A407D
:105760004B46B948B94942439B1A18009846FAF784
:10577000CBFCC3B20200002B00D0ADE05846B34BC7
:10578000104058434346FA211B1A180089009946D5
:10579000FAF7BAFCC3B2002B00D0B3E0FF331840D5
:1057A0009A464B464101091A89000818C0001B1A85
:1057B000180064219946FAF7A7FCC3B20200002B37
:1057C00000D0B7E0534664201A404B4642439B1A30
:1057D00018000A219846FAF797FCC2B20300002A83
:1057E00000D0BCE050464246184083001B185B00C6
:1057F000D31ADBB2002B00D0C2E00136B6B2C6E647
:105800003033AB550136B3B29A468B4940461EB28F
:10581000FAF700FD53468B46EC18574500DCB9E615
:1058200086495846FAF770FCC3B2844A3033504375
:105830005A4601362370121AB3B21EB29346EC18C0
:105840009F4200DCA6E67E491000FAF75DFCC3B279
:10585000FF2202407A48303350435A4601362370C3
:10586000121AB3B21EB29146EC189F4200DC91E6C8
:1058700074491000FAF748FCC3B2FF210140480107
:105880003033401A23708301181A4B46C000401869
:1058900001368001B2B21B1A16B29946AC18974273
:1058A00000DC77E618006849FAF72EFCC3B2FF2245
:1058B00002406548303350434A4601362370121A7D
:1058C000B3B21EB29046EC189F4200DC62E65F491C
:1058D0001000FAF719FCC3B2FF2202405B483033D4
:1058E0005043424601362370121AB3B21EB291469B
:1058F000EC189F4200DC4DE6FA2110008900FAF70F
:1059000003FCC3B2FF21303323704B4601404801F2
:10591000401A800040180136C000B2B21B1A16B2FD
:105920009946AC18974200DC34E618006421FAF777
:10593000EBFBC3B2FF220240642050434A4630339F
:1059400001362370121AB3B21EB29046EC189F4271
:1059500000DC1FE610000A21FAF7D6FBC2B2FF23D3
:10596000414618408300303201361B1822705B001C
:10597000B2B216B2CB1AAC18974200DC0AE6DBB220
:1059800030330136237034B22C1903E609290FD9BC
:10599000373129706C1C012A00DCFBE543461901F4
:1059A000090F0123002900D00BE6303121700DE6EC
:1059B00030312970EEE73031017018E63030187060
:1059C00027E63030187036E63030187045E6303350
:1059D000037054E641460915194020D14146081488
:1059E000184016D10813184022D1081218401CD1B3
:1059F00009110B4016D10F2342462C0013400026FC
:105A0000002B00D1F9E62A00310046E6303313704E
:105A100048E62B000021F7E52C000026EDE62800E3
:105A20000023DFE52800002124E62B0000210FE6FB
:105A30002B000021FAE5C04600CA9A3B00E1F505BB
:105A40008096980040420F00A086010010270000B9
:105A500010B503000A291CD0002010290BD010BD5E
:105A60001100613905292DD911004139052901D8C5
:105A7000373A104301331A78002AF0D02F2AF9D987
:105A800011003039CCB20001092CE9D808430133A8
:105A9000F1E702780020002AE1D011003039CCB2C1
:105AA000092C0CD882001018400008185A780133CD
:105AB000002AD4D011003039CCB2092CF2D92D2AC9
:105AC000E9D9F3E7573A10430133D4E70122134BE6
:105AD00000B59969052011439961996983B00A401D
